:020000040000FA
:04000000E7EF8CF0AA
:10FA7800005075736820427574746F6E20746F201F
:10FA88004C696E6B205075736820616761696E20E0
:10FA9800746F20556E6C696E6B5075736820536572
:10FAA800727669636520746F204578697400205008
:10FAB80072657373204368616E6E656C2056656E5F
:10FAC8006420427574746F6E206F72205072657373
:10FAD80073202020202020205365727669636520DA
:10FAE800746F204578697400486F6C64206368619E
:10FAF8006E6E656C20627574746F6E206F72205024
:10FB0800757368207365727669636520746F202049
:10FB180065786974005075736820627574746F6EC7
:10FB2800203120746F20636C656172206372656494
:10FB3800697473202020616E6420657869740050B0
:10FB4800726573732031203D202B206F7220322084
:10FB58003D202D20205072657373203820746F204B
:10FB68004578697400205075736820627574746FE5
:10FB78006E20746F202020202076656E64005072FD
:10FB8800657373207365727669636520746F206589
:10FB9800786974002020496E697469616C697A65B6
:10FBA80020486F707065720020205365747570204E
:10FBB80053656E736F72002020496E7365727420EE
:10FBC8004E6F74650020204175646974204D6F6420
:10FBD80065005072696365205200446174652000B5
:10FBE8002F002E002D002C002B002A0029002800B1
:10FBF80027002600250024002300220021002000E1
:10FC08001F001E001D001C001A0019001800170014
:10FC18000F000C00040002000000461E230FBAE18A
:10FC2800FEFDF2DBDAECACA8A7A6A4A30101030C45
:10FC38000B0A090807060504030201333635343375
:10FC4800323130541400181B080705040602A801B5
:10FC58000C2C282431203D20417564697420322001
:10FC68003D2053656E736F72333D486F702D436F3F
:10FC7800696E20343D4E6F74652D656E353D437257
:10FC880065642D636C7220363D507269636573201C
:10FC9800373D56656E6420736574757020383D4530
:10FCA80078697400456E61626C65202F2044697321
:10FCB80061626C652020202031203D205231302C9B
:10FCC8002032203D205232302020202033203D2079
:10FCD8005235302C2034203D205231303020202025
:10FCE80035203D2052323030005075736820312065
:10FCF80056656E642054696D652C2020203220439F
:10FD080068616E4C696E6B20332053656E734F6665
:10FD1800663420436C72546F7420352046616352F8
:10FD2800657365742038206578697400507265734E
:10FD380073206368616E6E656C20627574746F6E93
:10FD480020202020746F20736574207072696365A9
:10FD580020202020202053657276696365203D208D
:10FD680045786974005072657373206368616E6EBC
:10FD7800656C20627574746F6E20202020746F206B
:10FD88006C696E6B20746F202020202020536572D0
:10FD980076696365203D204578697400486F707006
:10FDA800657220436F696E202020202020202020AB
:10FDB800427574746F6E2031203D202B202620322E
:10FDC800203D202D2056616C7565203D2052005045
:10FDD8007573682031203D202B2E35207365636FA5
:10FDE8006E6420507573682032203D202D2E3520FA
:10FDF8007365636F6E642000507573682063686173
:10FE08006E6E656C20627574746F6E2050757368C1
:10FE1800207365727669636520746F2065786974EC
:10FE280000496E73657274204E6F746573202620C6
:10FE380050726573734C697420427574746F6E20C8
:10FE4800546F2056656E64002020202020496E697A
:10FE58007469616C697A6520202020202020202088
:10FE6800204E6F746520526561646572004E6F2084
:10FE78004368616E676520557365204578616374D2
:10FE8800202020202020416D6F756E74210052655E
:10FE980073657420746F2044656661756C742020E6
:10FEA8002020537461727420416761696E00507537
:10FEB80073682031203D204F6E2C2032203D204F8A
:10FEC80066662C2038203D20457869740020202063
:10FED8004E6F7465206572726F7220202020206337
:10FEE8006F6465203D203078005573652062757415
:10FEF800746F6E202F205365727669636500202029
:10FF080020202020202020202020202020202020E9
:10FF180020200054696D6520696E20312F32736589
:10FF280063203D200020202050726963652073659E
:10FF380074206D6F6465004372656469747320434F
:10FF48006C65617265640053656E7369746976697E
:10FF5800747920002020437265646974203D205222
:10FF6800002020204368616E6E656C20006C696E0D
:10FF78006B656420746F203A0053656E736F72204E
:10FF8800697320004361736820696E205200202045
:10FF980020202020202020002064697361626C6585
:10FFA800640020656E61626C656420002020205228
:10FFB80031302020004E6F2053746F636B00546FF4
:10FFC80074616C20520020205232303020002020F2
:10FFD800523130302000202052353020200020209F
:10FFE80052323020200056656E647320004F6666DA
:07FFF800004F6E20004000E5
:020000040001F9
:10000000000E1A6E1CEC91F0236E1D50235CD8B0CC
:1000100002D0000E12001E50235CD8B015B803D0D9
:1000200047EC91F01588000E1C6E070E4A6E11D039
:100030000B0E4A24D96EDA6A000EDA22DE50235CF7
:10004000D8A003D01C5001091C6E1C501C241C6E2F
:100050004A064A50D8A4ECD70B50235CD8A003D052
:100060001C5001091C6E1B50FF0A1C141C6E1392BD
:1000700085841C500F0B846E1C50F00B866E79EC3F
:100080008CF0226E22501B140009D8B40CD015B489
:10009000C0D7BD0E406EFF0E416E000E426ECCEC1E
:1000A00088F01584B6D722501C14226E2250D8B482
:1000B00046D0225066EC90F01A6E0B0E1A24D96EC0
:1000C000DA6A000EDA22DF50216E1AC047F022C031
:1000D00048F0030E1A6404D0800E226E070E1A6ECA
:1000E0001A507CEC8EF047C01AF048C022F01D0E6A
:1000F0001A24376E386A000E3822B4EC90F0496E3C
:100100004950D8A413B207D0495066EC90F01A6E4B
:100110001A507CEC8EF0215005EC8FF015981CECF9
:1001200091F0236E2350D8A413B605D013B203D098
:10013000235009EC8DF0839A8584010E12001594EA
:10014000138867D751EC8FF0C0EC89F067EC91F021
:10015000F0EC86F000F0010E0F01346F33EC91F0FB
:100160000009D8B4138E20C034FF13BE9FEC86F074
:1001700013A40CD0290E406EFE0E416E000E426E8E
:10018000CCEC88F0139413B69CEC90F013BA139A4D
:1001900013A805D005EC90F013B69CEC90F00E017E
:1001A000CEA530D03CEC81F0246E2450D8B428D0B9
:1001B00029B20CD020D0C3EC8CF0000E246E22D0DB
:1001C00029B8FBD7F8D739EC90F01CD024505A6EE0
:1001D0005B6A5B50000AD8A4F6D75A50060AD8B416
:1001E000EAD70F0AD8B4ECD7050AD8B4E6D71C0A68
:1001F000D8B4E3D7E8D72450EDEC8DF0138002D0CB
:1002000029B2E1D713A007D000EC80F00009D8B4E0
:10021000A1D7FF009FD779EC8CF00009D8B427D084
:1002200079EC8CF0226E1B50FF0A22140009D8B41E
:1002300015B409D0BD0E406EFF0E416E000E426E29
:10024000CCEC88F0158415B485D7225066EC90F07C
:100250005C6E0F0E5C24376E386A000E3822B4ECE8
:1002600090F0216E215018EC90F0158473D715A4EE
:1002700071D7159413846ED7CFEC8EF0000E396EC3
:10028000330EE5EC82F060C02BF0000160AF57D078
:1002900060517F0B2B6E19D00A0E246E2450120071
:1002A000140E246E24501200320E246E24501200BC
:1002B000640E246E24501200C80E246E24501200C6
:1002C000100E246E2982245012002B503C6E3D6A81
:1002D0003D50000AD8A4F4D73C50000AD8B4DCD76B
:1002E000010AD8B4DDD7030AD8B4DED7010AD8B4DE
:1002F000DFD7070AD8B4E0D7E3D7000E246E245026
:100300001200010E1AD0020E18D0000E246E29928F
:1003100024501200040E11D0050E0FD0060E0DD081
:10032000070E0BD0080E09D0090E07D00A0E05D013
:100330000B0E03D00C0E01D0000E246E30D0605195
:100340003C6E3D6A3D50000AD8A4F6D73C50000AE6
:10035000D8B4D3D7010AD8B4D4D7030AD8B4D3D7E2
:10036000010AD8B4D2D7070AD8B4D4D7010AD8B46E
:10037000D3D7030AD8B4D2D7010AD8B4D1D70F0A39
:10038000D8B4D0D7010AD8B4CFD7030AD8B4CED7BF
:10039000010AD8B4CDD7070AD8B4CCD7CDD7298293
:1003A00024501200010E0F01346F000E3A6E020E3F
:1003B000396E350E3B6E000E3C6E020E3D6E6AECE1
:1003C0008FF0000E3A6E0C0E396E320E3B6E000E40
:1003D0003C6E030E3D6E6AEC8FF08C0E406EFF0E8D
:1003E000416E000E426ECCEC88F035C041F036C054
:1003F00042F0436A4BEC86F0C60E406EFF0E416E33
:10040000400E426ECCEC88F032C041F033C042F076
:1004100034C043F04BEC86F0F10E406EFE0E416EA0
:10042000140E426ECCEC88F0158649D079EC8CF035
:10043000226E2250D8B433D079EC8CF0226E060EA6
:10044000406EFF0E416E540E426ECCEC88F022508E
:1004500066EC90F01A6E040E1A24376E386A000E9D
:100460003822B4EC90F0506EEE0E406EFF0E416EEE
:10047000540E426ECCEC88F05050416E426A436A92
:100480004BEC86F079EC8CF00009D8A4FBD7060E73
:10049000406EFF0E416E540E426ECCEC88F033EC91
:1004A00091F00009D8A40BD020C034FF15965C0E43
:1004B000406EFC0E416E000E426ECCEC88F015A62C
:1004C0001200B4D7426E42C040F0403A0F0E4016C0
:1004D0000A0E40601ED042380F0B30099EEC8CF0A3
:1004E00033D0410E9EEC8CF02FD0420E9EEC8CF05F
:1004F0002BD0430E9EEC8CF027D0440E9EEC8CF05B
:1005000023D0450E9EEC8CF01FD0460E9EEC8CF056
:100510001BD042380F0B406E416A4150000AD8A4EC
:1005200013D040500A0AD8B4DCD7010AD8B4DDD7BA
:10053000070AD8B4DED7010AD8B4DFD7030AD8B483
:10054000E0D7010AD8B4E1D742C040F00F0E401600
:100550000A0E40601ED042500F0B30099EEC8CF00A
:100560001200410E9EEC8CF01200420E9EEC8CF0BC
:100570001200430E9EEC8CF01200440E9EEC8CF0A8
:100580001200450E9EEC8CF01200460E9EEC8CF094
:10059000120042500F0B406E416A4150000AD8A42D
:1005A000120040500A0AD8B4DCD7010AD8B4DDD70B
:1005B000070AD8B4DED7010AD8B4DFD7030AD8B403
:1005C000E0D7010AD8A41200E0D73A6E9E8067EC0B
:1005D00091F03A5025EC91F09E903AC02AF03950B3
:1005E000D8B41AD039283B6E14D0600E3924D96E95
:1005F000DA6A000EDA22DF5025EC91F0600E392421
:10060000D96EDA6A000EDA22DF502A242A6E3B06FF
:1006100039063B50D8A4E9D72A5025EC91F0FF0EBB
:1006200029EC90F0EAEC8EF0000E176E000E166EBC
:100630002990000E3B6E1CD0164A172A299013D021
:10064000600E3B24D96EDA6A000EDA220AEC91F0D1
:10065000DF6E5DEC91F09DA002D0298001D0299041
:10066000EAEC8EF03B2A0E01CDAB02D029A0E8D7F0
:100670000E01CEB102D029A0DFD73B06CEA102D019
:10068000298601D0299629A00FD0600E3B24D96E6F
:10069000DA6A000EDA22DF50D8B406D09E8067EC0A
:1006A00091F0000E25EC91F067EC91F03B501200B8
:1006B000AC0E406EFC0E416E000E426ECCEC88F02B
:1006C000298A298C64D0CDEC8DF0226E22C05EF098
:1006D00041D0B40E456EFF0E466E58EC90F02D6E74
:1006E000010E0CEC89F050D0E60E456EFF0E466E02
:1006F00058EC90F02D6E020E0CEC89F045D0DE0E19
:10070000456EFF0E466E58EC90F02D6E040E0CEC0C
:1007100089F03AD0D60E456EFF0E466E58EC90F03A
:100720002D6E080E0CEC89F02FD0CE0E456EFF0E0C
:10073000466E58EC90F02D6E100E0CEC89F024D023
:100740005C0E406EFC0E416E000E426ECCEC88F0EA
:10075000299A1AD022504A6E4B6A4B50000AD8A4EC
:1007600013D04A50010AD8B4B4D7030AD8B4BCD7BE
:10077000060AD8B4C4D70C0AD8B4CCD7180AD8B44F
:10078000D4D7900AD8B4DCD727C028F000F029AA23
:10079000120099D7C30E396ECD0EE82EFED7392E32
:1007A000FCD700F0000E876E000E866EC00E836EC2
:1007B000000E846E010E856E000E8C6E1F0E886E0C
:1007C000D00E896E800E8A6E000E8B6E000E0F01A9
:1007D000216FC00E196F000E266F000E2E6F010ED6
:1007E000116F000E256F000E2D6F000E186F000E9A
:1007F000106F000E206F000E2C6F000E0F6F000E9A
:10080000176F000E1F6F000E246F010E856E800E95
:100810008A6E000E216F000E206F000E1F6F550EA6
:100820000E01A06FAA0EA06FA091E00EB517000EEA
:10083000FD6F000EF46FE00E8D17F7EC90F0CFEC2B
:100840008EF041EC91F0B4EC8EF0EAEC8EF01200F8
:100850001484F10E406EFC0E416E000E426ECCEC24
:1008600088F051D0CDEC8DF0226E33D0ADEC8DF010
:10087000F0D751EC8CF0F10E406EFC0E416E000E84
:10088000426ECCEC88F03FD062EC8AF0F10E406E04
:10089000FC0E416E000E426ECCEC88F034D082EC3F
:1008A0008FF031D038EC87F0F10E406EFC0E416EC7
:1008B000000E426ECCEC88F026D0149449EC89F0FE
:1008C0005C0E406EFC0E416E000E426ECCEC88F069
:1008D0001AD02250566E576A5750000AD8A413D027
:1008E0005650010AD8B4C2D7030AD8B4C2D7060AF0
:1008F000D8B4CAD70C0AD8B4D2D7180AD8B4D2D729
:10090000900AD8B4DAD714A41200ACD7556E148864
:10091000D70E406EFD0E416E000E426ECCEC88F09C
:10092000260E5524376E386A000E3822B4EC90F04B
:10093000546E55C050F0545051EC8BF041D0CDEC7A
:100940008DF0226E2CD0542A260E5524376E386A2C
:10095000000E382254C039F027EC8EF055C050F00C
:10096000545051EC8BF02CD05406260E5524376E83
:10097000386A000E382254C039F027EC8EF055C08A
:1009800050F0545051EC8BF01BD01498000E406E78
:10099000FE0E416E000E426ECCEC88F011D022505B
:1009A000526E536A5350000AD8A40AD05250010A1A
:1009B000D8B4C9D7030AD8B4D7D7820AD8B4E5D7F0
:1009C00014A81200BCD7298C810E406EFF0E416E18
:1009D000000E426ECCEC88F03150020F1F6E4F0EAD
:1009E000406EFF0E416E400E426ECCEC88F03150EE
:1009F000020F546E54C050F01F5094EC8AF03DD05A
:100A0000CDEC8DF0226E20D020501F0B0F01346FE3
:100A1000202A54C050F01F5094EC8AF026D0205069
:100A20001F0B0F01346F200654C050F01F5094EC80
:100A30008AF01BD0299C5C0E406EFC0E416E000EAD
:100A4000426ECCEC88F011D02250526E536A535053
:100A5000000AD8A40AD05250010AD8B4D5D7030A44
:100A6000D8B4DDD7820AD8B4E5D70E01CEA505D01B
:100A700054C050F01F5094EC8AF029AC1200C0D73B
:100A80004A6E22C04BF0148E000E386E250E376E63
:100A9000B4EC90F04C6E4AC045F04BC046F04C5060
:100AA000F8EC89F046D0CDEC8DF0226E31D04B5071
:100AB000FF0A4C144C6E000E386E250E376E4CC07B
:100AC00039F027EC8EF04AC045F04BC046F04C5050
:100AD000F8EC89F02ED04C504B104C6E000E386E56
:100AE000250E376E4CC039F027EC8EF04AC045F029
:100AF0004BC046F04C50F8EC89F01BD0149E000E11
:100B0000406EFE0E416E000E426ECCEC88F011D0AD
:100B10002250486E496A4950000AD8A40AD0485069
:100B2000010AD8B4C4D7030AD8B4D5D7820AD8B436
:100B3000E5D714AE1200B7D7536E1482535066EC4B
:100B400090F0546E0F0E5424376E386A000E38221F
:100B5000B4EC90F0216E215018EC90F045D0CDEC23
:100B60008DF0536E30D0212A0F0E5424376E386A20
:100B7000000E382221C039F027EC8EF0215018ECFD
:100B800090F032D021060F0E5424376E386A000ED2
:100B9000382221C039F027EC8EF0215018EC90F06B
:100BA00023D014922D0E406EFF0E416E000E426E49
:100BB000CCEC88F0340E406EFD0E416E400E426E5D
:100BC000CCEC88F011D05350516E526A5250000A4A
:100BD000D8A40AD05150010AD8B4C5D7030AD8B452
:100BE000D1D7820AD8B4DDD714A21200B8D7A40E88
:100BF000406EFD0E416E000E426ECCEC88F0298CEA
:100C00003150020F1F6E000E386E1C0E376EB4ECA2
:100C100090F0566E1F50A8EC90F05650416E426A0C
:100C2000436A4BEC86F034D0CDEC8DF0226E18D0B8
:100C3000010E506E565049EC88F023D0020E506ED3
:100C4000565049EC88F01DD0299C5C0E406EFC0E7D
:100C5000416E000E426ECCEC88F0000E226E11D078
:100C60002250546E556A5550000AD8A40AD05450E8
:100C7000010AD8B4DDD7030AD8B4E0D7820AD8B4C1
:100C8000E3D7000E386E1C0E376EB4EC90F0566E43
:100C900029AC1200C9D7000E4F6E41C04CF042C0C3
:100CA0004DF043C04EF02CD0440E4F24D96EDA6A7A
:100CB000000EDA2241C037F042C038F043C039F0AC
:100CC0000A0E3A6E000E3B6E000E3C6EFFEC8BF08F
:100CD0003750DF6E41C037F042C038F043C039F0C2
:100CE0000A0E3A6E000E3B6E000E3C6E2DEC8AF042
:100CF00037C041F038C042F039C043F04F284F6E42
:100D0000415042104310D8B40CD0CED74F06440EF9
:100D10004F24D96EDA6A000EDA22DF5030099EECD9
:100D20008CF04F50800A7F0FD8B0F0D74C504D1048
:100D30004E10D8A41200300E9EEC8CF01200CAECBB
:100D400083F05C0E406EFC0E416E000E426ECCECE9
:100D500088F043D0CDEC8DF0226E1CD0D2EC81F027
:100D60003CD0E3EC84F039D0F7EC85F036D058EC89
:100D700083F033D07EEC8BF0139EFF00AAEC8BF057
:100D80002CD028EC84F029D0139EFF0026D0EDEC67
:100D900090F023D02250586E596A5950000AD8A4B6
:100DA0001CD05850010AD8B4D9D7030AD8B4D9D71F
:100DB000010AD8B4ECD7070AD8B4D6D70C0AD8B4ED
:100DC000D6D7180AD8B4D6D7300AD8B4D7D7600A3D
:100DD000D8B4D7D7C00AD8B4D7D713AE1200BAD771
:100DE000000E386E170E376EB4EC90F0186E159832
:100DF000000E386E2F0E376EB4EC90F00009D8B4A8
:100E000002D0138601D0139649EC89F060EC8EF085
:100E100044EC8EF0000E386E190E376EB4EC90F084
:100E2000206E205051EC91F0000E386E170E376E88
:100E3000B4EC90F01B6E500E406EFE0E416E000E34
:100E4000426ECCEC88F0C3EC8CF01594139E138AA0
:100E50001CEC91F00009D8A404D0139013841398CB
:100E600003D01380139413882992839A85841200E7
:100E7000960E406EFE0E416E000E426ECCEC88F077
:100E8000000E486E1D0E476E0AD047C037F048C0AE
:100E900038F0000E396E27EC8EF0474A482A485049
:100EA00004E1260E475CD8A0F0D7000E4A6E260E4D
:100EB000496E0AD049C037F04AC038F0080E396E82
:100EC00027EC8EF0494A4A2A4A5004E12E0E495C2A
:100ED000D8A0F0D7000E386E250E376E050E396E8D
:100EE00027EC8EF01F0E466E710E456E1E0EE82E1C
:100EF000FED7452EFCD7462EFAD700D01200496EF9
:100F000015801D0E4924376E386A000E3822B4EC65
:100F100090F04A6E4AC045F04950C6EC8AF031D094
:100F2000CDEC8DF0226E2250D8B426D02250D8B409
:100F300007D04A50D8B404D02250FF0A4A1402D035
:100F40004A5022104A6E1D0E4924376E386A000E30
:100F500038224AC039F027EC8EF04AC045F049509B
:100F6000C6EC8AF009D015906D0E406EFD0E416EF4
:100F7000000E426ECCEC88F090EC90F00009D8B4F2
:100F8000F2D715A01200CCD7436ECAEC83F0000E46
:100F9000846E000E866E838A8594010E1C6E43C09B
:100FA00041F01CC042F0412A02D0D8904236412E76
:100FB000FCD742501C6E4350D5EC8BF006D01C5031
:100FC0000F0B846E1C50F00B866E0F013DB103D0E9
:100FD0000E01CAABF4D7000E846E000E866E63EC71
:100FE00091F00E01CAAB12004350D5EC8BF00F010B
:100FF0003DB103D00E01CAABFAD70E01CAAB120045
:10100000138243506DEC8DF0000E216E1200416E84
:10101000000E3A6E020E396E350E3B6E000E3C6EBF
:10102000020E3D6E6AEC8FF0000E3A6E0C0E396EB9
:10103000320E3B6E000E3C6E030E3D6E6AEC8FF07E
:1010400041503524356E000E3620366E4150322424
:10105000326E000E3320336E000E3420346E000EDC
:101060003C6E020E3B6E350E3D6E000E3E6E020E65
:101070003F6E38EC8FF0000E3C6E0C0E3B6E320E65
:101080003D6E000E3E6E030E3F6E38EC8FF000F0AA
:101090001200536E14D05004D8A402D0532A21D089
:1010A000050E0BD05004D8B4FBD753061AD0500409
:1010B000D8A402D0010E01D0020E536E12D05350AC
:1010C000516E526A5250000AD8A4F6D75150010A04
:1010D000D8B4E1D7030AD8B4E5D7070AD8B4E7D71C
:1010E000EBD7960E406EFF0E416E1FC042F0CCEC67
:1010F00088F0000E386E1C0E376E53C039F027ECA6
:101100008EF01F50A8EC90F05350416E426A436A33
:101110004BEC86F01200030E016E29EC8CF00009F6
:10112000D8B411D049EC90F029EC8CF00009D8B477
:1011300003D00E01CEA3F8D70E01CEA302D0010E2C
:101140001200000E120069EC91F074EC90F00BD0DC
:101150000E01CEA708D098EC8EF00009D8B403D0C9
:101160006BEC91F0ECD729EC8CF00009D8B4F0D7F7
:101170006BEC91F049EC90F069EC91F029EC8CF07B
:101180000009D8B403D00E01CEA3F8D76BEC91F0D0
:101190000E01CEB3D4D7D5D74250D8A404D0010E77
:1011A000DCEC8FF004D042508009A8EC90F0000EE7
:1011B0002F6E20D02F504024436E000E4120446EED
:1011C00043C0F6FF44C0F7FF000EF86E0800F5CFED
:1011D00030F02F504024436E000E4120446E43C037
:1011E000F6FF44C0F7FF000EF86E0800F5509EECC5
:1011F0008CF02F2A2F504024436E000E4120446E65
:1012000043C0F6FF44C0F7FF000EF86E0800F5502B
:101210000009D8B41200CED7496E298C49501FEC72
:101220008FF034D0CDEC8DF0226E1FD027504910B6
:10123000276E13EC91F049501FEC8FF027D04950E6
:10124000FF0A2714276E13EC91F049501FEC8FF022
:101250001DD0299CAC0E406EFC0E416E000E426EFD
:10126000CCEC88F0000E226E11D02250476E486AF6
:101270004850000AD8A40AD04750010AD8B4D6D79B
:10128000030AD8B4DCD7820AD8B4E3D729AC120059
:10129000C9D7000E386E250E376EB4EC90F0196E7B
:1012A000000E3A6E1D0E396E030E3B6E000E3C6E44
:1012B000000E3D6E10D03D503B24D96E000E3C20F8
:1012C000DA6E3D503924376E000E3A20386EB4EC99
:1012D00090F0DF6E3D2A070E3D64EDD7000E3D6EA7
:1012E00010D00B0E3D24D96EDA6A000EDA220F0EF2
:1012F0003D24376E386A000E3822B4EC90F0DF6E71
:101300003D2A070E3D64EDD71200000E876E000ED9
:10131000866EC00E836E000E846E400E856E000ECB
:101320008C6E1F0E886EF00E896E800E8A6E000E17
:101330008B6E000E0F01216FC00E196F000E266F0D
:10134000000E2E6F010E116F000E256F000E2D6F17
:10135000000E186F000E106F000E206F000E2C6F25
:10136000000E0F6F000E176F000E1F6F000E246F20
:101370000E01B551E00B1709B56F090EFD6F120094
:10138000000E876E030E866E030E5D6E5D50800A42
:101390007F0FD8A00BD03AEC91F0140E416E7A0E6C
:1013A000E82EFED7412EFCD75D06F0D7320EE82E90
:1013B000FED7020E866E3AEC91F02C0EDCEC8FF02C
:1013C0000C0EDCEC8FF0060EDCEC8FF0010EDCEC8A
:1013D0008FF0D7EC90F0040E426ECF0E416E020EED
:1013E000E82EFED7412EFCD7422EFAD700F012008D
:1013F000476E690E406EFF0E416E000E426ECCECE1
:1014000088F0452A455030099EEC8CF0810E406EE4
:10141000FF0E416E400E426ECCEC88F0B60E406E70
:10142000FE0E416E140E426ECCEC88F0475046140E
:101430000009D8B409D0A00E406EFF0E416E4A0ECE
:10144000426ECCEC88F01200AA0E406EFF0E416E88
:101450004A0E426ECCEC88F01200000E3D6E000E7B
:101460003E6E000E3F6E3A503B103C10D8B423D075
:10147000010E406E05D0D8903A363B363C36402AB5
:101480003CAEF9D7D8903D363E363F363A50375CC1
:101490003B5038583C503958D8A007D03A50375EA6
:1014A0003B50385A3C50395A3D80D8903C323B3200
:1014B0003A32402EE7D73DC037F03EC038F03FC04B
:1014C00039F01200040E4E6ECF0E4D6E020EE82E55
:1014D000FED74D2EFCD74E2EFAD7CDEC8DF0226ED6
:1014E000040E2218D8B4F9D7148A000E406EFE0EEE
:1014F000416E000E426ECCEC88F0CDEC8DF0226E89
:1015000010D0CDEC8DF0226E2250D8B405D02250F0
:1015100066EC90F040EC85F090EC90F00009D8B4C7
:10152000149A14AA1200EDD7516E33EC91F0000911
:10153000D8B409D0F50E406EFF0E416E51C042F096
:10154000CCEC88F008D0F90E406EFF0E416E51C011
:1015500042F0CCEC88F0000E386E190E376E20C0C9
:1015600039F027EC8EF0960E406EFF0E416E50C0A3
:1015700042F0CCEC88F05050A8EC90F00F013451C0
:10158000416E426A436A4BEC86F01200466E690E69
:10159000406EFF0E416E000E426ECCEC88F0462A83
:1015A000465030099EEC8CF0010E476E750E406E71
:1015B000FF0E416E400E426ECCEC88F0140EA8EC8B
:1015C00090F010D045A00AD0475030099EEC8CF026
:1015D0002C0E9EEC8CF0200E9EEC8CF0472AD890BE
:1015E0004530456E080E4764EDD71200436E69EC36
:1015F00091F0000E256E1FD08BEC88F0426E4246B3
:101600004246424613504218F70B4218136E13A677
:1016100010D06BEC91F025508DEC8DF01386000E00
:10162000386E2F0E376E010E396E27EC8EF0435058
:101630001200252A43064350D8A4DED76BEC91F064
:1016400025508DEC8DF0F3D73C6E000E846E000EAD
:10165000866E8594010E1C6E3CC03AF01CC03BF0B7
:101660003A2A02D0D8903B363A2EFCD73B501C6E1B
:10167000CAEC83F0838A1C500F0B846E1C50F00B55
:10168000866E040E3B6ECF0E3A6E020EE82EFED72B
:101690003A2EFCD73B2EFAD7000E846E000E866ED3
:1016A0001200516E060E406EFF0E416E140E426E19
:1016B000CCEC88F0060E406EFF0E416E540E426E6A
:1016C000CCEC88F0690E406EFF0E416E140E426E37
:1016D000CCEC88F0505030099EEC8CF0502A1B0E58
:1016E000406EFF0E416E540E426ECCEC88F05150AD
:1016F000416E426A436A4BEC86F01200000E386E6F
:10170000000E376E000E396E27EC8EF0000E386E2C
:10171000170E376E000E396E27EC8EF0000E386E05
:101720002F0E376E000E396E27EC8EF03F0E406E96
:10173000FF0E416E000E426ECCEC88F0100E466E2D
:10174000390E456E0E0EE82EFED7452EFCD7462EDE
:10175000FAD7120014802D0E406EFF0E416E000E5F
:10176000426ECCEC88F0340E406EFD0E416E400EA1
:10177000426ECCEC88F00ED0CDEC8DF0226E225073
:10178000D8B403D022509CEC85F090EC90F0000986
:10179000D8B4149014B0F0D75C0E406EFC0E416EBD
:1017A000000E426ECCEC88F012003D6E260E3D24F9
:1017B000376E386A000E3822B4EC90F03E6E63EC5F
:1017C00091F00E01CA9BE10E406EBA0E3F6E3EC014
:1017D00037F0386AF00E3A6EDD0E396EF2EC8FF0AB
:1017E0003F5037243F6E40503820406E3FC037F0A6
:1017F00040C038F04CEC91F065EC91F012003A509A
:101800003B103C10D8B41ED0010E3D6E05D0D890D0
:101810003A363B363C363D2A3CAEF9D73A50375C37
:101820003B5038583C503958D8A006D03A50375E13
:101830003B50385A3C50395AD8903C323B323A32BD
:101840003D2EECD737C037F038C038F039C039F00A
:10185000120015A202D0010E01D0000E376E8EA824
:1018600002D0010E01D0000E371AD8A412D015A252
:1018700008D0140E376E7A0EE82EFED7372EFCD71E
:1018800008D04E0E376EEB0EE82EFED7372EFCD763
:1018900000F08EA803D01592000E12001582010EE2
:1018A00012006D0E406EFD0E416E000E426ECCECCD
:1018B00088F014861BD0CDEC8DF0226E2250D8B467
:1018C00010D0225066EC90F07FEC87F0100E4C6E3A
:1018D000390E4B6E0E0EE82EFED74B2EFCD74C2E3B
:1018E000FAD790EC90F00009D8B4149614A6120020
:1018F000E2D7839E838C3B0E376E700EE82EFED7A8
:10190000372EFCD78DCF37F0D89037320F0E3716E1
:101910003738F00B386E838E839C3B0E376E700E1B
:10192000E82EFED7372EFCD7D8908D300F0B38100D
:10193000386E838E838C3850FF0A12003F6E878486
:101940003F50DCEC8FF00CD0400EA8EC90F019D09A
:10195000140EA8EC90F015D0540EA8EC90F011D015
:1019600031503D6E3E6A3E50000AD8A40AD03D5028
:10197000130AD8B4E9D7340AD8B4EED7740AD8B465
:10198000E7D787941200040E406ECF0E3F6E020E12
:10199000E82EFED73F2EFCD7402EFAD7000E386E29
:1019A000180E376EB4EC90F0276E27C028F0CCEC00
:1019B00090F0299229902BEC8DF0B0EC8FF001EC97
:1019C00091F0000E396E330EE5EC82F01200DB0E62
:1019D000F66E220EF76E010EF86E0900F5CF5EF07E
:1019E000DA0EF66E220EF76E010EF86E0900F5CFD4
:1019F00001F000EE60F0460EEE6AE806FDE100EE52
:101A00000BF02C0EEE6AE806FDE15F6A0001A2EF22
:101A100080F0446E44C023F0235005EC8FF0000E9C
:101A2000386E1C0E376EB4EC90F0456E45C037F042
:101A300044500AEC8EF0266E2650F6EC8AF0266EA4
:101A40002650D8B4120026504502F3CF26F0265077
:101A5000EDEC8DF01200298605D0000E396E300EA7
:101A6000E5EC82F029B6F9D700F0000E396E330E9E
:101A7000E5EC82F03E6E3E06600E3E24D96EDA6AD8
:101A8000000EDA22060EDE18D8A41200000E396EFF
:101A9000330EE5EC82F0120087CF37F086CF38F0B6
:101AA000879487828B500F098B6E59EC91F0903898
:101AB000F00B316E55EC91F059EC91F090500F0B0A
:101AC0003110316E87908B50F00B8B6E879238C03F
:101AD00086FF37C087FF315012003D6E010E3E6E0B
:101AE0003DC03BF03EC03CF03B2A02D0D8903C3693
:101AF0003B2EFCD73C503E6E000E386E170E376EF4
:101B0000B4EC90F03E103E6E000E386E170E376E3D
:101B10003EC039F027EC8EF01200416E000E3A6E96
:101B20001A0E396E350E3B6E000E3C6E020E3D6E87
:101B30006AEC8FF041503524356E000E3620366E3B
:101B4000000E3C6E1A0E3B6E350E3D6E000E3E6E64
:101B5000020E3F6E38EC8FF01200000E406EFE0E4B
:101B6000416E000E426ECCEC88F0CDEC8DF0226E12
:101B7000148C10D0CDEC8DF0226E2250D8B405D04C
:101B8000225066EC90F086EC84F090EC90F0000926
:101B9000D8B4149C14AC1200EDD779EC8CF0000989
:101BA000D8A402D0000E120079EC8CF03C6E3CC040
:101BB0003BF003D079EC8CF03B6E3B50D8A4FAD7C5
:101BC000080E3A6E9D0E396E060EE82EFED7392E9F
:101BD000FCD73A2EFAD73C501200426E000E386EF7
:101BE000000E376EB4EC90F0236E23504224236E27
:101BF000000E386E000E376E23C039F027EC8EF0E1
:101C00002350D8B403D0138013941388425007ECA8
:101C100088F01200386E000E3A6E3750D8B415D0E6
:101C2000010E396E03D0D8903736392A37AEFBD73C
:101C3000D8903A363750385CD8A003D03750385E49
:101C40003A80D8903732392EF3D73A501200000E2E
:101C5000F2BE010E3A6E3850030B7F6E37C07EFF26
:101C600039C080FF3F0E81168184F29E550E826E30
:101C7000AA0E826E818281B2FED781943AB002D0E0
:101C8000F29E01D0F28E1200000E386E0BC01DF0D5
:101C900013D00B0E3824D96EDA6A000EDA221D50EA
:101CA000DE5CD8B008D00B0E3824D96EDA6A000E8C
:101CB000DA22DF501D6E382A070E3864EAD7120088
:101CC000000E386E0BC01EF013D00B0E3824D96EE8
:101CD000DA6A000EDA22DE501E5CD8B008D00B0E95
:101CE0003824D96EDA6A000EDA22DF501E6E382AE6
:101CF000070E3864EAD71200456E45C01AF0000E90
:101D0000386E250E376EB4EC90F0446E22504414B9
:101D10000009D8B404D0455024EC8BF003D04550D2
:101D2000C4EC87F013B212001A50C6EC8FF0120008
:101D300001066BEC91F01F0E386E710E376E1E0EA1
:101D4000E82EFED7372EFCD7382EFAD700D074EC09
:101D500090F00150800A7F0FD8A004D069EC91F078
:101D6000000E1200010E1200000EC46E000EC56EB1
:101D7000040EC66EE10EC26EBA0EC16EC150C2CF65
:101D800037F0386A37C038F0376A37100001A86F6B
:101D90003850A96F0E01CE99010EC36E1200000ECD
:101DA000CA6E000ECB6E050ECC6E9E0EC86E580E1F
:101DB000C76EC750C8CF37F0386A37C038F0376AB7
:101DC00037100001AA6F3850AB6F0E01CE95010E8F
:101DD000C96E1200000ED06E000ED16E050ED26ECE
:101DE000F60ECE6E3C0ECD6ECD50CECF37F0386AAB
:101DF00037C038F0376A37100001AC6F3850AD6F1C
:101E00000E01CE91010ECF6E12003B6E000E386EA9
:101E1000000E376EB4EC90F0236E3B50235C236EC3
:101E2000000E386E000E376E23C039F027EC8EF0AE
:101E30002350D8A412001390138413981200456EF7
:101E400045502714466E4650D8B409D0AA0E406EAD
:101E5000FF0E416E2DC042F0CCEC88F01200A00EB7
:101E6000406EFF0E416E2DC042F0CCEC88F01200A7
:101E7000000E406E11D040503B24376E000E3C20C7
:101E8000386E40503D24D96E000E3E20DA6EDF5091
:101E9000396E27EC8EF0402A3F50405CD8B01200DB
:101EA000EAD782EC90F085EC89F0C0EC90F0F7EC8A
:101EB00090F0CFEC8EF074EC90F041EC91F049ECA6
:101EC00090F0B4EC8EF0EAEC8EF099EC8FF0E2EC4E
:101ED00090F01200000E3E6E10D03E503B24D96EA2
:101EE000000E3C20DA6E3E503924376E000E3A2048
:101EF000386EB4EC90F0DF6E3E2A3D503E5CD8B0B8
:101F00001200EBD7000E3C6E020E3B6E0AD03BC0B7
:101F100037F03CC038F0000E396E27EC8EF03B4AAB
:101F20003C2A3C5004E10C0E3B5CD8A0F0D7FF00EB
:101F30001200820ED66EA20ED46E270ED36ED35030
:101F4000D4CF37F0386A37C038F0376A371000011D
:101F5000A66F3850A76F0E01CA9B900ED56E120067
:101F6000000E29EC90F0030E2C6E000E0001606F45
:101F7000000E616F27C062F0000E636F2CC039F055
:101F8000340EE5EC82F02C6E299812003C6E040EA3
:101F90003C24376E386A000E3822B4EC90F03B6E69
:101FA0003B2A040E3C24376E386A000E38223BC0B0
:101FB00039F027EC8EF012003A6E86CF39F04CECF7
:101FC0008DF0316E31BEFBD73A380F0B0F0B866E9A
:101FD0003AEC91F03A500F0B866E3AEC91F039C022
:101FE00086FF120037503902F3CF3BF0F4CF3CF0BC
:101FF00037503A02F3503C2638503902F3503C2611
:102000003BC037F03CC038F012005C0E406EFF0E53
:10201000416E000E426ECCEC88F01CEC91F0506EDC
:102020005050416E426A436A4BEC86F0139812009E
:10203000506E010EDCEC8FF0440EA8EC90F0520EC6
:102040009EEC8CF05050416E426A436A4BEC86F035
:102050001200376E000E386E600E3824D96EDA6AC0
:10206000000EDA2237C0DFFF382A200E3864F4D79A
:102070001200D50E406EFE0E416E000E426ECCEC8C
:1020800088F060C02EF02E5062EC82F02992139CF2
:102090001200050EBF6E200EBE6E000EC06E850EC5
:1020A000BC6E000EBB6E0E01CE93F10EBD6E120023
:1020B000010EDCEC8FF045C040F046C041F0400E10
:1020C000426ECCEC88F03150020F1200376E000ED9
:1020D0001A6E04D01A2AD8903730376E3750D8A4E9
:1020E000F9D71A061A501200040EB96E000EB86E17
:1020F000000EBA6E4B0EB66E000EB56E0E01CE9788
:10210000B7681200000E0E01E16F000EE26F000EC4
:10211000E36F000EE46F000EE56F000EE66F120035
:10212000010E0F01346F320EE82EFED73DCF37F08F
:1021300020C034FF37501200140EA8EC90F0750E3A
:10214000406EFE0E416E140E426ECCEC88F0120012
:102150003B6E30C03CF087943B508009DCEC8FF044
:1021600087843CC030F012003850030B7F6E37C0BC
:102170007EFF3F0E8116818000F000F0805012003B
:10218000600E0E01D86F000EDA6F000EDC6F040EC9
:10219000DE6F000EDD6F1200080E9F6ED00E9D6E7A
:1021A000EC0E9E6E380E9B6E010E9C6E1200300E71
:1021B00004D040509EEC8CF04028406E7F0E40646E
:1021C000F8D71200080E9F6ED00E9D6EEC0E9E6E1C
:1021D000380E9B6E010E9C6E1200050EF6EC8AF016
:1021E0000009D8A402D000F0120000F01200900EF6
:1021F0000F01396F000E3A6F000E3B6F050E3C6FFA
:102200001200000E29EC90F0010E396E320EE5EC52
:1022100082F012000E01CDABFDD79DA202D09D9899
:102220009D8899501200000E386E180E376E27C028
:1022300039F027EC8EF01200000E386E000E376E6B
:10224000B4EC90F0236E23501200386E38502CEC12
:1022500091F060EC91F01200376E0E01CDA9FDD720
:1022600037C09AFF12000F013DA102D0010E1200EB
:10227000000E1200878000D000F0879000D000F0A0
:102280001200800E0F01336F1C0E346F1200000E0F
:10229000276EB0EC8FF012003850D46E37C0D3FFE9
:1022A0001200376E37C034FF1200879000D000F064
:1022B0001200878000D000F012009FBC1200FDD7F2
:1022C0009EB21200FDD7D59E1200D58E12008580D9
:0C22D0001200858212008592120003FFAC
:020000040020DA
:10000000FF0FFF0FFF0FFF0FFF0FFF0FFF0FFF0F80
:020000040030CA
:0C0000008CFFFFF79FFFFFFFFFFFFFFFDB
:00000001FF
