:0400000055EF00F0C8
:100008004B82FACF01F0FBCF02F0E9CF03F0EACF41
:1000180004F0E1CF05F0E2CF06F0D9CF07F0DACF50
:1000280008F0F3CF09F0F4CF0AF0F6CF0BF0F7CFD2
:100038000CF0F8CF0DF0F5CF0EF04BC00FF04CC020
:1000480010F04DC011F04EC012F00E01C2B9CAA98D
:1000580002D036EC89F012C04EF011C04DF010C03D
:100068004CF00FC04BF00EC0F5FF0DC0F8FF0CC0F0
:10007800F7FF0BC0F6FF0AC0F4FF09C0F3FF08C082
:10008800DAFF07C0D9FF06C0E2FF05C0E1FF04C0E0
:10009800EAFF03C0E9FF02C0FBFF01C0FAFF4B9271
:0600A80011003BEF87F0A0
:10FDC800005075736820627574746F6E20312074EA
:10FDD8006F20636C65617220637265646974732057
:10FDE8002020616E64206578697400486F707065C2
:10FDF8007220436F696E202020202020202020566A
:10FE0800616C756500205075736820627574746F35
:10FE18006E20746F202020202076656E64004E6F5F
:10FE2800204368616E676520476976656E0020200B
:10FE380053657475702053656E736F72002020537C
:10FE4800657276696365204D6F6465002020496E90
:10FE580073657274204E6F74650020204175646963
:10FE680074204D6F646500457869740018001700A8
:10FE78000F000700040002000000FEFDF2DBDAECD0
:10FE8800ACA8A7A6A4A30101030C0B0A090807063E
:10FE980005040302013336353433323130D494C08B
:10FEA80080181B080705040602A8010C2C282453F7
:10FEB800657276696365204D6F64653A2070726576
:10FEC80073732031203D2041756469742032203DD0
:10FED8002053656E736F72333D4E6F746520656E87
:10FEE80020343D4372656469742020353D56656E43
:10FEF8006420363D4E6F746520373D45786974003F
:10FF0800456E61626C65202F2044697361626C657F
:10FF18002020202031203D205231302C2032203D1D
:10FF2800205232302020202033203D205235302CE2
:10FF38002034203D205231303020202035203D20F3
:10FF480052323030002020202020496E69746961C7
:10FF58006C697A65202020202020202020204E6FE8
:10FF6800746520526561646572002020204E6F74AC
:10FF780065206572726F722020202020636F64658F
:10FF8800203D20307800496E7365727420436F6994
:10FF98006E73206F72204E6F746573002020496E57
:10FFA800697469616C697A6520486F707065720060
:10FFB8002020437265646974203D2052006469738F
:10FFC80061626C656400656E61626C656420003412
:10FFD800205232303020003320523130302000326D
:10FFE800205235302020003120523230202000307D
:08FFF8002052313020200000EE
:020000040001F9
:10000000A3EC87F0000E156EA10EF66EFE0EF76ED5
:10001000000EF86E0800F55092EC81F0186E60C08A
:1000200039F0000160AF50D060517F0B396E19D0AC
:100030000A0E2E6E2E501200140E2E6E2E5012002E
:10004000320E2E6E2E501200640E2E6E2E501200A6
:10005000C80E2E6E2E501200100E2E6E37822E50AD
:1000600012003950000AD8B4E3D7010AD8B4E4D753
:10007000030AD8B4E5D7010AD8B4E6D7070AD8B43A
:10008000E7D7EAD7000E2E6E2E501200010E1AD0BE
:10009000020E18D0000E2E6E37922E501200040E53
:1000A00011D0050E0FD0060E0DD0070E0BD0080E86
:1000B00009D0090E07D00A0E05D00B0E03D00C0E86
:1000C00001D0000E2E6E2AD000016051000AD8B473
:1000D000D9D7010AD8B4DAD7030AD8B4D9D7010AD4
:1000E000D8B4D8D7070AD8B4DAD7010AD8B4D9D740
:1000F000030AD8B4D8D7010AD8B4D7D70F0AD8B4CE
:10010000D6D7010AD8B4D5D7030AD8B4D4D7010AB0
:10011000D8B4D3D7070AD8B4D2D7D3D737822E5082
:1001200012001C6E1CC01AF01A3A0F0E1A160A0E94
:100130001A601ED01C380F0B300975EC85F033D0D7
:10014000410E75EC85F02FD0420E75EC85F02BD06A
:10015000430E75EC85F027D0440E75EC85F023D066
:10016000450E75EC85F01FD0460E75EC85F01BD062
:100170001C380F0B1A6E1B6A1B50000AD8A413D030
:100180001A500A0AD8B4DCD7010AD8B4DDD7070A56
:10019000D8B4DED7010AD8B4DFD7030AD8B4E0D781
:1001A000010AD8B4E1D71CC01AF00F0E1A160A0EB5
:1001B0001A601ED01C500F0B300975EC85F0120030
:1001C000410E75EC85F01200420E75EC85F01200C0
:1001D000430E75EC85F01200440E75EC85F01200AC
:1001E000450E75EC85F01200460E75EC85F0120098
:1001F0001C500F0B1A6E1B6A1B50000AD8A4120069
:100200001A500A0AD8B4DCD7010AD8B4DDD7070AD5
:10021000D8B4DED7010AD8B4DFD7030AD8B4E0D700
:10022000010AD8A41200E0D7196E000E186E99CFFB
:1002300018F0000E186E8F0EF66EFE0EF76E000EA2
:10024000F86E0800F5CF17F019501524162417245E
:10025000386E1950F8EC88F01550F8EC88F08F0ED5
:10026000F66EFE0EF76E000EF86E0800F550F8EC14
:1002700088F01650F8EC88F017D01550010D600E7C
:10028000F324D96E000EF420DA6EDF503824386E75
:100290001550010D600EF324D96E000EF420DA6EB5
:1002A000DF50F8EC88F015061550D8A4E6D7386C66
:1002B0003850F8EC88F02F962F92FF0E34EC88F02F
:1002C0009D9E9D8E99CF38F0A3EC87F016D078ECE8
:1002D00088F0196E2FA00BD01850010D600EF3247A
:1002E000D96E000EF420DA6E19C0DFFF182A0E0155
:1002F000CEA502D02F8601D02F962FA6E8D78F0E3D
:10030000F66EFE0EF76E000EF86E0800F550000156
:10031000606305D06351D8A402D0185012002F8614
:10032000000E1200166E000E176E9E8033EC89F0E0
:100330001650F8EC88F09E9016C038F01550D8B4DE
:100340001ED01528176E18D01550010D600EF3241D
:10035000D96E000EF420DA6EDF50F8EC88F01550FC
:10036000010D600EF324D96E000EF420DA6EDF501A
:100370003824386E170615061750D8A4E5D738501C
:10038000F8EC88F0FF0E34EC88F0BDEC87F0000E3E
:100390002A6E000E296E3790000E176E1ED0294A65
:1003A0002A2A379015D01750010D600EF324D96E0C
:1003B000000EF420DA6EEFEC88F0DF6E2DEC89F0A1
:1003C0009DA002D0378001D03790BDEC87F0172A6E
:1003D0000E01CDAB02D037A0E6D70E01CEB102D0D0
:1003E00037A0DDD71706CEA102D0378601D03796C9
:1003F00037A011D01750010D600EF324D96E000EF6
:10040000F420DA6EDF50D8B406D09E8033EC89F049
:10041000000EF8EC88F033EC89F017501200A80EAB
:10042000F66EFE0EF76E000EF86E0800F5501C62B8
:100430000BD0B20EF66EFE0EF76E000EF86E0800D0
:10044000F550D7EC87F003D01C50CFEC88F0000EAD
:100450003E6E3AD03E50010D1AC01DF01BC01EF07A
:10046000F3501D26F4501E221DC0F6FF1EC0F7FFDC
:10047000000EF86E0E0EF76403D00800F55005D09C
:10048000F6CFE9FFF7CFEAFFEF50406E3E50010D87
:100490001AC01DF01BC01EF0F3501D26F4501E2282
:1004A0001DC0F6FF1EC0F7FF000EF86E0E0EF764BB
:1004B00003D00800F55005D0F6CFE9FFF7CFEAFFEB
:1004C000EF5075EC85F03E2A3E50010D1AC01DF02C
:1004D0001BC01EF0F3501D26F4501E221DC0F6FF57
:1004E0001EC0F7FF000EF86E0E0EF76403D0080072
:1004F000F55005D0F6CFE9FFF7CFEAFFEF5000093E
:10050000D8B41200A7D7080E1A6EFF0E1B6EA80EE5
:10051000F66EFE0EF76E000EF86E0800F5CF1CF0BA
:100520000FEC82F0368A368C50D087EC88F02C6E37
:1005300039D0F70E1F6EFF0E206ECFEC84F0D3EC97
:1005400085F0EF0E1F6EFF0E206ECFEC84F0D3EC23
:1005500085F0E70E1F6EFF0E206ECFEC84F0D3EC1B
:1005600085F0DF0E1F6EFF0E206ECFEC84F0D3EC13
:1005700085F0D70E1F6EFF0E206ECFEC84F0D3EC0B
:1005800085F0B70E1A6EFE0E1B6EA80EF66EFE0EEE
:10059000F76E000EF86E0800F5CF1CF00FEC82F03D
:1005A000369A13D02C50010AD8B4C3D7030AD8B452
:1005B000C8D7060AD8B4CDD70C0AD8B4D2D7180AEF
:1005C000D8B4D7D7900AD8B4DCD736AA1200ADD7A2
:1005D000000E00018B6F1DC088F01EC089F01FC087
:1005E0008AF02FD08B51010D800EF324D96E000EAE
:1005F000F420DA6E1DC013F01EC014F01FC015F0F9
:100600000A0E166E000E176E000E186EFDEC85F0C9
:100610001350DF6E1DC013F01EC014F01FC015F084
:100620000A0E166E000E176E000E186E40EC85F066
:1006300013C01DF014C01EF015C01FF000018B295F
:100640008B6F1D501E101F10D8B40ED0CBD78B0748
:100650008B51010D800EF324D96E000EF420DA6E5A
:10066000DF50300975EC85F000018B51800A7F0F57
:10067000D8B0EDD7885189118A11D8A41200300E54
:1006800075EC85F01200000E876E000E866EC00EAF
:10069000836E000E846E400E856E000E8C6E1F0EF3
:1006A000886ED00E896E800E8A6E000E8B6E000EE4
:1006B0000F01216FC00E196F000E266F000E2E6FF6
:1006C000010E116F000E256F000E2D6F000E186FBA
:1006D000000E106F000E206F000E2C6F000E0F6FBB
:1006E000000E176F000E1F6F000E246F0E01C289DF
:1006F000000EF2BE010E136EF29E550EA06FAA0EF2
:10070000A06FA091B581B583B585B597B589090E60
:10071000FD6F0B0EF46F8D918D938D858D878D9967
:10072000550EA06FAA0EA06FA08113A002D0F28E6A
:100730001200F29E12001FEC88F0F1EC83F00BEC3B
:1007400085F000F00DEC89F00009D8B42B8E2BBE9B
:1007500045EC84F02BA410D08E0E1A6EFF0E1B6E8B
:10076000A80EF66EFE0EF76E000EF86E0800F5CFBE
:100770001CF00FEC82F02B942BAA07D0000E27EC74
:1007800086F0000EA8EC85F02B9A2BB86FEC87F062
:100790000E01CEA5D6D700EC80F02E6E2E50D8B428
:1007A0001BD037B20DD014D07AEC86F003D037A826
:1007B0007AEC86F0000E2E6EC4D7F0EC87F0C1D72D
:1007C0002E50060AD8B4F0D70F0AD8B4F0D7F5D710
:1007D0002E5027EC86F0B5D737A2B3D7F0EC87F0D0
:1007E000B0D7000E876E030E866E030E496E495019
:1007F000800A7F0FD8A00BD006EC89F0140E1B6E78
:100800007A0EE82EFED71B2EFCD74906F0D7320E03
:10081000E82EFED7020E866E06EC89F0B40EF66E58
:10082000FE0EF76E000EF86E0800F550D7EC87F05C
:10083000B30EF66EFE0EF76E000EF86E0800F55061
:10084000D7EC87F0AF0EF66EFE0EF76E000EF86E68
:100850000800F550D7EC87F0B20EF66EFE0EF76E7C
:10086000000EF86E0800F550D7EC87F0C4EC88F065
:10087000040E1C6ECF0E1B6E020EE82EFED71B2E32
:10088000FCD71C2EFAD700F01200B70E1A6EFE0E1F
:100890001B6EA80EF66EFE0EF76E000EF86E0800C8
:1008A000F5CF1CF00FEC82F034D087EC88F02C6E82
:1008B00017D03EEC89F02DD03CEC89F02AD03AECF0
:1008C00089F027D083EC82F024D03DEC89F021D050
:1008D00039EC89F01ED03BEC89F01BD02B9E19D04F
:1008E0002C50010AD8B4E5D7030AD8B4E5D7060AD4
:1008F000D8B4E5D70C0AD8B4E5D7180AD8B4E5D7E8
:10090000300AD8B4E5D7600AD8B4E5D7C00AD8B45D
:10091000E5D72BAE1200C9D737860DD0000E156E65
:10092000A40EF66EFE0EF76E000EF86E0800F5507F
:1009300092EC81F0196E37B6F1D700F0000E156E0B
:10094000A10EF66EFE0EF76E000EF86E0800F55062
:1009500092EC81F01A6E1A061A50010D600EF32403
:10096000D96E000EF420DA6EDF50186E970EF66E18
:10097000FE0EF76E000EF86E0800F5501818D8A499
:100980001200000E156EA10EF66EFE0EF76E000E32
:10099000F86E0800F55092EC81F01A6E12001FC03C
:1009A000F6FF20C0F7FF000EF86E0800F5CF21F02B
:1009B000070E2116010E226E212A02D0D89022366F
:1009C000212EFCD722504A6E1F4A202AB20EF66E04
:1009D000FE0EF76E000EF86E0800F550D7EC87F0AB
:1009E0001FC0F6FF20C0F7FF000EF86E0800F5509C
:1009F000216E226A21C01AF022C01BF0A70EF66EEB
:100A0000FE0EF76E000EF86E0800F5CF1CF00FEC2E
:100A100082F04A501200A40E1A6EFF0E1B6EA80E32
:100A2000F66EFE0EF76E000EF86E0800F5CF1CF0A5
:100A30000FEC82F0A1EC86F04D0E1A6EFF0E1B6ECD
:100A4000A80EF66EFE0EF76E000EF86E0800F5CFDB
:100A50001CF00FEC82F07AEC86F02B9E2B8A47EC90
:100A600088F00009D8A404D02B902B842B9803D0B5
:100A70002B802B942B883792000E1AEC89F01200F1
:100A8000000E196E000E1A6E000E1B6E1650171017
:100A90001810D8B423D0010E1C6E05D0D89016368D
:100AA000173618361C2A18AEF9D7D89019361A36C8
:100AB0001B361650135C1750145818501558D8A0F0
:100AC00007D01650135E1750145A1850155A198033
:100AD000D8901832173216321C2EE7D719C013F0EF
:100AE0001AC014F01BC015F01200196E878419503B
:100AF000D7EC87F021D0A70EF66EFE0EF76E000E33
:100B0000F86E0800F550CFEC88F020D0A60EF66EF7
:100B1000FE0EF76E000EF86E0800F550CFEC88F070
:100B200015D0A50EF66EFE0EF76E000EF86E0800DC
:100B3000F550CFEC88F00AD04250130AD8B4DBD776
:100B4000340AD8B4EED7740AD8B4E0D78794120028
:100B5000176E800EF66EFE0EF76E000EF86E090030
:100B6000F5CF13F00A00F5CF14F095EC88F02D6E58
:100B7000175000082D242D6E800EF66EFE0EF76EB7
:100B8000000EF86E0900F5CF13F00A00F5CF14F04F
:100B90002DC015F01EEC87F02D50D8A412002B901C
:100BA0002B842B981200206E368C205051EC86F04E
:100BB00021D087EC88F02C6E13D035502010356E84
:100BC000205051EC86F016D02050FF0A3514356EB7
:100BD000205051EC86F00ED0369C000E2C6E0AD0C0
:100BE0002C50010AD8B4E9D7030AD8B4EDD7060AC5
:100BF000D8B4F2D736AC1200DCD716501710181044
:100C0000D8B41ED0010E196E05D0D89016361736FE
:100C10001836192A18AEF9D71650135C1750145805
:100C200018501558D8A006D01650135E1750145AF5
:100C30001850155AD890183217321632192EECD790
:100C400013C013F014C014F015C015F01200176E85
:100C5000800EF66EFE0EF76E000EF86E0900F5CFF0
:100C600013F00A00F5CF14F095EC88F02D6E2D509E
:100C700017242D6E800EF66EFE0EF76E000EF86EC7
:100C80000900F5CF13F00A00F5CF14F02DC015F0D0
:100C90001EEC87F02D50D8B412002B802B942B889B
:100CA00012001F6E1F50D8B414D03550D8B411D0D4
:100CB000CE0E1A6EFF0E1B6EA70EF66EFE0EF76EB0
:100CC000000EF86E0800F550060F1C6E0FEC82F057
:100CD0001200C50E1A6EFF0E1B6EA70EF66EFE0EEC
:100CE000F76E000EF86E0800F550060F1C6E0FEC44
:100CF00082F01200740EF66EFE0EF76E000EF86EA5
:100D00000900F5CF13F00A00F5CF14F095EC88F048
:100D1000356EB9EC88F0379237908CEC84F0E4ECC7
:100D200086F058EC88F0000E156EA10EF66EFE0EE1
:100D3000F76E000EF86E0800F55092EC81F01B6E15
:100D400012002AEC89F02F8668EC88F055EC87F0C9
:100D5000000E496E0BD0C30E1B6ECD0EE82EFED7D3
:100D60001B2EFCD700F008EC88F0492A2FA605D0EE
:100D70004950800A7D0FD8A0EED700F0B9EC88F07A
:100D800033EC89F0120087CF13F086CF14F08794EC
:100D900087828B500F098B6E22EC89F09038F00B14
:100DA000426E1EEC89F022EC89F090500F0B42103D
:100DB000426E87908B50F00B8B6E879214C086FF2B
:100DC00013C087FF42501200000E34EC88F0030E6F
:100DD0003A6E000E0001606F000E616F35C062F068
:100DE000000E636F3AC015F0A00EF66EFE0EF76EA1
:100DF000000EF86E0800F55092EC81F03A6E3798CC
:100E00001200839E838C0F0EE82EFED78DCF13F039
:100E1000D89013320F0E13161338F00B2C6E838EEE
:100E2000839C0F0EE82EFED7D8908D300F0B2C1020
:100E30002C6E838E838C2C50FF0A1200000EF2BEA3
:100E4000010E166E1450030B7F6E13C07EFF15C08B
:100E500080FF3F0E81168184F29E550E826EAA0E8F
:100E6000826E818281B2FED7819416B002D0F29E4A
:100E700001D0F28E12007E0EF66E120EF76E010E8B
:100E8000F86E0900F5CF4AF000EE60F0200EEE6A31
:100E9000E806FDE100EE23F0200EEE6AE806FDE133
:100EA0004B904B9200019BEF83F0000E34EC88F0E6
:100EB000040E156E860EF66EFE0EF76E000EF86EC0
:100EC0000800F5CF16F0900EF66EFE0EF76E000ECF
:100ED000F86E0800F55014EC81F01A6E1200B80E8E
:100EE0001A6EFF0E1B6EA80EF66EFE0EF76E000E4B
:100EF000F86E0800F5CF1CF00FEC82F047EC88F09C
:100F0000206E20501D6E1E6A1F6AE8EC82F02B983E
:100F10001200000EC46E000EC56E040EC66EE10E09
:100F2000C26EBA0EC16EC150C2CF13F0146A13C0A4
:100F300014F0136A1310436E1450446E0E01CE99D0
:100F4000010EC36E1200000ECA6E000ECB6E050EAF
:100F5000CC6E9E0EC86E580EC76EC750C8CF13F029
:100F6000146A13C014F0136A1310456E1450466EC1
:100F70000E01CE95010EC96E1200000ED06E000E4D
:100F8000D16E050ED26EF60ECE6E3C0ECD6ECD50ED
:100F9000CECF13F0146A13C014F0136A1310476E07
:100FA0001450486E0E01CE91010ECF6E1200166ED7
:100FB00086CF15F0C3EC86F002D0C3EC86F0426E0B
:100FC00042BEFBD716380F0B0F0B866E06EC89F06E
:100FD00016500F0B866E06EC89F015C086FF1200C6
:100FE000720E1A6EFF0E1B6EA80EF66EFE0EF76ED8
:100FF000000EF86E0800F5CF1CF00FEC82F060C018
:101000003DF03D5091EC80F037922B9C2B981200D4
:10101000000E156E820EF66EFE0EF76E000EF86E66
:101020000800F5CF16F0900EF66EFE0EF76E000E6D
:10103000F86E0800F55014EC81F01A6E120026ECE0
:1010400089F043EC83F0A1EC88F0E5EC88F0A3ECA8
:1010500087F014EC89F089EC87F0BDEC87F0DAECCE
:1010600088F0ADEC88F01200136E000E146E200EA6
:10107000146401D012001450010D600EF324D96ED7
:10108000000EF420DA6E13C0DFFF142AF0D7800EB2
:10109000F66EFE0EF76E000EF86E0900F5CF13F037
:1010A0000A00F5CF14F095EC88F02D6E2D5012004B
:1010B000000E34EC88F0010E156EA20EF66EFE0ED8
:1010C000F76E000EF86E0800F55092EC81F01200F9
:1010D000000E156E830EF66EFE0EF76E000EF86EA5
:1010E0000800F5CF16F0000E14EC81F01A6E120015
:1010F000000E136E2F9006D0EFEC88F0136E2DECDF
:1011000089F02F800E01CDBBF7D71350120001ECF0
:1011100087F0146E2CC015F003D001EC87F0156E2B
:101120001550D8A4FAD7145012001450030B7F6E38
:1011300013C07EFF3F0E8116818000F000F08050CA
:101140001200600E0E01D86F000EDA6F000EDC6F19
:10115000040EDE6F000EDD6F1200080E0E019F6F91
:10116000100E9D6F040E9E6F380E9B6F010E9C6FCC
:101170001200080E9F6ED00E9D6EEC0E9E6E380E05
:101180009B6E010E9C6E1200300E04D01A5075EC4E
:1011900085F01A281A6E7F0E1A64F8D71200176E9F
:1011A00040C018F087941750D7EC87F0878418C098
:1011B00040F01200080E9F6E900E9D6EAC0E9E6E5B
:1011C000380E9B6E010E9C6E1200940E0F01396F4B
:1011D000000E3A6F000E3B6F050E3C6F12000E01C1
:1011E000CDABFDD79DA202D09D989D88995012004D
:1011F000146E1450FFEC88F030EC89F01200136E7E
:101200000E01CDA9FDD713C09AFF1200878000D030
:1012100000F0879000D000F012000F013DA102D035
:10122000010E1200000E1200800E0F01336F1C0E13
:10123000346F1200136E13C034FF1200879000D079
:1012400000F01200878000D000F01200F28A0E0138
:10125000BA8912008590858212009FBC1200FDD7CA
:101260009EB21200FDD78580859212000E01CA99A8
:0F1270001200120012001200120012001200FFF2
:020000040020DA
:10000000FF0FFF0FFF0FFF0FFF0FFF0FFF0FFF0F80
:020000040030CA
:0C0000008CFFFFFF9FFFFFFFFFFFFFFFD3
:00000001FF
