:0400000055EF00F0C8
:100008004382FACF01F0FBCF02F0E9CF03F0EACF49
:1000180004F0E1CF05F0E2CF06F0D9CF07F0DACF50
:1000280008F0F3CF09F0F4CF0AF0F6CF0BF0F7CFD2
:100038000CF0F8CF0DF0F5CF0EF043C00FF044C030
:1000480010F045C011F046C012F00E01C2B9CAA99D
:1000580002D0C9EC0BF012C046F011C045F010C038
:1000680044F00FC043F00EC0F5FF0DC0F8FF0CC000
:10007800F7FF0BC0F6FF0AC0F4FF09C0F3FF08C082
:10008800DAFF07C0D9FF06C0E2FF05C0E1FF04C0E0
:10009800EAFF03C0E9FF02C0FBFF01C0FAFF439279
:0600A800110047EF0AF011
:100F00000017000F0007000400020000000C0B0A8D
:100F1000090807060504030201333635343332313C
:100F200030181B080705040602A8010C2824496E86
:100F30007365727420436F696E73206F72204E6FF9
:100F4000746573002020437265646974203D2052EB
:100F50000000166E000E176E9E80C0EC0BF016504F
:100F6000A6EC0BF09E90BAEC0BF016C032F01550C8
:100F7000D8B418D01550010D600EF324D96E000EB0
:100F8000F420DA6EDF50A6EC0BF01550010D600E68
:100F9000F324D96E000EF420DA6EDF503224326E64
:100FA0001506E8D73250A6EC0BF0BAEC0BF0FF0EAA
:100FB00017EC0BF0A0EC0AF0000E316E000E306E54
:100FC0003D90000E176E1ED0304A312A3D9015D04C
:100FD0001750010D600EF324D96E000EF420DA6E66
:100FE0009DEC0BF0DF6EBDEC0BF09DA002D03D80C0
:100FF00001D03D90A0EC0AF0172A0E01CDAB02D033
:101000003DA0E6D70E01CEB102D03DA0DDD7170638
:10101000CEA102D03D8601D03D963DA013D0175001
:10102000010D600EF324D96E000EF420DA6EDF504D
:10103000D8B408D09E80C0EC0BF0000EA6EC0BF0EC
:10104000BAEC0BF0C0EC0BF017501200000E2B6E38
:101050001DC028F01EC029F01FC02AF02ED02B5032
:10106000010D200EF324D96E000EF420DA6E1DC09F
:1010700013F01EC014F01FC015F00A0E166E000EFD
:10108000176E000E186EB7EC09F01350DF6E1DC01E
:1010900013F01EC014F01FC015F00A0E166E000EDD
:1010A000176E000E186E51EC09F013C01DF014C03D
:1010B0001EF015C01FF02B282B6E1D501E101F1088
:1010C000D8B40ED0CCD72B062B50010D200EF32414
:1010D000D96E000EF420DA6EDF503009EDEC0AF024
:1010E0002B50800A7F0FD8B0EED7285029102A1035
:1010F000D8A41200300EEDEC0AF01200000E876E3C
:10110000000E866E000E836E000E846E000E856EDD
:10111000000E8C6E1F0E886ED00E896E800E8A6E49
:10112000000E8B6E000E0F01216FC00E196F000EA6
:10113000266F000E2E6F010E116F000E256F000E30
:101140002D6F000E186F000E106F000E206F000E36
:101150002C6F000E0F6F000E176F000E1F6F000E2A
:10116000246F0E01C289000EF2BE010E136EF29EB4
:10117000550EA06FAA0EA06FA091B581B583B5855D
:10118000B597B589090EFD6F0B0EF46F8D918D9398
:101190008D858D878D99550EA06FAA0EA06FA081A9
:1011A00013A002D0F28E1200F29E12002A0EF66EEA
:1011B0000800F550BCEC0AF0000E376E24D0375012
:1011C000010D19C01BF01AC01CF0F3501B26F4507F
:1011D0001C221BC0F6FF1CC0F7FF0800F5CF38F03B
:1011E0003750010D19C01BF01AC01CF0F3501B261C
:1011F000F4501C221BC0F6FF1CC0F7FF0800F5507E
:10120000EDEC0AF0372A3750010D19C01BF01AC057
:101210001CF0F3501B26F4501C221BC0F6FF1CC010
:10122000F7FF0800F5500009D8B41200C8D7000E27
:10123000876E030E866E030E416E4150800A7F0F4B
:10124000D8A00BD0ADEC0BF00D0E1A6EFC0EE82EF4
:10125000FED71A2EFCD74106F0D7210EE82EFED776
:1012600000F0020E866EADEC0BF02C0EF66E080050
:10127000F550BCEC0AF02B0EF66E0800F550BCECF5
:101280000AF0270EF66E0800F550BCEC0AF02A0EA4
:10129000F66E0800F550BCEC0AF07DEC0BF000F0A7
:1012A0001200000E196E000E1A6E000E1B6E165004
:1012B00017101810D8B423D0010E1C6E05D0D8908A
:1012C0001636173618361C2A18AEF9D7D8901936A4
:1012D0001A361B361650135C1750145818501558F0
:1012E000D8A007D01650135E1750145A1850155A2C
:1012F0001980D8901832173216321C2EE7D719C031
:1013000013F01AC014F01BC015F01200000E156E79
:10131000200EF66E0800F550A9EC07F01A6E00F0EA
:10132000000E156E1D0EF66E0800F550A9EC07F0C4
:101330001A6E1A061A50010D600EF324D96E000EB3
:10134000F420DA6EDF50186E130EF66E0800F550BA
:101350001818D8A40AD0000E156E1D0EF66E0800DF
:10136000F550A9EC07F0196E12003D8212001650DC
:1013700017101810D8B41ED0010E196E05D0D890D1
:10138000163617361836192A18AEF9D71650135CC8
:101390001750145818501558D8A006D01650135E80
:1013A0001750145A1850155AD8901832173216324E
:1013B000192EECD713C013F014C014F015C015F09B
:1013C0001200176E0B0EF66E0900F5CF13F00A002F
:1013D000F5CF14F059EC0BF0356E1750000835249A
:1013E000356E0B0EF66E0900F5CF13F00A00F5CF3F
:1013F00014F035C015F083EC0AF03550D8A4120073
:101400003E903E843E981200176E0B0EF66E090059
:10141000F5CF13F00A00F5CF14F059EC0BF0356E50
:1014200035501724356E0B0EF66E0900F5CF13F00C
:101430000A00F5CF14F035C015F083EC0AF03550F2
:10144000D8B412003E803E943E88120087CF13F03D
:1014500086CF14F0879487828B500F098B6EC6EC71
:101460000BF09038F00B3A6EC3EC0BF0C6EC0BF0BF
:1014700090500F0B3A103A6E87908B50F00B8B6E9A
:10148000879214C086FF13C087FF3A5012009C0E4B
:10149000F66E170EF76E000EF86E0900F5CF42F0EB
:1014A00000EE60F0200EEE6AE806FDE100EE2DF0A1
:1014B000120EEE6AE806FDE143904392000EF86ECC
:1014C0000F0EF76E000165EF0AF03BEC0BF017EC26
:1014D00009F003EC0BF000F03EA407D02E0E196EBD
:1014E0000F0E1A6ED6EC08F03E943EAA07D0050EF9
:1014F00004EC0AF0000EE1EC09F03E9A3EA8EBD7AE
:101500002AEC0BF0E8D7000EF2BE010E166E145056
:10151000030B7F6E13C07EFF15C080FF3F0E811648
:101520008184F29E550E826EAA0E826E818281B2F5
:10153000FED7819416B002D0F29E01D0F28E120036
:10154000000ECF6E000ED06E000ED16E050ED26E64
:10155000F60ECE6E3C0ECD6ECD50CECF13F0146A8B
:1015600013C014F0136A13103F6E1450406E0E0136
:10157000CE91CCEC0BF01200166E86CF15F026EC57
:101580000AF002D026EC0AF03A6E3ABEFBD71638C3
:101590000F0B0F0B866EADEC0BF016500F0B866E1B
:1015A000ADEC0BF015C086FF1200000E17EC0BF02F
:1015B000030E336E000E0001606F000E616F42C0BB
:1015C00062F0000E636F33C015F01C0EF66E08005B
:1015D000F550A9EC07F0336E1200186E878418508E
:1015E000BCEC0AF00F0E3A18D8A40BD018C017F0B4
:1015F0008794C00E186E1850BCEC0AF0878417C090
:1016000018F0879412003D923D9086EC09F0D5ECDD
:101610000AF03E8A4CEC0BF00009D8A404D03E90AE
:101620003E843E9812003E803E943E881200136E27
:10163000000E146E200E146401D012001450010D1F
:10164000600EF324D96E000EF420DA6E13C0DFFFB3
:10165000142AF0D7440E196E0F0E1A6ED6EC08F04D
:101660004CEC0BF02C6E2C501D6E1E6A1F6A26EC83
:1016700008F03E981200B2EC0BF07EEC08F065EC3E
:101680000BF0B6EC0BF093EC0BF0A0EC0AF088EC4E
:101690000BF071EC0BF012000B0EF66E0900F5CF9B
:1016A00013F00A00F5CF14F059EC0BF0356E3550FD
:1016B00012001450030B7F6E13C07EFF3F0E811685
:1016C000818000F000F080501200600E0E01D86F93
:1016D000000EDA6F000EDC6F030EDE6F000EDD6FA2
:1016E0001200080E0E019F6F100E9D6F040E9E6F6C
:1016F000CF0E9B6F000E9C6F1200300E04D019505D
:10170000EDEC0AF01928196E4F0E1964F8D7120083
:10171000080E9F6ED00E9D6EEC0E9E6ECF0E9B6ED1
:10172000000E9C6E1200840E0F01396F000E3A6F8E
:10173000000E3B6F060E3C6F12000E01CDABFDD7C5
:101740009DA202D09D9E9D8E99501200136E0E0197
:10175000CDA9FDD713C09AFF1200878000D08790D3
:1017600000D01200F28A0E01BA8912008C0E0F010D
:10177000316F12009EB21200FDD79FBC1200FDD740
:10178000858085821200879000D01200878000D06B
:0D17900012000E01CA991200CF8012001F36
:020000040020DA
:10000000FF0FFF0FFF0FFF0FFF0FFF0FFF0FFF0F80
:020000040030CA
:0C0000008CFFFFFF9FFFFFFFFFFFFFFFD3
:00000001FF
