:0400000055EF00F0C8
:100008004F82FACF0BF0FBCF0CF0E9CF0DF0EACF1F
:100018000EF0E1CF0FF0E2CF10F0D9CF11F0DACF28
:1000280012F0F3CF13F0F4CF14F0F6CF15F0F7CFAA
:1000380016F0F8CF17F0F5CF18F04FC019F050C0F0
:100048001AF051C01BF052C01CF00E01C2B9CAA967
:1000580002D05CEC90F01CC052F01BC051F01AC0EA
:1000680050F019C04FF018C0F5FF17C0F8FF16C0C0
:10007800F7FF15C0F6FF14C0F4FF13C0F3FF12C05A
:10008800DAFF11C0D9FF10C0E2FF0FC0E1FF0EC0B8
:10009800EAFF0DC0E9FF0CC0FBFF0BC0FAFF4F924F
:0600A800110042EF8DF093
:10FAA600005075736820427574746F6E20746F20F1
:10FAB6004C696E6B205075736820616761696E20B2
:10FAC600746F20556E6C696E6B5075736820536544
:10FAD600727669636520746F2045786974002050DA
:10FAE60072657373204368616E6E656C2056656E31
:10FAF6006420427574746F6E206F72205072657345
:10FB060073202020202020205365727669636520AB
:10FB1600746F204578697400486F6C64206368616F
:10FB26006E6E656C20627574746F6E206F722050F5
:10FB3600757368207365727669636520746F20201B
:10FB460065786974005075736820627574746F6E99
:10FB5600203120746F20636C656172206372656466
:10FB6600697473202020616E642065786974005082
:10FB7600726573732031203D202B206F7220322056
:10FB86003D202D20205072657373203820746F201D
:10FB96004578697400205075736820627574746FB7
:10FBA6006E20746F202020202076656E64005072CF
:10FBB600657373207365727669636520746F20655B
:10FBC600786974002020496E697469616C697A6588
:10FBD60020486F7070657200202053657475702020
:10FBE60053656E736F72002020496E7365727420C0
:10FBF6004E6F74650020204175646974204D6F64F2
:10FC06006500507269636520520045786974002E5C
:10FC1600002D002C002B002A002900280027002692
:10FC2600002500240023002200210020001F001EC2
:10FC3600001D001C001A001900180017000F00070D
:10FC460000040002000000461E230FBAE1FEFDF28A
:10FC5600DBDAECACA8A7A6A4A30101030C0B0A09E6
:10FC660008070605040302013336353433323130D2
:10FC760054144000181B080705040602A8010C2CA2
:10FC8600282431203D2041756469742032203D20AE
:10FC960053656E736F72333D486F702D436F696E97
:10FCA60020343D4E6F74652D656E353D4372656437
:10FCB6002D636C7220363D50726963657320373D43
:10FCC60056656E6420736574757020383D45786995
:10FCD6007400507573682031203D2056656E64208F
:10FCE60054696D652C2032203D204368616E204C9E
:10FCF600696E6B2C20202020202033203D20536568
:10FD06006E736F72204F66662C20202020203420D0
:10FD16003D2052657365742C2038203D2065786936
:10FD26007400456E61626C65202F204469736162C0
:10FD36006C652020202031203D205231302C20328D
:10FD4600203D205232302020202033203D205235C5
:10FD5600302C2034203D20523130302020203520D8
:10FD66003D205232303000507265737320636861F3
:10FD76006E6E656C20627574746F6E202020207420
:10FD86006F207365742070726963652020202020BF
:10FD96002053657276696365203D20457869740055
:10FDA6005072657373206368616E6E656C20627550
:10FDB60074746F6E20202020746F206C696E6B2027
:10FDC600746F202020202020536572766963652099
:10FDD6003D204578697400486F7070657220436FE6
:10FDE600696E202020202020202020427574746F08
:10FDF6006E2031203D202B20262032203D202D2034
:10FE060056616C7565203D2052005075736820312F
:10FE1600203D202B2E35207365636F6E6420507550
:10FE260073682032203D202D2E35207365636F6E5A
:10FE360064200050757368206368616E6E656C207F
:10FE4600627574746F6E2050757368207365727670
:10FE560069636520746F206578697400496E7365FF
:10FE66007274204E6F74657320262050726573730A
:10FE76004C697420427574746F6E20546F205665F9
:10FE86006E64002020202020496E697469616C69C7
:10FE96007A65202020202020202020204E6F7465A7
:10FEA60020526561646572004E6F204368616E671B
:10FEB60065205573652045786163742020202020D5
:10FEC60020416D6F756E74210052657365742074E0
:10FED6006F2044656661756C742020202053746120
:10FEE600727420416761696E005075736820312015
:10FEF6003D204F6E2C2032203D204F66662C203848
:10FF0600203D2045786974002020204E6F746520BE
:10FF16006572726F722020202020636F6465203D19
:10FF26002030780020202020202020202020202083
:10FF360020202020202020200054696D6520696E35
:10FF460020312F32736563203D200020202050721F
:10FF560069636520736574206D6F6465004372651F
:10FF66006469747320436C65617265640053656EE1
:10FF76007369746976697479200020204372656418
:10FF86006974203D2052002020204368616E6E6512
:10FF96006C20006C696E6B656420746F203A0053A8
:10FFA600656E736F72206973200020202020202048
:10FFB600202020002064697361626C6564002065FE
:10FFC6006E61626C65642000202020523130202052
:10FFD6000020205232303020002020523130302094
:10FFE60000202052353020200020205232302020A0
:0AFFF600004F6666004F6E20000009
:020000040001F9
:10000000FDEC8DF05DEC88F0A9EC87F000F0000EBF
:100010000F01346F32EC90F00009D8B42E8E37C047
:1000200034FF2EBE02EC89F02EA413D0620E246E93
:10003000FE0E256E790EF66EFC0EF76E000EF86E53
:100040000800F5CF26F003EC88F02E942EB669EC6C
:100050008EF02EAA07D0000E22EC8CF0000E7AEC67
:100060008CF02E9A2EA805D083EC8EF02EB669EC7B
:100070008EF00E01CEA52BD09AEC80F03B6E3B505B
:10008000D8B422D03EB20DD01AD08AEC8BF003D077
:100090003EA88AEC8BF0000E3B6E19D002EC8FF07C
:1000A00016D03B50060AD8B4F0D70F0AD8B4F0D710
:1000B000050AD8B4F0D71C0AD8B4EDD7EFD73B5017
:1000C00022EC8CF02E8003D03EB202EC8FF02EA0FA
:1000D00003D061EC90F09AD71DEC8DF00009D8B4F4
:1000E00024D01DEC8DF0396E30B490D7395099EC96
:1000F0008FF00001B76F430EF66EFC0EF76E000E28
:10010000F86E0900F5CFB5F00900F5CFB6F0B7519C
:10011000B5251D6E000EB6211E6ECFEC8FF0386E29
:10012000385087EC8DF0308471D730A46FD730947D
:100130002E846CD733EC8EF0000E1F6E720EF66EAE
:10014000FC0EF76E000EF86E0800F5503DEC83F0E3
:10015000226E60C040F0000160AF50D060517F0B54
:10016000406E19D00A0E3B6E3B501200140E3B6ECF
:100170003B501200320E3B6E3B501200640E3B6E41
:100180003B501200C80E3B6E3B501200100E3B6EEF
:100190003E823B5012004050000AD8B4E3D7010A17
:1001A000D8B4E4D7030AD8B4E5D7010AD8B4E6D75F
:1001B000070AD8B4E7D7EAD7000E3B6E3B501200CF
:1001C000010E1AD0020E18D0000E3B6E3E923B502C
:1001D0001200040E11D0050E0FD0060E0DD0070E22
:1001E0000BD0080E09D0090E07D00A0E05D00B0E51
:1001F00003D00C0E01D0000E3B6E2AD000016051DE
:10020000000AD8B4D9D7010AD8B4DAD7030AD8B4C7
:10021000D9D7010AD8B4D8D7070AD8B4DAD7010A8F
:10022000D8B4D9D7030AD8B4D8D7010AD8B4D7D705
:100230000F0AD8B4D6D7010AD8B4D5D7030AD8B490
:10024000D4D7010AD8B4D3D7070AD8B4D2D7D3D7D2
:100250003E823B5012000001B36F2F820001B35168
:1002600099EC8FF00001B46F430EF66EFC0EF76E42
:10027000000EF86E0900F5CF2BF00900F5CF2CF039
:10028000B4512B241D6E000E2C201E6ECFEC8FF06F
:10029000386E385087EC8DF067D0D0EC8EF00001CE
:1002A000B36F57D0382A430EF66EFC0EF76E000E71
:1002B000F86E0900F5CF2BF00900F5CF2CF0B45102
:1002C0002B241D6E000E2C201E6E38C01FF0C4ECB7
:1002D0008DF0385087EC8DF047D03806430EF66E1F
:1002E000FC0EF76E000EF86E0900F5CF2BF009003A
:1002F000F5CF2CF00001B4512B241D6E000E2C20E4
:100300001E6E38C01FF0C4EC8DF0385087EC8DF0B5
:100310002BD02F92510E246EFF0E256E790EF66EA5
:10032000FC0EF76E000EF86E0800F5CF26F003EC19
:1003300088F06D0E246EFD0E256E780EF66EFC0EA6
:10034000F76E000EF86E0800F5CF26F003EC88F08B
:100350000BD00001B351010AD8B4A4D7030AD8B412
:10036000BCD7820AD8B4D5D72FA2120096D72F8433
:10037000D80E246EFC0E256E790EF66EFC0EF76E0E
:10038000000EF86E0800F5CF26F003EC88F06FD071
:10039000D0EC8EF0396E5BD0CFEC8CF0D80E246EA2
:1003A000FC0E256E790EF66EFC0EF76E000EF86EE2
:1003B0000800F5CF26F003EC88F059D0F1EC8BF073
:1003C000D80E246EFC0E256E790EF66EFC0EF76EBE
:1003D000000EF86E0800F5CF26F003EC88F047D049
:1003E000F6EC8CF0D80E246EFC0E256E790EF66EAF
:1003F000FC0EF76E000EF86E0800F5CF26F003EC49
:1004000088F035D0B1EC88F0D80E246EFC0E256E45
:10041000790EF66EFC0EF76E000EF86E0800F5CF42
:1004200026F003EC88F023D02F9497EC86F0880E0A
:10043000246EFC0E256E790EF66EFC0EF76E000E25
:10044000F86E0800F5CF26F003EC88F010D0395094
:10045000010AD8B4A1D7030AD8B4B0D7060AD8B4D1
:10046000BFD70C0AD8B4CED7880AD8B4DDD72FA40A
:1004700012008ED7266E26C024F0243A0F0E2416C2
:100480000A0E24601ED026380F0B3009BEEC8BF00C
:1004900033D0410EBEEC8BF02FD0420EBEEC8BF071
:1004A0002BD0430EBEEC8BF027D0440EBEEC8BF06D
:1004B00023D0450EBEEC8BF01FD0460EBEEC8BF069
:1004C0001BD026380F0B246E256A2550000AD8A4AD
:1004D00013D024500A0AD8B4DCD7010AD8B4DDD727
:1004E000070AD8B4DED7010AD8B4DFD7030AD8B4D4
:1004F000E0D7010AD8B4E1D726C024F00F0E2416A5
:100500000A0E24601ED026500F0B3009BEEC8BF073
:100510001200410EBEEC8BF01200420EBEEC8BF0CE
:100520001200430EBEEC8BF01200440EBEEC8BF0BA
:100530001200450EBEEC8BF01200460EBEEC8BF0A6
:10054000120026500F0B246E256A2550000AD8A4ED
:10055000120024500A0AD8B4DCD7010AD8B4DDD777
:10056000070AD8B4DED7010AD8B4DFD7030AD8B453
:10057000E0D7010AD8A41200E0D70001B46F2F8899
:10058000100E246EFE0E256E790EF66EFC0EF76EC2
:10059000000EF86E0800F5CF26F003EC88F0250E6B
:1005A000F66EFC0EF76E000EF86E0900F5CF2CF01B
:1005B0000900F5CF2DF00001B4512C241D6E000E62
:1005C0002D201E6ECFEC8FF00001B36FB4C02AF067
:1005D000B3514DEC89F04ED0D0EC8EF0396E40D056
:1005E0000001B32B250EF66EFC0EF76E000EF86EB2
:1005F0000900F5CF2CF00900F5CF2DF0B4512C24D3
:100600001D6E000E2D201E6EB3C01FF0C4EC8DF0C9
:10061000B4C02AF00001B3514DEC89F02BD0000199
:10062000B307250EF66EFC0EF76E000EF86E09008D
:10063000F5CF2CF00900F5CF2DF0B4512C241D6E10
:10064000000E2D201E6EB3C01FF0C4EC8DF0B4C0A0
:100650002AF00001B3514DEC89F00CD02F980AD04C
:100660003950010AD8B4BCD7030AD8B4D8D7820A03
:10067000D8B4F4D72FA81200AFD7206E000E216E89
:100680009E805FEC90F0205024EC90F09E9020C073
:100690003FF01F50D8B41ED01F28216E18D01F5015
:1006A000010D600EF324D96E000EF420DA6EDF50D7
:1006B00024EC90F01F50010D600EF324D96E000E53
:1006C000F420DA6EDF503F243F6E21061F062150D2
:1006D000D8A4E5D73F5024EC90F0FF0E45EC8FF006
:1006E0004EEC8EF0000E326E000E316E3E90000E1B
:1006F000216E1ED0314A322A3E9015D02150010D74
:10070000600EF324D96E000EF420DA6E12EC90F035
:10071000DF6E56EC90F09DA002D03E8001D03E905E
:100720004EEC8EF0212A0E01CDAB02D03EA0E6D7D2
:100730000E01CEB102D03EA0DDD72106CEA102D05F
:100740003E8601D03E963EA011D02150010D600E94
:10075000F324D96E000EF420DA6EDF50D8B406D040
:100760009E805FEC90F0000E24EC90F05FEC90F037
:1007700021501200280E246EFD0E256E790EF66EA5
:10078000FC0EF76E000EF86E0800F5CF26F003ECB5
:1007900088F03E8A3E8C64D0D0EC8EF0396E39C041
:1007A0004DF048D0CE0E296EFF0E2A6EE1EC8DF092
:1007B000426E010EA1EC8AF050D0EF0E296EFF0EB2
:1007C0002A6EE1EC8DF0426E020EA1EC8AF045D06B
:1007D000E70E296EFF0E2A6EE1EC8DF0426E040EDC
:1007E000A1EC8AF03AD0DF0E296EFF0E2A6EE1EC02
:1007F0008DF0426E080EA1EC8AF02FD0D70E296E34
:10080000FF0E2A6EE1EC8DF0426E100EA1EC8AF024
:1008100024D0880E246EFC0E256E790EF66EFC0E2A
:10082000F76E000EF86E0800F5CF26F003EC88F0A6
:100830003E9A13D03950010AD8B4B4D7030AD8B4B9
:10084000BCD7060AD8B4C4D70C0AD8B4CCD7180A77
:10085000D8B4D4D7900AD8B4DCD73CC03DF000F06F
:100860003EAA120099D70001A76F39C0A8F02F8EB9
:10087000270EF66EFC0EF76E000EF86E0900F5CF2F
:100880001DF00A00F5CF1EF0CFEC8FF00001A96F2C
:10089000A7C029F0A8C02AF0A951F3EC86F04BD0EC
:1008A000D0EC8EF0396E3DD00001A851FF0AA91599
:1008B000A96F270EF66EFC0EF76E000EF86E09009B
:1008C000F5CF1DF00A00F5CF1EF0A9C01FF0C4EC53
:1008D0008DF0A7C029F0A8C02AF00001A951F3ECBF
:1008E00086F029D00001A951A811A96F270EF66E34
:1008F000FC0EF76E000EF86E0900F5CF1DF00A0031
:10090000F5CF1EF0A9C01FF0C4EC8DF0A7C029F0F0
:10091000A8C02AF00001A951F3EC86F00CD02F9E5C
:100920000AD03950010AD8B4BFD7030AD8B4DAD7ED
:10093000820AD8B4F4D72FAE1200B2D73E8CA50EDF
:10094000246EFF0E256E790EF66EFC0EF76E000E0D
:10095000F86E0800F5CF26F003EC88F04650020F41
:10096000366E730E246EFF0E256E780EF66EFC0E3C
:10097000F76E000EF86E0800F5CF26F003EC88F055
:100980004650020F2C6E2CC02AF036501BEC8BF018
:100990003DD0D0EC8EF0396E27D037501F0B0F01B1
:1009A000346F372A2CC02AF036501BEC8BF026D03F
:1009B00037501F0B0F01346F37062CC02AF036500A
:1009C0001BEC8BF01BD03E9C880E246EFC0E256E1B
:1009D000790EF66EFC0EF76E000EF86E0800F5CF7D
:1009E00026F003EC88F00AD03950010AD8B4D5D7E4
:1009F000030AD8B4DDD7820AD8B4E5D70E01CEA554
:100A000005D02CC02AF036501BEC8BF03EAC120007
:100A1000C0D7DD0E246EFD0E256E790EF66EFC0E2F
:100A2000F76E000EF86E0800F5CF26F003EC88F0A4
:100A30003E8C4650020F366E390EF66EFC0EF76E87
:100A4000000EF86E0900F5CF1DF00A00F5CF1EF07C
:100A5000CFEC8FF02C6E3650C3EC8FF02C50276EFD
:100A6000286A296A4EEC87F03CD0D0EC8EF0396EC3
:100A70001FD0010E2A6E2C501EEC8AF023D0020EDD
:100A80002A6E2C501EEC8AF01DD03E9C880E246EDF
:100A9000FC0E256E790EF66EFC0EF76E000EF86EEB
:100AA0000800F5CF26F003EC88F0000E396E0AD06E
:100AB0003950010AD8B4DDD7030AD8B4E0D7820A86
:100AC000D8B4E3D7390EF66EFC0EF76E000EF86E52
:100AD0000900F5CF1DF00A00F5CF1EF0CFEC8FF026
:100AE0002C6E3EAC1200C1D7C30E1F6ECD0EE82E89
:100AF000FED71F2EFCD700F0000E876E000E866E0C
:100B0000C00E836E000E846E010E856E000E8C6E1C
:100B10001F0E886ED00E896E800E8A6E000E8B6E50
:100B2000000E0F01216FC00E196F000E266F000E10
:100B30002E6F010E116F000E256F000E2D6F000E2F
:100B4000186F000E106F000E206F000E2C6F000E3D
:100B50000F6F000E176F000E1F6F000E246F010E37
:100B6000856E800E8A6E000E216F000E206F000EC3
:100B70001F6F550E0E01A06FAA0EA06FA091B59128
:100B8000B593B595B597B599000EFD6F000EF46F4E
:100B90008D918D938D958D978D9908EC90F033EC18
:100BA0008EF040EC90F018EC8EF04EEC8EF01200CF
:100BB000276E490EF66EFC0EF76E000EF86E0900F9
:100BC000F5CF1FF00A00F5CF20F04A0E216E000E7F
:100BD000226E020E236E9DEC8EF0470EF66EFC0E1A
:100BE000F76E000EF86E0900F5CF1FF00A00F5CF82
:100BF00020F0470E216E000E226E030E236E9DEC38
:100C00008EF027504A244A6E000E4B204B6E275020
:100C10004724476E000E4820486E000E4920496E5A
:100C2000490EF66EFC0EF76E000EF86E0900F5CF59
:100C300021F00A00F5CF22F04A0E236E000E246E3A
:100C4000020E256E31EC8FF0470EF66EFC0EF76E3D
:100C5000000EF86E0900F5CF21F00A00F5CF22F062
:100C6000470E236E000E246E030E256E31EC8FF0BE
:100C700000F012000001A86F308039C0A7F0370ED5
:100C8000F66EFC0EF76E000EF86E0900F5CF2CF034
:100C90000900F5CF2DF00001A8512C241D6E000E87
:100CA0002D201E6ECFEC8FF00001A96FA9C029F096
:100CB000A85196EC89F038D0D0EC8EF0396E3950CE
:100CC000D8B42DD03950D8B408D00001A951D8B427
:100CD00004D03950FF0AA91503D00001A9513910D9
:100CE000A96F370EF66EFC0EF76E000EF86E090057
:100CF000F5CF2CF00900F5CF2DF0A8512C241D6E56
:100D0000000E2D201E6EA9C01FF0C4EC8DF0A9C0EE
:100D100029F00001A85196EC89F001D030901BEC2D
:100D200090F00009D8B4FAD730A01200C5D7270E2A
:100D3000F66EFC0EF76E000EF86E0900F5CF1DF092
:100D40000A00F5CF1EF0CFEC8FF0356E370EF66E41
:100D5000FC0EF76E000EF86E0900F5CF21F00A00C8
:100D6000F5CF22F0030E236E000E246E000E256ECA
:100D700012D02550010DF3502324D96EF4502420B5
:100D8000DA6E255021241D6E000E22201E6ECFEC3F
:100D90008FF0DF6E252A070E2564EBD7000E256E37
:100DA0001ED02550010D800EF324D96E000EF420C4
:100DB000DA6E430EF66EFC0EF76E000EF86E09004A
:100DC000F5CF1FF00900F5CF20F025501F241D6E30
:100DD000000E20201E6ECFEC8FF0DF6E252A070E4E
:100DE0002564DFD712002B6E8D0E246EFF0E256E4C
:100DF000790EF66EFC0EF76E000EF86E0800F5CF59
:100E000026F003EC88F029503009BEEC8BF0292A3B
:100E1000A50E246EFF0E256E780EF66EFC0EF76E94
:100E2000000EF86E0800F5CF26F003EC88F0EF0E08
:100E3000246EFE0E256E770EF66EFC0EF76E000E1B
:100E4000F86E0800F5CF26F003EC88F02B50D8B4EC
:100E500014D02A50D8B411D0BA0E246EFF0E256ECD
:100E6000780EF66EFC0EF76E000EF86E0800F55068
:100E70000A0F266E03EC88F01200C40E246EFF0EDB
:100E8000256E780EF66EFC0EF76E000EF86E0800FA
:100E9000F5500A0F266E03EC88F01200000E0001D8
:100EA000B26F27C0AFF028C0B0F029C0B1F02FD08A
:100EB000B251010DA70EF324D96E000EF420DA6EA4
:100EC00027C01DF028C01EF029C01FF00A0E206E9A
:100ED000000E216E000E226EA5EC8CF01D50DF6E10
:100EE00027C01DF028C01EF029C01FF00A0E206E7A
:100EF000000E216E000E226E55EC8BF01DC027F007
:100F00001EC028F01FC029F00001B229B26F27507F
:100F100028102910D8B40ED0CBD7B207B251010D8A
:100F2000A70EF324D96E000EF420DA6EDF503009DC
:100F3000BEEC8BF00001B251800A7F0FD8B0EDD724
:100F4000AF51B011B111D8A41200300EBEEC8BF02D
:100F50001200410EF66EFC0EF76E000EF86E0900E0
:100F6000F5CF1DF00A00F5CF1EF0CFEC8FF0346EF8
:100F7000150EF66EFC0EF76E000EF86E0900F5CF3A
:100F80001DF00A00F5CF1EF0CFEC8FF00009D8B4A9
:100F900002D02E8601D02E9697EC86F03D0EF66E8E
:100FA000FC0EF76E000EF86E0900F5CF1DF00A007A
:100FB000F5CF1EF0CFEC8FF0376E375046EC90F047
:100FC000890E246EFE0E256E790EF66EFC0EF76EFF
:100FD000000EF86E0800F5CF26F003EC88F08AECDE
:100FE0008BF030942E9E2E8A69EC8FF00009D8A4E5
:100FF00005D02E902E842E983E9212002E802E9494
:101000002E883E921200790EF66EFC0EF76E000EE0
:10101000F86E0800F55026620BD0830EF66EFC0EBB
:10102000F76E000EF86E0800F550E9EC8EF004D073
:1010300026508009C3EC8FF0000E446E28D0445037
:10104000010D24C027F025C028F0F3502726F450C6
:10105000282227C0F6FF28C0F7FF000EF86E080010
:10106000F5CF45F04450010D24C027F025C028F0ED
:10107000F3502726F450282227C0F6FF28C0F7FF98
:10108000000EF86E0800F550BEEC8BF0442A445078
:10109000010D24C027F025C028F0F3502726F45076
:1010A000282227C0F6FF28C0F7FF000EF86E0800C0
:1010B000F5500009D8B41200C2D7000E876E030E97
:1010C000866E030E4C6E4C50800A7F0FD8A00BD05A
:1010D00039EC90F0140E256E7A0EE82EFED7252EF0
:1010E000FCD74C06F0D7320EE82EFED7020E866EE5
:1010F00039EC90F0850EF66EFC0EF76E000EF86E71
:101100000800F550E9EC8EF0840EF66EFC0EF76EDA
:10111000000EF86E0800F550E9EC8EF0800EF66EC9
:10112000FC0EF76E000EF86E0800F550E9EC8EF03C
:10113000830EF66EFC0EF76E000EF86E0800F5508A
:10114000E9EC8EF0F2EC8FF0040E266ECF0E256ED9
:10115000020EE82EFED7252EFCD7262EFAD700F059
:101160001200CF0E246EFE0E256E790EF66EFC0E6A
:10117000F76E000EF86E0800F5CF26F003EC88F04D
:10118000370EF66EFC0EF76E000EF86E0900F5CF06
:101190002BF00A00F5CF2CF00AD02BC01DF02CC08C
:1011A0001EF0000E1F6EC4EC8DF02B4A2C2A250E6B
:1011B000F66EFC0EF76E000EF86E0900F5502B5C13
:1011C0000900F5502C58D8A0E8D7270EF66EFC0E73
:1011D000F76E000EF86E0900F5CF1DF00A00F5CF8E
:1011E0001EF0000E1F6EC4EC8DF01F0E2A6E710EE5
:1011F000296E1E0EE82EFED7292EFCD72A2EFAD7EE
:1012000000D0120074EC85F0880E246EFC0E256E62
:10121000790EF66EFC0EF76E000EF86E0800F5CF34
:1012200026F003EC88F036D0D0EC8EF0396E19D071
:1012300062EC90F02FD09EEC84F02CD009EC85F07D
:1012400029D0BAEC83F026D04FEC8CF02E9EFF0014
:1012500061EC8AF01FD0B7EC81F01CD02E9EFF000D
:1012600019D03950010AD8B4E3D7030AD8B4E3D768
:10127000060AD8B4E3D70C0AD8B4E3D7180AD8B40E
:10128000E3D7300AD8B4E4D7600AD8B4E4D7C00AA8
:10129000D8B4E4D72EAE1200C7D72B6E2A0E246E18
:1012A000FF0E256E770EF66EFC0EF76E000EF86ED2
:1012B0000800F5CF26F003EC88F02A0E246EFF0E0E
:1012C000256E760EF66EFC0EF76E000EF86E0800B8
:1012D000F5CF26F003EC88F08D0E246EFF0E256E00
:1012E000770EF66EFC0EF76E000EF86E0800F5CF66
:1012F00026F003EC88F02A503009BEEC8BF02A2A45
:101300003F0E246EFF0E256E760EF66EFC0EF76E07
:10131000000EF86E0800F5CF26F003EC88F02B5095
:10132000276E286A296A4EEC87F012002A6E8D0E0D
:10133000246EFF0E256E790EF66EFC0EF76E000E13
:10134000F86E0800F5CF26F003EC88F02A5030093B
:10135000BEEC8BF02A2A010E2B6E990E246EFF0E26
:10136000256E780EF66EFC0EF76E000EF86E080015
:10137000F5CF26F003EC88F0770EF66EFC0EF76ED4
:10138000000EF86E0800F550C3EC8FF010D029A0C5
:101390000AD02B503009BEEC8BF02C0EBEEC8BF03B
:1013A000200EBEEC8BF02B2AD8902930296E080E27
:1013B0002B64EDD712003E860DD0000E1F6E750E09
:1013C000F66EFC0EF76E000EF86E0800F5503DEC60
:1013D00083F0236E3EB6F1D700F0000E1F6E720E42
:1013E000F66EFC0EF76E000EF86E0800F5503DEC40
:1013F00083F0246E24062450010D600EF324D96E70
:10140000000EF420DA6EDF50226E680EF66EFC0ECF
:10141000F76E000EF86E0800F5502218D8A41200DE
:10142000000E1F6E720EF66EFC0EF76E000EF86E5A
:101430000800F5503DEC83F0246E12002B6E14D0A2
:101440002A04D8A405D02B2A1AD02A04D8A402D062
:10145000050E06D02B0613D02A04D8A403D0010E03
:101460002B6E0DD0020EFCD72B50010AD8B4E8D752
:10147000030AD8B4EAD7070AD8B4EED7F3D7B00E28
:10148000246EFF0E256E36C026F003EC88F0390E70
:10149000F66EFC0EF76E000EF86E0900F5CF1DF02B
:1014A0000A00F5CF1EF02BC01FF0C4EC8DF03650B3
:1014B000C3EC8FF02B50276E286A296A4EEC87F018
:1014C00012002F80510E246EFF0E256E790EF66EDF
:1014D000FC0EF76E000EF86E0800F5CF26F003EC58
:1014E00088F06D0E246EFD0E256E780EF66EFC0EE5
:1014F000F76E000EF86E0800F5CF26F003EC88F0CA
:101500000ED0D0EC8EF0396E3950D8B403D03950AB
:101510002BEC81F01BEC90F00009D8B42F902FB089
:10152000F0D7880E246EFC0E256E790EF66EFC0E3A
:10153000F76E000EF86E0800F5CF26F003EC88F089
:1015400012002B6E3E8C2B50B7EC8EF034D0D0ECCA
:101550008EF0396E26D03C502B103C6E58EC8FF03C
:101560002B50B7EC8EF027D02B50FF0A3C143C6E6A
:1015700058EC8FF02B50B7EC8EF01DD03E9C280E0F
:10158000246EFD0E256E790EF66EFC0EF76E000EC3
:10159000F86E0800F5CF26F003EC88F0000E396EE7
:1015A0000AD03950010AD8B4D6D7030AD8B4DCD748
:1015B000820AD8B4E3D73EAC1200C9D7000E876EBA
:1015C000000E866EC00E836E000E846E400E856E19
:1015D000000E8C6E1F0E886EF00E896E800E8A6E65
:1015E000000E8B6E000E0F01216FC00E196F000EE2
:1015F000266F000E2E6F010E116F000E256F000E6C
:101600002D6F000E186F000E106F000E206F000E71
:101610002C6F000E0F6F000E176F000E1F6F000E65
:10162000246F0E01C289B581B583B585B597B5899B
:10163000090EFD6F12002B6E32EC90F00009D8B449
:1016400009D0F70E246EFF0E256E2BC026F003EC9A
:1016500088F008D0FB0E246EFF0E256E2BC026F0FE
:1016600003EC88F03D0EF66EFC0EF76E000EF86E81
:101670000900F5CF1DF00A00F5CF1EF037C01FF0AE
:10168000C4EC8DF0B00E246EFF0E256E2AC026F03D
:1016900003EC88F02A50C3EC8FF00F013451276E11
:1016A000286A296A4EEC87F01200000E236E000EA5
:1016B000246E000E256E205021102210D8B423D0A5
:1016C000010E266E05D0D890203621362236262AE5
:1016D00022AEF9D7D89023362436253620501D5C0B
:1016E00021501E5822501F58D8A007D020501D5EF0
:1016F00021501E5A22501F5A2380D8902232213264
:101700002032262EE7D723C01DF024C01EF025C0AE
:101710001FF01200040E266ECF0E256E020EE82E6C
:10172000FED7252EFCD7262EFAD73F0EF66EFC0EDE
:10173000F76E000EF86E0900F5CF1DF00A00F5CF28
:101740001EF0CFEC8FF03C6E3CC03DF0E7EC8FF02C
:101750003E923E90DBEC89F0A7EC8DF07AEC8FF0B6
:10176000000E1F6E720EF66EFC0EF76E000EF86E17
:101770000800F5503DEC83F0276E1200236E87843D
:101780002350E9EC8EF021D0780EF66EFC0EF76E49
:10179000000EF86E0800F550C3EC8FF020D0770EE5
:1017A000F66EFC0EF76E000EF86E0800F550C3ECF6
:1017B0008FF015D0760EF66EFC0EF76E000EF86EFA
:1017C0000800F550C3EC8FF00AD04650130AD8B485
:1017D000DBD7340AD8B4EED7740AD8B4E0D78794EC
:1017E0001200A60E246EFD0E256E790EF66EFC0E0E
:1017F000F76E000EF86E0800F5CF26F003EC88F0C7
:101800002F861DD0D0EC8EF0396E3950D8B412D05E
:10181000395099EC8FF03AEC86F0100E0001AB6F66
:10182000390EAA6F0D0EE82EFED7AA2FFCD7AB2FCC
:10183000FAD700D01BEC90F00009D8B42F962FA651
:101840001200E0D7286E4B0EF66EFC0EF76E000EFF
:10185000F86E0900F5CF1DF00A00F5CF1EF0CFECB1
:101860008FF03A6E3A5028243A6E4B0EF66EFC0E0C
:10187000F76E000EF86E0900F5CF1DF00A00F5CFE7
:101880001EF03AC01FF0C4EC8DF03A50D8B403D02B
:101890002E802E942E882850D8EC85F012004B0E06
:1018A000F66EFC0EF76E000EF86E0900F5CF1DF017
:1018B0000A00F5CF1EF0000E1F6EC4EC8DF0630E13
:1018C000246EFF0E256E790EF66EFC0EF76E000E7E
:1018D000F86E0800F5CF26F003EC88F0100E2A6EA3
:1018E000390E296E0E0EE82EFED7292EFCD72A2E91
:1018F000FAD71200216E4B0EF66EFC0EF76E000E3C
:10190000F86E0900F5CF1DF00A00F5CF1EF0CFEC00
:101910008FF03A6E215000083A243A6E4B0EF66E64
:10192000FC0EF76E000EF86E0900F5CF1DF00A00F0
:10193000F5CF1EF03AC01FF0C4EC8DF03A50D8A499
:1019400012002E902E842E9812002050211022106A
:10195000D8B41ED0010E236E05D0D8902036213683
:101960002236232A22AEF9D720501D5C21501E5862
:1019700022501F58D8A006D020501D5E21501E5A5C
:1019800022501F5AD890223221322032232EECD7F7
:101990001DC01DF01EC01EF01FC01FF01200390E2A
:1019A000246EFE0E256E790EF66EFC0EF76E000E9E
:1019B000F86E0800F5CF26F003EC88F0D0EC8EF03E
:1019C000396E2F8C10D0D0EC8EF0396E3950D8B4DF
:1019D00005D0395099EC8FF0BDEC82F01BEC90F003
:1019E0000009D8B42F9C2FAC1200EDD72F8A390EE6
:1019F000246EFE0E256E790EF66EFC0EF76E000E4E
:101A0000F86E0800F5CF26F003EC88F0D0EC8EF0ED
:101A1000396E10D0D0EC8EF0396E3950D8B405D074
:101A2000395099EC8FF033EC84F01BEC90F0000906
:101A3000D8B42F9A2FAA1200EDD7839E838C3B0E29
:101A40001D6E700EE82EFED71D2EFCD78DCF1DF01B
:101A5000D8901D320F0E1D161D38F00B1E6E838E92
:101A6000839C3B0E1D6E700EE82EFED71D2EFCD7FC
:101A7000D8908D300F0B1E101E6E838E838C1E50DF
:101A8000FF0A1200C60EF66E200EF76E010EF86EFB
:101A90000900F5CFC0F0C70EF66E200EF76E010EEE
:101AA000F86E0900F5CF4DF000EE60F0470EEE6ADB
:101AB000E806FDE100EE2EF01E0EEE6AE806FDE1FE
:101AC0004E6A4F904F92000100EF80F087CF1DF0DB
:101AD00086CF1EF0879487828B500F098B6E4EEC59
:101AE00090F09038F00B466E4AEC90F04EEC90F08F
:101AF00090500F0B4610466E87908B50F00B8B6EFC
:101B000087921EC086FF1DC087FF465012002A6EB6
:101B1000830EF66EFC0EF76E000EF86E0800F550A0
:101B2000E9EC8EF0780EF66EFC0EF76E000EF86E95
:101B30000800F550040FC3EC8FF0520EBEEC8BF092
:101B40002A50276E286A296A4EEC87F01200000E90
:101B500045EC8FF0030E416E000E0001606F000E29
:101B6000616F3CC062F0000E636F41C01FF0710EE8
:101B7000F66EFC0EF76E000EF86E0800F5503DECA8
:101B800083F0416E3E981200000EF2BE010E206EF0
:101B90001E50030B7F6E1DC07EFF1FC080FF3F0ED7
:101BA00081168184F29E550E826EAA0E826E81820B
:101BB00081B2FED7819420B002D0F29E01D0F28E85
:101BC0001200830EF66EFC0EF76E000EF86E080023
:101BD000F550E9EC8EF029C024F02AC025F0780EEB
:101BE000F66EFC0EF76E000EF86E0800F5CF26F0CC
:101BF00003EC88F04650020F120052EC90F0B5EC66
:101C00008FF0DEEC8AF0DBEC8FF008EC90F033EC38
:101C10008EF0A7EC8FF040EC90F08AEC8FF018EC8F
:101C20008EF04EEC8EF01AEC8FF0FDEC8FF012007F
:101C3000000EC46E000EC56E040EC66EE10EC26EBE
:101C4000BA0EC16EC150C2CF1DF01E6A1DC01EF07B
:101C50001D6A1D100001BA6F1E50BB6F0E01CE9998
:101C6000010EC36E1200000ECA6E000ECB6E050E82
:101C7000CC6E9E0EC86E580EC76EC750C8CF1DF0F2
:101C80001E6A1DC01EF01D6A1D100001BC6F1E5093
:101C9000BD6F0E01CE95010EC96E1200000ED06E02
:101CA000000ED16E050ED26EF60ECE6E3C0ECD6ECF
:101CB000CD50CECF1DF01E6A1DC01EF01D6A1D1036
:101CC0000001BE6F1E50BF6F0E01CE91010ECF6E90
:101CD0001200770EF66EFC0EF76E000EF86E08001E
:101CE000F550C3EC8FF0AE0E246EFE0E256E770E0F
:101CF000F66EFC0EF76E000EF86E0800F5CF26F0BB
:101D000003EC88F01200800E246EFF0E256E790E13
:101D1000F66EFC0EF76E000EF86E0800F5CF26F09A
:101D200003EC88F069EC8FF02A6E2A50276E286A3F
:101D3000296A4EEC87F02E981200000E246E12D005
:101D40002450010DF3502124D96EF4502220DA6E74
:101D500024501F241D6E000E20201E6ECFEC8FF02D
:101D6000DF6E242A2350245CD8B01200E9D7296EF4
:101D700029503C142A6E2A50D8B409D0C40E246EBF
:101D8000FF0E256E42C026F003EC88F01200BA0E5A
:101D9000246EFF0E256E42C026F003EC88F0120080
:101DA0001DEC8DF0226E22C021F003D01DEC8DF0D1
:101DB000216E2150D8A4FAD7080E206E9D0E1F6EFA
:101DC000060EE82EFED71F2EFCD7202EFAD7225063
:101DD0001200206E86CF1FF066EC8DF002D066EC0C
:101DE0008DF0466E46BEFBD720380F0B0F0B866E6C
:101DF00039EC90F020500F0B866E39EC90F01FC03C
:101E000086FF12000E0E246EFF0E256E790EF66E02
:101E1000FC0EF76E000EF86E0800F5CF26F003EC0E
:101E200088F060C043F043503AEC82F03E922E9C22
:101E30002E981200820ED66EA50ED46E2E0ED36E84
:101E4000D350D4CF1DF01E6A1DC01EF01D6A1D1098
:101E50000001B86F1E50B96F0E01CA9B900ED56E6F
:101E60001200000E266E0CD021C01DF022C01EF004
:101E70002650010D2350F3241F6EC4EC8DF0262A4A
:101E80002550265CD8B01200EFD71D6E000E1E6ED6
:101E9000200E1E6401D012001E50010D600EF324AE
:101EA000D96E000EF420DA6E1DC0DFFF1E2AF0D7B7
:101EB0003F0EF66EFC0EF76E000EF86E0900F5CFC1
:101EC0001DF00A00F5CF1EF03CC01FF0C4EC8DF0F1
:101ED00012004B0EF66EFC0EF76E000EF86E090047
:101EE000F5CF1DF00A00F5CF1EF0CFEC8FF03A6E63
:101EF0003A501200000E45EC8FF0010E1F6E730E6B
:101F0000F66EFC0EF76E000EF86E0800F5503DEC14
:101F100083F01200050EBF6E200EBE6E000EC06E66
:101F2000850EBC6E000EBB6E0E01CE93F10EBD6E23
:101F300012001E6E000E1D6E04D01D2AD8901E3099
:101F40001E6E1E50D8A4F9D71D061D501200040E97
:101F5000B96E000EB86E000EBA6E4B0EB66E000E65
:101F6000B56E0E01CE97B7681200000E0E01E16F3C
:101F7000000EE26F000EE36F000EE46F000EE56FDF
:101F8000000EE66F1200216E45C022F087942150AA
:101F90008009E9EC8EF0878422C045F012001E50C3
:101FA000030B7F6E1DC07EFF3F0E8116818000F007
:101FB00000F080501200600E0E01D86F000EDA6F34
:101FC000000EDC6F040EDE6F000EDD6F1200080ED7
:101FD0009F6ED00E9D6EEC0E9E6E380E9B6E010EA7
:101FE0009C6E1200300E04D02450BEEC8BF02428DE
:101FF000246E7F0E2464F8D71200080E9F6ED00E58
:102000009D6EEC0E9E6E380E9B6E010E9C6E120045
:10201000900E0F01396F000E3A6F000E3B6F050EE8
:102020003C6F12000E01CDABFDD79DA202D09D9852
:102030009D8899501200000E0F01346F3DCF1DF0A6
:1020400037C034FF1D5012001E6E1E502BEC90F056
:1020500059EC90F012001D6E0E01CDA9FDD71DC0E8
:102060009AFF12000F013DA102D0010E1200000ED6
:102070001200878000D000F0879000D000F012009E
:10208000800E0F01336F1C0E346F12001D6E1DC0C9
:1020900034FF1200879000D000F01200878000D03B
:1020A00000F01200F28A0E01BA8912009FBC1200E1
:1020B000FDD79EB21200FDD70E01CA99120085808D
:0820C00012001200120003FFE0
:020000040020DA
:10000000FF0FFF0FFF0FFF0FFF0FFF0FFF0FFF0F80
:020000040030CA
:0C0000008CFFFFF79FFFFFFFFFFFFFFFDB
:00000001FF
