:0400000055EF00F0C8
:100008004F82FACF0BF0FBCF0CF0E9CF0DF0EACF1F
:100018000EF0E1CF0FF0E2CF10F0D9CF11F0DACF28
:1000280012F0F3CF13F0F4CF14F0F6CF15F0F7CFAA
:1000380016F0F8CF17F0F5CF18F04FC019F050C0F0
:100048001AF051C01BF052C01CF00E01C2B9CAA967
:1000580002D046EC96F01CC052F01BC051F01AC0FA
:1000680050F019C04FF018C0F5FF17C0F8FF16C0C0
:10007800F7FF15C0F6FF14C0F4FF13C0F3FF12C05A
:10008800DAFF11C0D9FF10C0E2FF0FC0E1FF0EC0B8
:10009800EAFF0DC0E9FF0CC0FBFF0BC0FAFF4F924F
:0600A80011000FEF92F0C1
:10FA7400005075736820427574746F6E20746F2023
:10FA84004C696E6B205075736820616761696E20E4
:10FA9400746F20556E6C696E6B5075736820536576
:10FAA400727669636520746F20457869740020500C
:10FAB40072657373204368616E6E656C2056656E63
:10FAC4006420427574746F6E206F72205072657377
:10FAD40073202020202020205365727669636520DE
:10FAE400746F204578697400486F6C6420636861A2
:10FAF4006E6E656C20627574746F6E206F72205028
:10FB0400757368207365727669636520746F20204D
:10FB140065786974005075736820627574746F6ECB
:10FB2400203120746F20636C656172206372656498
:10FB3400697473202020616E6420657869740050B4
:10FB4400726573732031203D202B206F7220322088
:10FB54003D202D20205072657373203820746F204F
:10FB64004578697400205075736820627574746FE9
:10FB74006E20746F202020202076656E6400507201
:10FB8400657373207365727669636520746F20658D
:10FB9400786974002020496E697469616C697A65BA
:10FBA40020486F7070657200202053657475702052
:10FBB40053656E736F72002020496E7365727420F2
:10FBC4004E6F74650020204175646974204D6F6424
:10FBD4006500507269636520520045786974002F8E
:10FBE400002E002D002C002B002A002900280027BD
:10FBF4000026002500240023002200210020001FED
:10FC0400001E001D001C001A001900180017000F28
:10FC1400000C00040002000000461E230FBAE1FAA3
:10FC2400FEFDF2DBDAECACA8A7A6A4A30101030C49
:10FC34000B0A090807060504030201333635343379
:10FC440032313054144000181B080705040602A87A
:10FC5400010C2C282431203D204175646974203224
:10FC6400203D2053656E736F72333D486F702D4392
:10FC74006F696E20343D4E6F74652D656E353D435E
:10FC84007265642D636C7220363D507269636573CE
:10FC940020373D56656E6420736574757020383D59
:10FCA4004578697400456E61626C65202F20446953
:10FCB4007361626C652020202031203D2052313058
:10FCC4002C2032203D205232302020202033203D71
:10FCD400205235302C2034203D2052313030202029
:10FCE4002035203D20523230300050757368203169
:10FCF4002056656E642054696D652C2020203220C6
:10FD04004368616E4C696E6B20332053656E734F8C
:10FD140066663420436C72546F74203520466163E8
:10FD24005265736574203820657869740050726573
:10FD34007373206368616E6E656C20627574746F92
:10FD44006E20202020746F207365742070726963A4
:10FD54006520202020202053657276696365203D4C
:10FD64002045786974005072657373206368616E0E
:10FD74006E656C20627574746F6E20202020746F21
:10FD8400206C696E6B20746F202020202020536526
:10FD94007276696365203D204578697400486F7008
:10FDA40070657220436F696E20202020202020205F
:10FDB40020427574746F6E2031203D202B20262044
:10FDC40032203D202D2056616C7565203D20520067
:10FDD400507573682031203D202B2E3520736563C8
:10FDE4006F6E6420507573682032203D202D2E35AF
:10FDF400207365636F6E64200050757368206368B8
:10FE0400616E6E656C20627574746F6E20507573CC
:10FE140068207365727669636520746F20657869FC
:10FE24007400496E73657274204E6F746573202676
:10FE34002050726573734C697420427574746F6ECC
:10FE440020546F2056656E64002020202020496EC7
:10FE5400697469616C697A65202020202020202043
:10FE640020204E6F746520526561646572004E6F88
:10FE7400204368616E67652055736520457861632A
:10FE840074202020202020416D6F756E7421005253
:10FE94006573657420746F2044656661756C7420A5
:10FEA400202020537461727420416761696E005090
:10FEB4007573682031203D204F6E2C2032203D2068
:10FEC4004F66662C2038203D204578697400202038
:10FED400204E6F7465206572726F7220202020207E
:10FEE400636F6465203D203078005573652062752A
:10FEF40074746F6E202F20536572766963650020D9
:10FF040020202020202020202020202020202020ED
:10FF14002020200054696D6520696E20312F3273D2
:10FF24006563203D200020202050726963652073A2
:10FF34006574206D6F646500437265646974732031
:10FF4400436C65617265640053656E7369746976A8
:10FF540069747920002020437265646974203D200F
:10FF640052002020204368616E6E656C20006C692D
:10FF74006E6B656420746F203A0053656E736F7204
:10FF840020697320004361736820696E2052002049
:10FF94002020202020202020002064697361626CCE
:10FFA40065640020656E61626C6564200020202019
:10FFB4005231302020004E6F2053746F636B005415
:10FFC4006F74616C205200202052323030200020A7
:10FFD40020523130302000202052353020200020A3
:10FFE4002052323020200056656E647320004F6624
:0CFFF40066004F6E2000415445300000B4
:020000040001F9
:10000000010E0F01346F190EF66EFC0EF76E000E26
:10001000F86E0900F5CF1FF00A00F5CF20F04B0E67
:10002000216E000E226E020E236E11EC94F0150E5E
:10003000F66EFC0EF76E000EF86E0900F5CF1FF09D
:100040000A00F5CF20F0480E216E000E226E030E3E
:10005000236E11EC94F0890E246EFF0E256E4A0E6D
:10006000F66EFC0EF76E000EF86E0800F5CF26F067
:1000700078EC8AF04BC027F04CC028F0296AC3EC1A
:1000800089F0C30E246EFF0E256E490EF66EFC0E2F
:10009000F76E000EF86E0800F5CF26F078EC8AF0C7
:1000A00048C027F049C028F04AC029F0C3EC89F0C5
:1000B000EE0E246EFE0E256E480EF66EFC0EF76EEA
:1000C000000EF86E0800F5CF26F078EC8AF02F8647
:1000D00071D0EAEC91F0386E3850D8B454D0EAECD4
:1000E00091F0386E030E246EFF0E256E470EF66EED
:1000F000FC0EF76E000EF86E0800F5CF26F078ECD7
:100100008AF038503EEC95F0306E170EF66EFC0E0D
:10011000F76E000EF86E0900F5CF2AF00900F5CF52
:100120002BF030502A241D6E000E2B201E6E80EC0A
:1001300095F02C6EEB0E246EFF0E256E470EF66EBC
:10014000FC0EF76E000EF86E0800F5CF26F078EC86
:100150008AF02C50276E286A296AC3EC89F0EAECF1
:1001600091F00009D8A4FBD7030E246EFF0E256E74
:10017000470EF66EFC0EF76E000EF86E0800F5CF17
:1001800026F078EC8AF00EEC96F00009D8A412D094
:1001900036C034FF2F96590E246EFC0E256E4A0E83
:1001A000F66EFC0EF76E000EF86E0800F5CF26F026
:1001B00078EC8AF02FA612008CD7000E306E0EEC71
:1001C00095F0396E3350395CD8B002D0000E120071
:1001D0003450395CD8B02FB803D022EC96F02F8879
:1001E000000E326E070E0001B96F13D0B951010D28
:1001F0007F0EF324D96E000EF420DA6EDE50395CE7
:10020000D8A003D032500109326E32503224326EFF
:10021000B907B951D8A4EAD77F51395CD8A003D027
:1002200032500109326E3150FF0A3214326E2D9273
:10023000858432500F0B846E3250F00B866EEAECE0
:1002400091F0386E385031140009D8B414D02FB45E
:1002500010D0BA0E246EFF0E256E4A0EF66EFC0EFE
:10026000F76E000EF86E0800F5CF26F078EC8AF0F5
:100270002F84000E120038503214386E3850D8B423
:1002800056D038503EEC95F0306E3050010D7F0E58
:10029000F324D96E000EF420DA6EDF50376E30C0D2
:1002A000B6F038C0B7F0030E306404D0800E386E5C
:1002B000070E306E305077EC91F0B6C030F0B7C01A
:1002C00038F0070EF66EFC0EF76E000EF86E0900A1
:1002D000F5CFB4F00900F5CFB5F030500001B425EA
:1002E0001D6E000EB5211E6E80EC95F00001B86FFA
:1002F000B851D8A42DB207D0B8513EEC95F0306E6D
:10030000305077EC91F03750D0EC90F02F980EEC05
:1003100095F0396E3950D8A42DB605D02DB203D042
:100320003950FBEC90F0839A8584010E12002F94D3
:100330002D88000E12006CEC93F0D2EC8AF0BFEC2A
:1003400094F0EEEC86F000F0010E0F01346F0EEC2D
:1003500096F00009D8B42D8E36C034FF2DBE28EC9F
:100360008BF02DA413D0260E246EFE0E256E4A0EA1
:10037000F66EFC0EF76E000EF86E0800F5CF26F054
:1003800078EC8AF02D942DB62BEC94F02DBA2D9AA2
:100390002DA805D045EC94F02DB62BEC94F00E0171
:1003A000CEA52BD04BEC82F03A6E3A50D8B422D086
:1003B0003FB20DD01AD050EC8FF003D03FA850ECD4
:1003C0008FF0000E3A6E19D091EC94F016D03A509E
:1003D000060AD8B4F0D70F0AD8B4F0D7050AD8B4B3
:1003E000F0D71C0AD8B4EDD7EFD73A5076EC90F09E
:1003F0002D8003D03FB291EC94F02DA007D0DDEC1E
:1004000080F00009D8B49FD7FF009DD7EAEC91F0A7
:100410000009D8B43BD0EAEC91F0386E3150FF0AB5
:1004200038140009D8B42FB410D0BA0E246EFF0EC1
:10043000256E4A0EF66EFC0EF76E000EF86E080082
:10044000F5CF26F078EC8AF02F842FB47CD7385083
:100450003EEC95F00001C46F130EF66EFC0EF76EC5
:10046000000EF86E0900F5CFC2F00900F5CFC3F019
:10047000C451C2251D6E000EC3211E6E80EC95F086
:10048000376E3750B5EC92F02F845DD72FA45BD731
:100490002F942D8458D7DBEC93F0000E246E430E7E
:1004A000F66EFC0EF76E000EF86E0800F55003ECC9
:1004B00085F0276E60C041F0000160AF50D0605100
:1004C0007F0B416E19D00A0E3A6E3A501200140E8C
:1004D0003A6E3A501200320E3A6E3A501200640EE2
:1004E0003A6E3A501200C80E3A6E3A501200100E90
:1004F0003A6E3F823A5012004150000AD8B4E3D716
:10050000010AD8B4E4D7030AD8B4E5D7010AD8B4AD
:10051000E6D7070AD8B4E7D7EAD7000E3A6E3A50C2
:100520001200010E1AD0020E18D0000E3A6E3F9241
:100530003A501200040E11D0050E0FD0060E0DD049
:10054000070E0BD0080E09D0090E07D00A0E05D0F1
:100550000B0E03D00C0E01D0000E3A6E2AD0000113
:100560006051000AD8B4D9D7010AD8B4DAD7030A3F
:10057000D8B4D9D7010AD8B4D8D7070AD8B4DAD7AB
:10058000010AD8B4D9D7030AD8B4D8D7010AD8B445
:10059000D7D70F0AD8B4D6D7010AD8B4D5D7030A0B
:1005A000D8B4D4D7010AD8B4D3D7070AD8B4D2D78D
:1005B000D3D73F823A5012000001C16F2E88D40E6B
:1005C000246EFD0E256E4A0EF66EFC0EF76E000EC2
:1005D000F86E0800F5CF26F078EC8AF0F50EF66E8E
:1005E000FB0EF76E000EF86E0900F5CFBEF00900A5
:1005F000F5CFBFF00001C151BE251D6E000EBF2119
:100600001E6E80EC95F00001C06FC1C02AF0C05191
:100610000EEC8CF05DD0D5EC92F0386E4FD000012E
:10062000C02BF50EF66EFB0EF76E000EF86E09008D
:10063000F5CFBEF00900F5CFBFF0C151BE251D6E4C
:10064000000EBF211E6EC0C01FF04FEC93F0C1C062
:100650002AF00001C0510EEC8CF03AD00001C00726
:10066000F50EF66EFB0EF76E000EF86E0900F5CF74
:10067000BEF00900F5CFBFF0C151BE251D6E000EC2
:10068000BF211E6EC0C01FF04FEC93F0C1C02AF016
:100690000001C0510EEC8CF01BD02E98FD0E246E84
:1006A000FD0E256E4A0EF66EFC0EF76E000EF86E0D
:1006B0000800F5CF26F078EC8AF00AD03850010A0D
:1006C000D8B4ADD7030AD8B4C9D7820AD8B4E5D70D
:1006D0002EA81200A0D70001BE6F2E820001BE51CD
:1006E0003EEC95F00001BF6F130EF66EFC0EF76E38
:1006F000000EF86E0900F5CF2BF00900F5CF2CF0B5
:10070000BF512B241D6E000E2C201E6E80EC95F028
:10071000376E3750B5EC92F067D0D5EC92F000010F
:10072000BE6F57D0372A130EF66EFC0EF76E000E12
:10073000F86E0900F5CF2BF00900F5CF2CF0BF5172
:100740002B241D6E000E2C201E6E37C01FF04FECA8
:1007500093F03750B5EC92F047D03706130EF66E93
:10076000FC0EF76E000EF86E0900F5CF2BF00900B5
:10077000F5CF2CF00001BF512B241D6E000E2C2054
:100780001E6E37C01FF04FEC93F03750B5EC92F06F
:100790002BD02E922A0E246EFF0E256E4A0EF66E78
:1007A000FC0EF76E000EF86E0800F5CF26F078EC20
:1007B0008AF0310E246EFD0E256E490EF66EFC0E8B
:1007C000F76E000EF86E0800F5CF26F078EC8AF090
:1007D0000BD00001BE51010AD8B4A4D7030AD8B483
:1007E000BCD7820AD8B4D5D72EA2120096D72E84B1
:1007F000EE0E246EFC0E256E4A0EF66EFC0EF76EA3
:10080000000EF86E0800F5CF26F078EC8AF075D06F
:10081000D5EC92F0386E5ED09EEC91F0EE0E246E28
:10082000FC0E256E4A0EF66EFC0EF76E000EF86E8C
:100830000800F5CF26F078EC8AF05FD0B7EC8FF0A7
:10084000EE0E246EFC0E256E4A0EF66EFC0EF76E52
:10085000000EF86E0800F5CF26F078EC8AF04DD047
:100860002FEC8EF0EE0E246EFC0E256E4A0EF66E08
:10087000FC0EF76E000EF86E0800F5CF26F078EC4F
:100880008AF03BD0F5EC92F038D075EC86F0EE0EA5
:10089000246EFC0E256E4A0EF66EFC0EF76E000EF0
:1008A000F86E0800F5CF26F078EC8AF026D02E946A
:1008B00066EC89F0590E246EFC0E256E4A0EF66E1B
:1008C000FC0EF76E000EF86E0800F5CF26F078ECFF
:1008D0008AF013D03850010AD8B49ED7030AD8B48E
:1008E000ADD7060AD8B4BCD70C0AD8B4CBD7180AEF
:1008F000D8B4CBD7900AD8B4DAD72EA4120088D7B0
:10090000266E26C024F0243A0F0E24160A0E246008
:100910001ED026380F0B300984EC8FF033D0410EF7
:1009200084EC8FF02FD0420E84EC8FF02BD0430E4E
:1009300084EC8FF027D0440E84EC8FF023D0450E4A
:1009400084EC8FF01FD0460E84EC8FF01BD026383D
:100950000F0B246E256A2550000AD8A413D024500A
:100960000A0AD8B4DCD7010AD8B4DDD7070AD8B44C
:10097000DED7010AD8B4DFD7030AD8B4E0D7010A1A
:10098000D8B4E1D726C024F00F0E24160A0E246036
:100990001ED026500F0B300984EC8FF01200410E50
:1009A00084EC8FF01200420E84EC8FF01200430EA4
:1009B00084EC8FF01200440E84EC8FF01200450E90
:1009C00084EC8FF01200460E84EC8FF0120026505B
:1009D0000F0B246E256A2550000AD8A4120024505B
:1009E0000A0AD8B4DCD7010AD8B4DDD7070AD8B4CC
:1009F000DED7010AD8B4DFD7030AD8B4E0D7010A9A
:100A0000D8A41200E0D7256E000E266E9E804DEC15
:100A100096F02550EBEC95F09E9025C040F02450C8
:100A2000D8B41ED02428266E18D02450010D600E94
:100A3000F324D96E000EF420DA6EDF50EBEC95F063
:100A40002450010D600EF324D96E000EF420DA6EEE
:100A5000DF504024406E260624062650D8A4E5D751
:100A60004050EBEC95F0FF0ED5EC94F0F6EC93F0E3
:100A7000000E0001A56F000EA46F3F90000E266EC1
:100A80001FD00001A44BA52B3F9015D02650010D7F
:100A9000600EF324D96E000EF420DA6ED9EC95F0D6
:100AA000DF6E40EC96F09DA002D03F8001D03F90D9
:100AB000F6EC93F0262A0E01CDAB02D03FA0E6D78C
:100AC0000E01CEB102D03FA0DCD72606CEA102D0C7
:100AD0003F8601D03F963FA011D02650010D600EF9
:100AE000F324D96E000EF420DA6EDF50D8B406D0AD
:100AF0009E804DEC96F0000EEBEC95F04DEC96F0F0
:100B0000265012000001B26F38C0B3F02E8EF70EDF
:100B1000F66EFB0EF76E000EF86E0900F5CF1DF0B5
:100B20000A00F5CF1EF080EC95F00001B46FB2C062
:100B300029F0B3C02AF0B4511EEC8AF05AD0D5EC9B
:100B400092F0386E4CD00001B351FF0AB415B46F67
:100B5000F70EF66EFB0EF76E000EF86E0900F5CF7D
:100B60001DF00A00F5CF1EF0B4C01FF04FEC93F05B
:100B7000B2C029F0B3C02AF00001B4511EEC8AF0D3
:100B800038D00001B451B311B46FF70EF66EFB0EFE
:100B9000F76E000EF86E0900F5CF1DF00A00F5CFD4
:100BA0001EF0B4C01FF04FEC93F0B2C029F0B3C0F8
:100BB0002AF00001B4511EEC8AF01BD02E9EFD0ECF
:100BC000246EFD0E256E4A0EF66EFC0EF76E000EBC
:100BD000F86E0800F5CF26F078EC8AF00AD038508D
:100BE000010AD8B4B0D7030AD8B4CBD7820AD8B494
:100BF000E5D72EAE1200A3D7A90E246EFC0E256EEB
:100C00004A0EF66EFC0EF76E000EF86E0800F5CF79
:100C100026F078EC8AF03F8A3F8C64D0D5EC92F0D5
:100C2000386E38C04DF048D0B10E296EFF0E2A6ED6
:100C300089EC93F0436E010E6DEC8EF050D0E30E14
:100C4000296EFF0E2A6E89EC93F0436E020E6DEC56
:100C50008EF045D0DB0E296EFF0E2A6E89EC93F0E4
:100C6000436E040E6DEC8EF03AD0D30E296EFF0E5B
:100C70002A6E89EC93F0436E080E6DEC8EF02FD047
:100C8000CB0E296EFF0E2A6E89EC93F0436E100E88
:100C90006DEC8EF024D0590E246EFC0E256E4A0E9B
:100CA000F66EFC0EF76E000EF86E0800F5CF26F01B
:100CB00078EC8AF03F9A13D03850010AD8B4B4D7F0
:100CC000030AD8B4BCD7060AD8B4C4D70C0AD8B41F
:100CD000CCD7180AD8B4D4D7900AD8B4DCD73DC042
:100CE0003EF000F03FAA120099D7930E246EFE0E3C
:100CF000256E4A0EF66EFC0EF76E000EF86E0800BA
:100D0000F5CF26F078EC8AF0070EF66EFC0EF76E43
:100D1000000EF86E0900F5CFB2F00A00F5CFB3F07F
:100D20000BD0B2C01DF0B3C01EF0000E1F6E4FEC12
:100D300093F00001B24BB32BF50EF66EFB0EF76E7F
:100D4000000EF86E0900F5500001B25D0900F55083
:100D5000B359D8A0E6D7F50EF66EFB0EF76E000E6F
:100D6000F86E0900F5CFB4F00A00F5CFB5F00BD05E
:100D7000B4C01DF0B5C01EF0080E1F6E4FEC93F00E
:100D80000001B44BB52BE50EF66EFB0EF76E000EB0
:100D9000F86E0900F550B45D0900F550B559D8A0BA
:100DA000E7D7F70EF66EFB0EF76E000EF86E090031
:100DB000F5CF1DF00A00F5CF1EF0050E1F6E4FECAB
:100DC00093F01F0E2A6E710E296E1E0EE82EFED7AE
:100DD000292EFCD72A2EFAD700D01200110EF66E5B
:100DE000FC0EF76E000EF86E0900F5CF1DF00A003C
:100DF000F5CF1EF080EC95F00001A76F2F98E30E61
:100E0000F66EFB0EF76E000EF86E0900F5CF1DF0C2
:100E10000A00F5CF1EF080EC95F00009D8B402D09E
:100E20002D8601D02D9666EC89F095EC92F075EC4C
:100E300092F00D0EF66EFC0EF76E000EF86E0900C5
:100E4000F5CF1DF00A00F5CF1EF080EC95F0366E60
:100E500036502CEC96F0110EF66EFC0EF76E000E6E
:100E6000F86E0900F5CF1DF00A00F5CF1EF080ECFA
:100E700095F0316E4D0E246EFE0E256E4A0EF66E06
:100E8000FC0EF76E000EF86E0800F5CF26F078EC39
:100E90008AF050EC8FF02F942D9E2D8A0EEC95F059
:100EA0000009D8A404D02D902D842D9803D02D8036
:100EB0002D942D883F92839A858412000001B56F8E
:100EC0002F8038C0B4F0070EF66EFC0EF76E000EE1
:100ED000F86E0900F5CFB2F00900F5CFB3F00001CC
:100EE000B551B2251D6E000EB3211E6E80EC95F03B
:100EF0000001B66FB6C029F0B5519DEC8CF047D01B
:100F0000D5EC92F0386E3850D8B43CD03850D8B4C4
:100F100008D00001B651D8B404D03850FF0AB61535
:100F200003D00001B6513810B66F070EF66EFC0EF6
:100F3000F76E000EF86E0900F5CFB2F00900F5CF9C
:100F4000B3F0B551B2251D6E000EB3211E6EB6C0B2
:100F50001FF04FEC93F0B6C029F00001B5519DECA5
:100F60008CF010D02F906A0E246EFD0E256E4A0E66
:100F7000F66EFC0EF76E000EF86E0800F5CF26F048
:100F800078EC8AF068EC95F00009D8B4EBD72FA084
:100F90001200B6D73F8C7E0E246EFF0E256E4A0ED1
:100FA000F66EFC0EF76E000EF86E0800F5CF26F018
:100FB00078EC8AF04750020F356E4C0E246EFF0E0F
:100FC000256E490EF66EFC0EF76E000EF86E0800E8
:100FD000F5CF26F078EC8AF04750020F2C6E2CC02B
:100FE0002AF03550AAEC8EF03DD0D5EC92F0386E58
:100FF00027D036501F0B0F01346F362A2CC02AF031
:101000003550AAEC8EF026D036501F0B0F01346FEE
:1010100036062CC02AF03550AAEC8EF01BD03F9C2F
:10102000590E246EFC0E256E4A0EF66EFC0EF76EFF
:10103000000EF86E0800F5CF26F078EC8AF00AD0A2
:101040003850010AD8B4D5D7030AD8B4DDD7820AFC
:10105000D8B4E5D70E01CEA505D02CC02AF0355066
:10106000AAEC8EF03FAC1200C0D7A10E246EFD0E8C
:10107000256E4A0EF66EFC0EF76E000EF86E080036
:10108000F5CF26F078EC8AF03F8C4750020F356E92
:10109000090EF66EFC0EF76E000EF86E0900F5CF25
:1010A0001DF00A00F5CF1EF080EC95F02C6E355047
:1010B00074EC95F02C50276E286A296AC3EC89F0ED
:1010C0003CD0D5EC92F0386E1FD0010E2A6E2C5019
:1010D000ACEC8DF023D0020E2A6E2C50ACEC8DF0CF
:1010E0001DD03F9C590E246EFC0E256E4A0EF66EE6
:1010F000FC0EF76E000EF86E0800F5CF26F078ECC7
:101100008AF0000E386E0AD03850010AD8B4DDD704
:10111000030AD8B4E0D7820AD8B4E3D7090EF66E32
:10112000FC0EF76E000EF86E0900F5CF1DF00A00F8
:10113000F5CF1EF080EC95F02C6E3FAC1200C1D7BD
:10114000C30E1F6ECD0EE82EFED71F2EFCD700F06B
:10115000000E876E000E866EC00E836E000E846ECB
:10116000010E856E000E8C6E1F0E886ED00E896E7D
:10117000800E8A6E000E8B6E000E0F01216FC00E66
:10118000196F000E266F000E2E6F010E116F000EEC
:10119000256F000E2D6F000E186F000E106F000EE1
:1011A000206F000E2C6F000E0F6F000E176F000ED9
:1011B0001F6F000E246F010E856E800E8A6E000E6A
:1011C000216F000E206F000E1F6F550E0E01A06FD5
:1011D000AA0EA06FA091B591B593B595B597B599A5
:1011E000000EFD6F000EF46F8D918D938D958D9790
:1011F0008D99CFEC95F0DBEC93F01CEC96F0C0EC05
:1012000093F0F6EC93F01200276E190EF66EFC0EBA
:10121000F76E000EF86E0900F5CF1FF00A00F5CF4B
:1012200020F04B0E216E000E226E020E236E11EC8A
:1012300094F0150EF66EFC0EF76E000EF86E0900B7
:10124000F5CF1FF00A00F5CF20F0480E216E000EFA
:10125000226E030E236E11EC94F027504B244B6E3C
:10126000000E4C204C6E27504824486E000E49203A
:10127000496E000E4A204A6E190EF66EFC0EF76E8D
:10128000000EF86E0900F5CF21F00A00F5CF22F02C
:101290004B0E236E000E246E020E256EA5EC93F00D
:1012A000150EF66EFC0EF76E000EF86E0900F5CF07
:1012B00021F00A00F5CF22F0480E236E000E246EB6
:1012C000030E256EA5EC93F000F01200F70EF66EFB
:1012D000FB0EF76E000EF86E0900F5CF1DF00A0048
:1012E000F5CF1EF080EC95F00001A86F070EF66EAA
:1012F000FC0EF76E000EF86E0900F5CF21F00A0023
:10130000F5CF22F0030E236E000E246E000E256E24
:1013100012D02550010DF3502324D96EF45024200F
:10132000DA6E255021241D6E000E22201E6E80ECE8
:1013300095F0DF6E252A070E2564EBD7000E256E8B
:101340001ED02550010D7F0EF324D96E000EF4201F
:10135000DA6E130EF66EFC0EF76E000EF86E0900D4
:10136000F5CF1FF00900F5CF20F025501F241D6E8A
:10137000000E20201E6E80EC95F0DF6E252A070EF1
:101380002564DFD71200000E0001BD6F27C0BAF040
:1013900028C0BBF029C0BCF02FD0BD51010DB20E4A
:1013A000F324D96E000EF420DA6E27C01DF028C099
:1013B0001EF029C01FF00A0E206E000E216E000ED6
:1013C000226E25EC91F01D50DF6E27C01DF028C065
:1013D0001EF029C01FF00A0E206E000E216E000EB6
:1013E000226E1BEC8FF01DC027F01EC028F01FC01E
:1013F00029F00001BD29BD6F275028102910D8B44D
:101400000ED0CBD7BD07BD51010DB20EF324D96E5E
:10141000000EF420DA6EDF50300984EC8FF000010A
:10142000BD51800A7F0FD8B0EDD7BA51BB11BC11A6
:10143000D8A41200300E84EC8FF012002B6E660ED2
:10144000246EFF0E256E4A0EF66EFC0EF76E000E31
:10145000F86E0800F5CF26F078EC8AF0292A29509A
:10146000300984EC8FF07E0E246EFF0E256E490E3F
:10147000F66EFC0EF76E000EF86E0800F5CF26F043
:1014800078EC8AF0B30E246EFE0E256E480EF66ED2
:10149000FC0EF76E000EF86E0800F5CF26F078EC23
:1014A0008AF02B502A140009D8B411D09D0E246E56
:1014B000FF0E256E490EF66EFC0EF76E000EF86EEE
:1014C0000800F5500A0F266E78EC8AF01200A70E7D
:1014D000246EFF0E256E490EF66EFC0EF76E000EA2
:1014E000F86E0800F5500A0F266E78EC8AF01200AC
:1014F0004A0EF66EFC0EF76E000EF86E0800F55000
:1015000026620BD0540EF66EFC0EF76E000EF86ECF
:101510000800F55078EC94F004D02650800974EC63
:1015200095F0000E456E28D04550010D24C027F0DF
:1015300025C028F0F3502726F450282227C0F6FFB4
:1015400028C0F7FF000EF86E0800F5CF46F04550B2
:10155000010D24C027F025C028F0F3502726F450B1
:10156000282227C0F6FF28C0F7FF000EF86E0800FB
:10157000F55084EC8FF0452A4550010D24C027F02A
:1015800025C028F0F3502726F450282227C0F6FF64
:1015900028C0F7FF000EF86E0800F5500009D8B417
:1015A0001200C2D7000E876E030E866E030E000176
:1015B000CD6FCD51800A7F0FD8A00CD015EC96F0DE
:1015C000140E256E7A0EE82EFED7252EFCD70001CC
:1015D000CD07EFD7320EE82EFED7020E866E15EC41
:1015E00096F0560EF66EFC0EF76E000EF86E0800C2
:1015F000F55078EC94F0550EF66EFC0EF76E000E7A
:10160000F86E0800F55078EC94F0510EF66EFC0E72
:10161000F76E000EF86E0800F55078EC94F0540E5A
:10162000F66EFC0EF76E000EF86E0800F55078ECC2
:1016300094F0AFEC95F0040E266ECF0E256E020EE0
:10164000E82EFED7252EFCD7262EFAD700F0120062
:10165000A0EC88F0590E246EFC0E256E4A0EF66E34
:10166000FC0EF76E000EF86E0800F5CF26F078EC51
:101670008AF03CD0D5EC92F0386E1CD000EC80F0B3
:1016800035D0CAEC87F032D035EC88F02FD0FCECA6
:1016900085F02CD079EC8BF02D9EFF00EFEC8DF0D7
:1016A00025D0F7EC83F022D02D9EFF001FD0C5EC93
:1016B00095F01CD03850010AD8B4E0D7030AD8B44A
:1016C000E0D7010AD8B4F3D7070AD8B4DDD70C0A9B
:1016D000D8B4DDD7180AD8B4DDD7300AD8B4DED7ED
:1016E000600AD8B4DED7C00AD8B4DED72DAE120057
:1016F000C1D71B0EF66EFC0EF76E000EF86E0900D9
:10170000F5CF1DF00A00F5CF1EF0000E1F6E4FEC56
:1017100093F0110EF66EFC0EF76E000EF86E0900D7
:10172000F5CF1DF00A00F5CF1EF0000E1F6E4FEC36
:1017300093F0E30EF66EFB0EF76E000EF86E0900E6
:10174000F5CF1DF00A00F5CF1EF0000E1F6E4FEC16
:1017500093F03C0E246EFF0E256E4A0EF66EFC0EC4
:10176000F76E000EF86E0800F5CF26F078EC8AF0E0
:10177000100E2A6E390E296E0E0EE82EFED7292E77
:10178000FCD72A2EFAD71200256EF50EF66EFB0E48
:10179000F76E000EF86E0900F5CF23F00900F5CFC3
:1017A00024F0255023241D6E000E24201E6E80EC94
:1017B00095F0266E49EC96F00E01CA9B210EF66E4E
:1017C000FC0EF76E000EF86E0900F5CF27F00A0048
:1017D000F5CF28F026C01DF01E6A1F0EF66EFC0E17
:1017E000F76E000EF86E0900F5CF1FF00A00F5CF76
:1017F00020F0EAEC94F01D1E1E1E1D4A1E2A2750E2
:101800001D24276E28501E20286E27C01DF028C0DA
:101810001EF027EC96F04BEC96F012002B6E030EA8
:10182000246EFF0E256E480EF66EFC0EF76E000E4F
:10183000F86E0800F5CF26F078EC8AF0030E246EDF
:10184000FF0E256E470EF66EFC0EF76E000EF86E5C
:101850000800F5CF26F078EC8AF0660E246EFF0EB5
:10186000256E480EF66EFC0EF76E000EF86E080040
:10187000F5CF26F078EC8AF02A50300984EC8FF00E
:101880002A2A180E246EFF0E256E470EF66EFC0EE9
:10189000F76E000EF86E0800F5CF26F078EC8AF0AF
:1018A0002B50276E286A296AC3EC89F01200030EB8
:1018B0000001CE6F4FEC91F00009D8B411D02FEC9D
:1018C00095F04FEC91F00009D8B403D00E01CEA3EF
:1018D000F8D70E01CEA302D0010E1200000E1200A6
:1018E00051EC96F04CEC95F00CD00E01CEA709D03F
:1018F00014EC93F00009D8B404D053EC96F0010E28
:1019000012004FEC91F00009D8B4EFD753EC96F0E9
:101910002FEC95F051EC96F04FEC91F00009D8B413
:1019200003D00E01CEA3F8D753EC96F00E01CEA350
:1019300002D0010E1200000E12002A6E660E246EF6
:10194000FF0E256E4A0EF66EFC0EF76E000EF86E58
:101950000800F5CF26F078EC8AF02A2A2A503009C0
:1019600084EC8FF0010E2B6E720E246EFF0E256E2E
:10197000490EF66EFC0EF76E000EF86E0800F5CFFD
:1019800026F078EC8AF0480EF66EFC0EF76E000E2C
:10199000F86E0800F55074EC95F010D029A00AD02C
:1019A0002B50300984EC8FF02C0E84EC8FF0200E3D
:1019B00084EC8FF02B2AD8902930296E080E2B64E6
:1019C000EDD71200000E876E000E866EC00E836E7D
:1019D000000E846E400E856E000E8C6E1F0E886E9B
:1019E000D00E896E900E8A6E000E8B6E000E0F0167
:1019F000216FC00E196F000E266F000E2E6F010EA4
:101A0000116F000E256F000E2D6F000E186F000E67
:101A1000106F000E206F000E2C6F000E0F6F200E47
:101A2000176F080E1F6F000E246F0E01C289B5815B
:101A3000B583B585B597B589090EFD6F0B0EF46FAB
:101A40008D918D938D858D878D9912003F860DD058
:101A5000000E246E460EF66EFC0EF76E000EF86E4B
:101A60000800F55003EC85F0286E3FB6F1D700F082
:101A7000000E246E430EF66EFC0EF76E000EF86E2E
:101A80000800F55003EC85F0296E29062950010D58
:101A9000600EF324D96E000EF420DA6EDF50276E4C
:101AA000390EF66EFC0EF76E000EF86E0800F5505B
:101AB0002718D8A41200000E246E430EF66EFC0EFA
:101AC000F76E000EF86E0800F55003EC85F0296EF5
:101AD00012002B6EA0EC88F0000E846E000E866E55
:101AE000838A8594010E326E2BC029F032C02AF011
:101AF000292A02D0D8902A36292EFCD72A50326EB5
:101B00002B50C4EC8BF006D032500F0B846E325049
:101B1000F00B866E0F013DB103D00E01CAABF4D7B6
:101B2000000E846E000E866E49EC96F00E01CAAB74
:101B300012002B50C4EC8BF00F013DB103D00E010D
:101B4000CAABFAD70E01CAAB12002D822B50E8ECBB
:101B50008FF0000E376E12002B6E14D02A04D8A41A
:101B600005D02B2A1AD02A04D8A402D0050E06D0FC
:101B70002B0613D02A04D8A403D0010E2B6E0DD04F
:101B8000020EFCD72B50010AD8B4E8D7030AD8B408
:101B9000EAD7070AD8B4EED7F3D7930E246EFF0E18
:101BA000256E35C026F078EC8AF0090EF66EFC0E34
:101BB000F76E000EF86E0900F5CF1DF00A00F5CFA4
:101BC0001EF02BC01FF04FEC93F0355074EC95F0E5
:101BD0002B50276E286A296AC3EC89F012002E80E8
:101BE0002A0E246EFF0E256E4A0EF66EFC0EF76E60
:101BF000000EF86E0800F5CF26F078EC8AF0310E72
:101C0000246EFD0E256E490EF66EFC0EF76E000E6C
:101C1000F86E0800F5CF26F078EC8AF00ED0D5ECFF
:101C200092F0386E3850D8B403D038506BEC83F053
:101C300068EC95F00009D8B42E902EB0F0D7590E6C
:101C4000246EFC0E256E4A0EF66EFC0EF76E000E2C
:101C5000F86E0800F5CF26F078EC8AF01200040E3A
:101C60000001B66FCF0EB56F010EE82EFED7B52F6F
:101C7000FCD7B62FFAD700D0D5EC92F002D0D5EC35
:101C800092F0386E040E3818D8B4F9D72E8AFD0EAB
:101C9000246EFD0E256E4A0EF66EFC0EF76E000EDB
:101CA000F86E0800F5CF26F078EC8AF0D5EC92F0CB
:101CB000386E10D0D5EC92F0386E3850D8B405D0CC
:101CC00038503EEC95F082EC85F068EC95F0000918
:101CD000D8B42E9A2EAA1200EDD72B6E3F8C2B5023
:101CE0005FEC94F034D0D5EC92F0386E26D03D50B5
:101CF0002B103D6EFDEC94F02B505FEC94F027D050
:101D00002B50FF0A3D143D6EFDEC94F02B505FEC20
:101D100094F01DD03F9CA90E246EFC0E256E4A0E39
:101D2000F66EFC0EF76E000EF86E0800F5CF26F08A
:101D300078EC8AF0000E386E0AD03850010AD8B418
:101D4000D6D7030AD8B4DCD7820AD8B4E3D73FACDD
:101D50001200C9D72B6E0EEC96F00009D8B409D04A
:101D6000F20E246EFF0E256E2BC026F078EC8AF062
:101D700008D0F60E246EFF0E256E2BC026F078ECF0
:101D80008AF00D0EF66EFC0EF76E000EF86E09006E
:101D9000F5CF1DF00A00F5CF1EF036C01FF04FEC56
:101DA00093F0930E246EFF0E256E2AC026F078EC79
:101DB0008AF02A5074EC95F00F013451276E286A8E
:101DC000296AC3EC89F01200296E51EC96F0000EDE
:101DD0003B6E27D057EC8CF0286E284628462846C4
:101DE0002D502818F70B28182D6E2DA618D053EC5F
:101DF00096F03B5018EC90F02D86E30EF66EFB0E3D
:101E0000F76E000EF86E0900F5CF1DF00A00F5CF51
:101E10001EF0010E1F6E4FEC93F0295012003B2A6A
:101E200029062950D8A4D6D753EC96F03B5018EC8D
:101E300090F029501200000E236E000E246E000E4A
:101E4000256E205021102210D8B423D0010E266E0A
:101E500005D0D890203621362236262A22AEF9D750
:101E6000D89023362436253620501D5C21501E582C
:101E700022501F58D8A007D020501D5E21501E5A56
:101E800022501F5A2380D890223221322032262E0F
:101E9000E7D723C01DF024C01EF025C01FF012009C
:101EA000040E2B6ECF0E2A6E020EE82EFED72A2EBF
:101EB000FCD72B2EFAD70F0EF66EFC0EF76E000E27
:101EC000F86E0900F5CF1DF00A00F5CF1EF080EC8A
:101ED00095F03D6E3DC03EF0A4EC95F03F923F90F2
:101EE00026EC8DF033EC92F01FEC95F0000E246E92
:101EF000430EF66EFC0EF76E000EF86E0800F550FD
:101F000003EC85F02C6E1200236E8784235078EC4E
:101F100094F021D0490EF66EFC0EF76E000EF86EAE
:101F20000800F55074EC95F020D0480EF66EFC0ECB
:101F3000F76E000EF86E0800F55074EC95F015D0B1
:101F4000470EF66EFC0EF76E000EF86E0800F550A8
:101F500074EC95F00AD04750130AD8B4DBD7340A92
:101F6000D8B4EED7740AD8B4E0D7879412006A0EBA
:101F7000246EFD0E256E4A0EF66EFC0EF76E000EF8
:101F8000F86E0800F5CF26F078EC8AF02E861DD08A
:101F9000D5EC92F0386E3850D8B412D038503EECB0
:101FA00095F05EEC87F0100E0001B86F390EB76F38
:101FB0000D0EE82EFED7B72FFCD7B82FFAD700D0DA
:101FC00068EC95F00009D8B42E962EA61200E0D742
:101FD000236E010E246E23C021F024C022F0212A9A
:101FE00002D0D8902236212EFCD72250246E110E1A
:101FF000F66EFC0EF76E000EF86E0900F5CF1DF0C0
:102000000A00F5CF1EF080EC95F02410246E110E1E
:10201000F66EFC0EF76E000EF86E0900F5CF1DF09F
:102020000A00F5CF1EF024C01FF04FEC93F0120011
:10203000276E0B0EF66EFC0EF76E000EF86E0900A2
:10204000F5CF1FF00A00F5CF20F04B0E216E000EE9
:10205000226E020E236E11EC94F027504B244B6E2F
:10206000000E4C204C6E0B0EF66EFC0EF76E000E42
:10207000F86E0900F5CF21F00A00F5CF22F04B0EE3
:10208000236E000E246E020E256EA5EC93F0120056
:10209000246E170EF66EFC0EF76E000EF86E090039
:1020A000F5CF21F00900F5CF22F0245021241D6E38
:1020B000000E22201E6E80EC95F0236E232A170E50
:1020C000F66EFC0EF76E000EF86E0900F5CF21F0EB
:1020D0000900F5CF22F0245021241D6E000E22208D
:1020E0001E6E23C01FF04FEC93F01200286E1B0EE3
:1020F000F66EFC0EF76E000EF86E0900F5CF1DF0BF
:102100000A00F5CF1EF080EC95F0396E3950282486
:10211000396E1B0EF66EFC0EF76E000EF86E09009F
:10212000F5CF1DF00A00F5CF1EF039C01FF04FECBF
:1021300093F03950D8B403D02D802D942D88285099
:1021400004EC89F01200226E000E846E000E866E82
:102150008594010E326E22C020F032C021F0202A78
:1021600002D0D8902136202EFCD72150326EA0EC20
:1021700088F0838A32500F0B846E3250F00B866EDB
:10218000040E216ECF0E206E020EE82EFED7202EFA
:10219000FCD7212EFAD7000E846E000E866E120038
:1021A000216E1B0EF66EFC0EF76E000EF86E090027
:1021B000F5CF1DF00A00F5CF1EF080EC95F0396EDA
:1021C000215000083924396E1B0EF66EFC0EF76E96
:1021D000000EF86E0900F5CF1DF00A00F5CF1EF0D5
:1021E00039C01FF04FEC93F03950D8A412002D9055
:1021F0002D842D9812002A6E2AC039F03950D0EC67
:1022000090F0090EF66EFC0EF76E000EF86E0900E7
:10221000F5CF1DF00A00F5CF1EF080EC95F02B6E87
:102220002BC01DF02A5032EC93F03C6E3C50E4EC95
:102230008EF03C6E3C50D8B412003C502B02F3CFD1
:102240003CF03C5076EC90F012002050211022100F
:10225000D8B41ED0010E236E05D0D890203621367A
:102260002236232A22AEF9D720501D5C21501E5859
:1022700022501F58D8A006D020501D5E21501E5A53
:1022800022501F5AD890223221322032232EECD7EE
:102290001DC01DF01EC01EF01FC01FF012002FA297
:1022A00002D0010E01D0000E1D6E8EA802D0010ECC
:1022B00001D0000E1D1AD8A412D02FA208D0140EDF
:1022C0001D6E7A0EE82EFED71D2EFCD708D04E0EBE
:1022D0001D6EEB0EE82EFED71D2EFCD700F08EA84B
:1022E00003D02F92000E12002F82010E1200000167
:1022F000B36FB3C030F0F70EF66EFB0EF76E000E44
:10230000F86E0900F5CF1DF00A00F5CF1EF080EC45
:1023100095F00001B26F3850B2150009D8B404D05E
:10232000B351A3EC90F004D00001B35169EC8DF0EF
:102330002DB21200305048EC90F01200FD0E246EC9
:10234000FD0E256E4A0EF66EFC0EF76E000EF86E50
:102350000800F5CF26F078EC8AF0D5EC92F0386ED4
:102360002E8C10D0D5EC92F0386E3850D8B405D001
:1023700038503EEC95F0DCEC82F068EC95F000090A
:10238000D8B42E9C2EAC1200EDD7000E216E1ED0BC
:102390002150010D7F0EF324D96E000EF420DA6E69
:1023A000130EF66EFC0EF76E000EF86E0900F5CFF8
:1023B0001FF00900F5CF20F021501F241D6E000EE4
:1023C00020201E6E80EC95F0DF6E212A070E21641E
:1023D000DFD71200839E838C3B0E1D6E700EE82E9D
:1023E000FED71D2EFCD78DCF1DF0D8901D320F0EBD
:1023F0001D161D38F00B1E6E838E839C3B0E1D6ECA
:10240000700EE82EFED71D2EFCD7D8908D300F0B06
:102410001E101E6E838E838C1E50FF0A1200AA0EA1
:10242000F66E2C0EF76E010EF86E0900F5CFCEF0A9
:10243000AB0EF66E2C0EF76E010EF86E0900F5CF9E
:102440004DF000EE60F0520EEE6AE806FDE100EE9F
:102450002DF0200EEE6AE806FDE14E6A4F904F9295
:1024600000019BEF81F02FA802D0000E3D6E000E00
:10247000D5EC94F0030E426E000E0001606F000E6A
:10248000616F3DC062F0000E636F42C024F0420EE7
:10249000F66EFC0EF76E000EF86E0800F55003ECB9
:1024A00085F0426E3F98120087CF1DF086CF1EF058
:1024B000879487828B500F098B6E38EC96F090389A
:1024C000F00B476E34EC96F038EC96F090500F0B12
:1024D0004710476E87908B50F00B8B6E87921EC013
:1024E00086FF1DC087FF47501200000E1E6E7FC082
:1024F00033F017D01E50010D7F0EF324D96E000E5D
:10250000F420DA6E3350DE5CD8B00AD01E50010DD4
:102510007F0EF324D96E000EF420DA6EDF50336E96
:102520001E2A070E1E64E6D71200000E1E6E7FC024
:1025300034F017D01E50010D7F0EF324D96E000E1B
:10254000F420DA6EDE50345CD8B00AD01E50010D93
:102550007F0EF324D96E000EF420DA6EDF50346E55
:102560001E2A070E1E64E6D712002A6E540EF66E5F
:10257000FC0EF76E000EF86E0800F55078EC94F043
:10258000490EF66EFC0EF76E000EF86E0800F55060
:10259000040F74EC95F0520E84EC8FF02A50276EE5
:1025A000286A296AC3EC89F01200EAEC91F000096C
:1025B000D8A402D0000E1200EAEC91F0226E22C0E4
:1025C00021F003D0EAEC91F0216E2150D8A4FAD783
:1025D000080E206E9D0E1F6E060EE82EFED71F2ED3
:1025E000FCD7202EFAD722501200190EF66EFC0EE0
:1025F000F76E000EF86E0900F5CF21F00A00F5CF56
:1026000022F00AD021C01DF022C01EF0000E1F6E65
:102610004FEC93F0214A222A225004E10C0E215C57
:10262000D8A0F0D7FF0012000001CE0753EC96F0BF
:102630001F0E1E6E710E1D6E1E0EE82EFED71D2E75
:10264000FCD71E2EFAD700D04CEC95F00001CE51ED
:10265000800A7F0FD8A004D051EC96F0000E120033
:10266000010E12001E6E000E206E1D50D8B415D043
:10267000010E1F6E03D0D8901D361F2A1DAEFBD74A
:10268000D89020361D501E5CD8A003D01D501E5E71
:102690002080D8901D321F2EF3D720501200000E3C
:1026A000F2BE010E206E1E50030B7F6E1DC07EFF1A
:1026B0001FC080FF3F0E81168184F29E550E826EF0
:1026C000AA0E826E818281B2FED7819420B002D0A0
:1026D000F29E01D0F28E12003CEC96F05AEC95F08E
:1026E000E2EC8CF08CEC95F04CEC95F02FEC95F046
:1026F000A8EC94F0CFEC95F0DBEC93F01CEC96F0AA
:10270000C0EC93F0F6EC93F0BAEC95F098EC95F001
:102710001200540EF66EFC0EF76E000EF86E0800F6
:10272000F55078EC94F029C024F02AC025F0490E29
:10273000F66EFC0EF76E000EF86E0800F5CF26F070
:1027400078EC8AF04750020F1200000E266E13D06C
:10275000265021241D6E000E22201E6E2650010DD3
:10276000F3502324D96EF4502420DA6EDF501F6E0C
:102770004FEC93F0262A2550265CD8B01200E8D7FB
:10278000000EC46E000EC56E040EC66EE10EC26E63
:10279000BA0EC16EC150C2CF1DF01E6A1DC01EF020
:1027A0001D6A1D100001C76F1E50C86F0E01CE9923
:1027B000010EC36E1200000ECA6E000ECB6E050E27
:1027C000CC6E9E0EC86E580EC76EC750C8CF1DF097
:1027D0001E6A1DC01EF01D6A1D100001C96F1E502B
:1027E000CA6F0E01CE95010EC96E1200000ED06E9A
:1027F000000ED16E050ED26EF60ECE6E3C0ECD6E74
:10280000CD50CECF1DF01E6A1DC01EF01D6A1D10DA
:102810000001CB6F1E50CC6F0E01CE91010ECF6E1A
:102820001200000E246E12D02450010DF35021240A
:10283000D96EF4502220DA6E24501F241D6E000E33
:1028400020201E6E80EC95F0DF6E242A2350245C3D
:10285000D8B01200E9D7480EF66EFC0EF76E000EE7
:10286000F86E0800F55074EC95F0720E246EFE0EB2
:10287000256E480EF66EFC0EF76E000EF86E080020
:10288000F5CF26F078EC8AF01200590E246EFF0E78
:10289000256E4A0EF66EFC0EF76E000EF86E0800FE
:1028A000F5CF26F078EC8AF00EEC95F02A6E2A50DF
:1028B000276E286A296AC3EC89F02D981200296EC8
:1028C00029503D142A6E2A50D8B409D0A70E246E80
:1028D000FF0E256E43C026F078EC8AF012009D0EA4
:1028E000246EFF0E256E43C026F078EC8AF01200AD
:1028F000206E86CF1FF054EC92F002D054EC92F090
:10290000476E47BEFBD720380F0B0F0B866E15ECBA
:1029100096F020500F0B866E15EC96F01FC086FFC8
:102920001200D20E246EFE0E256E4A0EF66EFC0EBE
:10293000F76E000EF86E0800F5CF26F078EC8AF0FE
:1029400060C044F0445080EC84F03F922D9C120013
:10295000820ED66EA50ED46E2E0ED36ED350D4CF6B
:102960001DF01E6A1DC01EF01D6A1D100001C56FFE
:102970001E50C66F0E01CA9B900ED56E12004FEC12
:1029800096F00AD0F9EC95F0270E1F6EF50EE82EA2
:10299000FED71F2EFCD700F00E01CDAFF3D7E2EC2F
:1029A00095F00001A66F00F01200226E000E236E5B
:1029B0000BD02350010D600EF324D96E000EF420CD
:1029C000DA6E22C0DFFF232A1F0E2364F2D7C5EC84
:1029D00091F012001D501F02F3CF21F0F4CF22F02E
:1029E0001D502002F35022261E501F02F3502226B3
:1029F00021C01DF022C01EF012000F0EF66EFC0E5C
:102A0000F76E000EF86E0900F5CF1DF00A00F5CF45
:102A10001EF03DC01FF04FEC93F012001B0EF66E3F
:102A2000FC0EF76E000EF86E0900F5CF1DF00A00DF
:102A3000F5CF1EF080EC95F0396E39501200000E83
:102A4000D5EC94F0010E246E440EF66EFC0EF76E7B
:102A5000000EF86E0800F55003EC85F01200050E2C
:102A6000BF6E200EBE6E000EC06E850EBC6E000ED8
:102A7000BB6E0E01CE93F10EBD6E12001D6E000EE8
:102A8000306E04D0302AD8901D301D6E1D50D8A451
:102A9000F9D7300630501200040EB96E000EB86E31
:102AA000000EBA6E4B0EB66E000EB56E0E01CE97CE
:102AB000B7681200000E0E01E16F000EE26F000E0B
:102AC000E36F000EE46F000EE56F000EE66F12007C
:102AD000010E0F01346F320EE82EFED73DCF1DF0F0
:102AE00036C034FF1D501200216E46C022F087947C
:102AF0002150800978EC94F0878422C046F01200BF
:102B00001E50030B7F6E1DC07EFF3F0E811681801D
:102B100000F000F080501200600E0E01D86F000E21
:102B2000DA6F000EDC6F040EDE6F000EDD6F120038
:102B3000090E0E019F6F900E9D6F240E9E6F9B0ECF
:102B40009B6F000E9C6F1200080E9F6ED00E9D6E44
:102B5000EC0E9E6E380E9B6E010E9C6E1200300EB7
:102B600004D0245084EC8FF02428246E7F0E24643B
:102B7000F8D71200080E9F6ED00E9D6EEC0E9E6E62
:102B8000380E9B6E010E9C6E1200050EE4EC8EF06A
:102B90000009D8A402D000F0120000F01200900E3C
:102BA0000F01396F000E3A6F000E3B6F050E3C6F40
:102BB00012000E01CDABFDD79DA202D09D989D883D
:102BC000995012000E01CDAFFDD79DA302D09D9963
:102BD0009D89995112001E6E1E50F2EC95F043EC47
:102BE00096F012001D6E0E01CDA9FDD71DC09AFFF3
:102BF0001200410E00EC96F0540E00EC96F012001C
:102C00001E6E1E5007EC96F030EC96F012001D6E12
:102C10000E01CDADFDD71DC09AFE12000F013DA1E2
:102C200002D0010E1200000E1200878000D000F0CA
:102C3000879000D000F01200800E0F01336F0E0E4F
:102C4000346F1200000E3D6E33EC92F012001E50F5
:102C5000D46E1DC0D3FF12001D6E1DC034FF1200C4
:102C60000E01CDBD1200FCD7879000D000F01200FD
:102C7000878000D000F01200F28A0E01BA8912009B
:102C80009FBC1200FDD79EB21200FDD70E01CA995B
:102C90001200D59E1200D58E120085801200858606
:0C2CA0001200858212008592120003FFD2
:020000040020DA
:10000000FF0FFF0FFF0FFF0FFF0FFF0FFF0FFF0F80
:020000040030CA
:0C0000008CFFFFF79FFFFFFFFFFFFFFFDB
:00000001FF
