:0400000057EF00F0C6
:100008004F82FACF0BF0FBCF0CF0E9CF0DF0EACF1F
:100018000EF0E1CF0FF0E2CF10F0D9CF11F0DACF28
:1000280012F0F3CF13F0F4CF14F0F6CF15F0F7CFAA
:1000380016F0F8CF17F0F5CF18F04FC019F050C0F0
:100048001AF051C01BF052C01CF0F2AC06D00E01E1
:10005800C5BFCDAF02D059EC9AF01CC052F01BC0FE
:1000680051F01AC050F019C04FF018C0F5FF17C072
:10007800F8FF16C0F7FF15C0F6FF14C0F4FF13C051
:10008800F3FF12C0DAFF11C0D9FF10C0E2FF0FC0A2
:10009800E1FF0EC0EAFF0DC0E9FF0CC0FBFF0BC07B
:0A00A800FAFF4F9211005AEF94F096
:10F91E00005075736820427574746F6E20746F207A
:10F92E004C696E6B205075736820616761696E203B
:10F93E00746F20556E6C696E6B50757368205365CD
:10F94E00727669636520746F204578697400205063
:10F95E0072657373204368616E6E656C2056656EBA
:10F96E006420427574746F6E206F722050726573CE
:10F97E007320202020202020536572766963652035
:10F98E00746F204578697400486F6C6420636861F9
:10F99E006E6E656C20627574746F6E206F7220507F
:10F9AE00757368207365727669636520746F2020A5
:10F9BE0065786974005075736820627574746F6E23
:10F9CE00203120746F20636C6561722063726564F0
:10F9DE00697473202020616E64206578697400500C
:10F9EE00726573732031203D202B206F72203220E0
:10F9FE003D202D20205072657373203820746F20A7
:10FA0E004578697400205075736820627574746F40
:10FA1E006E20746F202020202076656E6400507258
:10FA2E00657373207365727669636520746F2065E4
:10FA3E00786974002020496E697469616C697A6511
:10FA4E0020486F707065720041542B4349504753E4
:10FA5E004D4C4F433D320D0041542B434D474C3DD1
:10FA6E0022414C4C220D002020536574757020539A
:10FA7E00656E736F720041542B4950523D313932CD
:10FA8E0030300D002020496E73657274204E6F74F5
:10FA9E00650020204175646974204D6F64650041D6
:10FAAE00542B43555344203D310D0041542B4355A7
:10FABE0053443D310D0041542B435553443D3F0DAE
:10FACE000041542B434D474C3D3F0D0041542B43B9
:10FADE005553443F0D0041542B43454E473D3F0087
:10FAEE0041542B434E554D0D0041542B43454E472B
:10FAFE003F0041542B4342430D0050726963652011
:10FB0E005200415426560D004154490D0045786966
:10FB1E0074002F002E002D002C002B002A0029002F
:10FB2E0028002700260025002400230022002100A3
:10FB3E0020001F001E001D001C001A0019001800D6
:10FB4E0017000F000C00040002000000461E230FD9
:10FB5E00BAE1FEFDF2DBDAECACA8A7A6A4A3010184
:10FB6E00030C0B0A09080706050403020133363598
:10FB7E00343332313054144000181B080705040684
:10FB8E0002A8010C2C282431203D20417564697493
:10FB9E002032203D2053656E736F72333D486F7077
:10FBAE002D436F696E20343D4E6F74652D656E3535
:10FBBE003D437265642D636C7220363D50726963ED
:10FBCE00657320373D56656E6420736574757020BD
:10FBDE00383D4578697400456E61626C65202F2052
:10FBEE0044697361626C652020202031203D2052D3
:10FBFE0031302C2032203D20523230202020203334
:10FC0E00203D205235302C2034203D2052313030D2
:10FC1E0020202035203D2052323030005075736840
:10FC2E0020312056656E642054696D652C2020208D
:10FC3E0032204368616E4C696E6B20332053656EC3
:10FC4E00734F66663420436C72546F7420352046B1
:10FC5E00616352657365742038206578697400504D
:10FC6E0072657373206368616E6E656C2062757465
:10FC7E00746F6E20202020746F2073657420707254
:10FC8E0069636520202020202053657276696365A4
:10FC9E00203D204578697400507265737320636847
:10FCAE00616E6E656C20627574746F6E20202020FC
:10FCBE00746F206C696E6B20746F202020202020C2
:10FCCE0053657276696365203D20457869740048F6
:10FCDE006F7070657220436F696E20202020202087
:10FCEE00202020427574746F6E2031203D202B2011
:10FCFE00262032203D202D2056616C7565203D203A
:10FD0E005200507573682031203D202B2E35207304
:10FD1E0065636F6E6420507573682032203D202D10
:10FD2E002E35207365636F6E6420005075736820E6
:10FD3E006368616E6E656C20627574746F6E2050B0
:10FD4E00757368207365727669636520746F2065BC
:10FD5E0078697400496E73657274204E6F746573A2
:10FD6E0020262050726573734C697420427574742A
:10FD7E006F6E20546F2056656E6400202020202068
:10FD8E00496E697469616C697A6520202020202093
:10FD9E00202020204E6F74652052656164657200CC
:10FDAE004E6F204368616E676520557365204578F8
:10FDBE00616374202020202020416D6F756E7421A8
:10FDCE0000526573657420746F2044656661756CAE
:10FDDE007420202020537461727420416761696E13
:10FDEE0000507573682031203D204F6E2C2032203C
:10FDFE003D204F66662C2038203D204578697400E2
:10FE0E002020204E6F7465206572726F7220202044
:10FE1E002020636F6465203D2030780041542B43D1
:10FE2E005553443D312C222A3133352A3530302377
:10FE3E00220D0041542B435553443D312C222A317F
:10FE4E00333623222C320D0055736520627574747F
:10FE5E006F6E202F20536572766963650020202017
:10FE6E002020202020202020202020202020202084
:10FE7E00200041542B434D4744413D2244454C20E4
:10FE8E00414C4C220D0041542B435553443D312CD3
:10FE9E00222A31333623220D0054696D6520696E96
:10FEAE0020312F32736563203D20002020205072B8
:10FEBE0069636520736574206D6F646500437265B8
:10FECE006469747320436C65617265640041542BE0
:10FEDE00435343533D2247534D220D0053656E73DA
:10FEEE0069746976697479200020204372656469AB
:10FEFE0074203D20520041542B41542B4345455212
:10FF0E000D002020204368616E6E656C20006C69C8
:10FF1E006E6B656420746F203A0041542B434C5431
:10FF2E00533D300D0041542B434C54533D310D0085
:10FF3E0041542B435553443D320D0041542B434DF8
:10FF4E0047463D310D0053656E736F722069732005
:10FF5E000041542B43434C4B3F0D004361736820CB
:10FF6E00696E2052002020202020202020200020FA
:10FF7E0064697361626C65640020656E61626C65B4
:10FF8E0064200041542B43434C4B3D0041544530BB
:10FF9E003B56300D002020205231302020004E6F75
:10FFAE002053746F636B00546F74616C2052002089
:10FFBE0020523230302000202052313030200020AC
:10FFCE002052353020200020205232302020004197
:10FFDE00542646300D0056656E64732000446174DD
:10FFEE0065200054696D6520004F6666004F6E20D7
:02FFFE00000001
:020000040001F9
:10000000020E1D6E060E1E6E020E206E000E1F6E7C
:100010001BEC9AF0330E1F6EFF0E206E0AEC8FF071
:10002000000E316E000E2B6E05D06BEC9BF0316E26
:1000300030B2AED12A0E3118D8A4F7D76BEC9BF0B2
:10004000316E6BEC9BF0316E6BEC9BF0316E550EAC
:100050003118D8A4E5D703D06BEC9BF0316E3A0E83
:100060003118D8B40FD0F8D76BEC9BF0316E2B5011
:10007000010D020EF324D96E060EF420DA6E31C0A3
:10008000DFFF2B2A0A0E3118D8A4EED7680E276E90
:10009000E40EE82EFED7272EFCD700D0030E2B6EE1
:1000A000220E0001B66F010E2C6E76D02B50010D82
:1000B000020EF324D96E060EF420DA6E2C50010DD8
:1000C000B60EF324E16E000EF420E26EDFCFE7FF00
:1000D0002B50276E286A010E2726000E2822020EBA
:1000E0002724D96E060E2820DA6E2C50296E2A6A33
:1000F000010E2926000E2A22B60E2924E16E000EDA
:100100002A20E26EDFCFE7FF2B50276E286A010E10
:100110002726000E2822020E2724D96E060E28203C
:10012000DA6E2C0EDE18D8A422D02B50010D020E50
:10013000F324D96E060EF420DA6E2C50276E286A4E
:10014000010E2726000E2822B60E2724E16E000E8F
:100150002820E26EDFCFE7FF2C50010DB60EF3240E
:10016000D96E000EF420DA6E300EDF6E2B062C50A6
:10017000276E286A020E2726000E2822B60E272494
:10018000D96E000E2820DA6E2F0EDF6E2C50030F72
:100190002C6E2B50030F2B6E080E2C6487D7FF0E8E
:1001A000276EFF0E286E2C50296E2A6A27502926AA
:1001B00028502A22B60E2924D96E000E2A20DA6E83
:1001C0002C0EDF6E76D02B50010D020EF324D96E6B
:1001D000060EF420DA6E2C50010DB60EF324E16EFB
:1001E000000EF420E26EDFCFE7FF2B50276E286A67
:1001F000010E2726000E2822020E2724D96E060E95
:100200002820DA6E2C50296E2A6A010E2926000E4B
:100210002A22B60E2924E16E000E2A20E26EDFCFDC
:10022000E7FF2B50276E286A010E2726000E282292
:10023000020E2724D96E060E2820DA6E2C0EDE1848
:10024000D8A422D02B50010D020EF324D96E060E35
:10025000F420DA6E2C50276E286A010E2726000E35
:100260002822B60E2724E16E000E2820E26EDFCF92
:10027000E7FF2C50010DB60EF324D96E000EF420CA
:10028000DA6E300EDF6E2B062C50276E286A020EB7
:100290002726000E2822B60E2724D96E000E28200D
:1002A000DA6E3A0EDF6E2C50030F2C6E2B50030FBC
:1002B0002B6E100E2C6487D72C062B2A2B50010D89
:1002C000020EF324D96E060EF420DA6E2C50010DC6
:1002D000B60EF324E16E000EF420E26EDFCFE7FFEE
:1002E0002C50276E286A010E2726000E2822B60EF3
:1002F0002724D96E000E2820DA6E300EDF6E2B50C8
:10030000276E286A010E2726000E2822020E2724B7
:10031000D96E060E2820DA6E2C50296E2A6A020E3B
:100320002926000E2A22B60E2924E16E000E2A206C
:10033000E26EDFCFE7FF2C50276E286A030E2726D8
:10034000000E2822B60E2724D96E000E2820DA6E61
:10035000220EDF6E2C50276E286A040E2726000E10
:100360002822B60E2724D96E000E2820DA6E0D0E34
:10037000DF6E2C50276E286A050E2726000E2822D5
:10038000B60E2724D96E000E2820DA6E000EDF6E1E
:10039000280E1F6EFF0E206E0AEC8FF0020E236EE9
:1003A000060E246E010E5EEC96F0910E1F6EFF0E8F
:1003B000206E0AEC8FF0B60E1F6E000E206E0AEC57
:1003C0008FF0020E236E060E246E010E5EEC96F088
:1003D00002C6E8FF300AD8B412008596A30E286E34
:1003E000570E276E020EE82EFED7272EFCD7282E9A
:1003F000FAD700D0FF001200010E0F01346F560E25
:10040000F66EFB0EF76E000EF86E0900F5CF1FF0CA
:100410000A00F5CF20F04C0E216E000E226E020E67
:10042000236E6CEC99F0520EF66EFB0EF76E000E1A
:10043000F86E0900F5CF1FF00A00F5CF20F0490E45
:10044000216E000E226E030E236E6CEC99F0690E85
:10045000246EFF0E256E860EF66EFB0EF76E000EF6
:10046000F86E0800F5CF26F05DEC8AF04CC027F05E
:100470004DC028F0296AABEC8DF0B50E246EFF0E4E
:10048000256E850EF66EFB0EF76E000EF86E0800F8
:10049000F5CF26F05DEC8AF049C027F04AC028F07D
:1004A0004BC029F0ABEC8DF0560E246EFE0E256E7F
:1004B000840EF66EFB0EF76E000EF86E0800F5CF98
:1004C00026F05DEC8AF02F8671D04FEC95F03A6EF5
:1004D0003A50D8B454D04FEC95F03A6E6B0E246E6F
:1004E000FE0E256E830EF66EFB0EF76E000EF86E96
:1004F0000800F5CF26F05DEC8AF03A50CBEC9AF08C
:10050000326E540EF66EFB0EF76E000EF86E09009A
:10051000F5CF2AF00900F5CF2BF032502A241D6EBA
:10052000000E2B201E6E00EC9BF02C6EE40E246E51
:10053000FF0E256E830EF66EFB0EF76E000EF86E44
:100540000800F5CF26F05DEC8AF02C50276E286A63
:10055000296AABEC8DF04FEC95F00009D8A4FBD7DD
:100560006B0E246EFE0E256E830EF66EFB0EF76E7E
:10057000000EF86E0800F5CF26F05DEC8AF090ECE6
:100580009BF00009D8A412D038C034FF2F96950EE6
:10059000246EFB0E256E860EF66EFB0EF76E000EB9
:1005A000F86E0800F5CF26F05DEC8AF02FA6120059
:1005B0008CD7000E326E7CEC9AF03B6E35503B5C73
:1005C000D8B002D0000E120036503B5CD8B02FB825
:1005D00003D0B0EC9BF02F88000E346E070E0001A4
:1005E000E86F13D0E851010D7F0EF324D96E000E91
:1005F000F420DA6EDE503B5CD8A003D03450010901
:10060000346E34503424346EE807E851D8A4EAD765
:100610007F513B5CD8A003D034500109346E335075
:10062000FF0A3414346E2D92858434500F0B846E7F
:100630003450F00B866E4FEC95F03A6E3A5033140E
:100640000009D8B414D02FB410D0AC0E246EFF0E15
:10065000256E860EF66EFB0EF76E000EF86E080025
:10066000F5CF26F05DEC8AF02F84000E12003A5090
:1006700034143A6E3A50D8B456D03A50CBEC9AF083
:10068000326E3250010D7F0EF324D96E000EF4202D
:10069000DA6EDF50396E32C0E5F03AC0E6F0030E94
:1006A000326404D0800E3A6E070E326E3250DDECAA
:1006B00096F0E5C032F0E6C03AF0440EF66EFB0E5E
:1006C000F76E000EF86E0900F5CFE3F00900F5CFE4
:1006D000E4F032500001E3251D6E000EE4211E6E91
:1006E00000EC9BF00001E76FE751D8A42DB207D0D2
:1006F000E751CBEC9AF0326E3250DDEC96F0395087
:1007000033EC96F02F987CEC9AF03B6E3B50D8A4DB
:100710002DB605D02DB203D03B5089EC96F0839ACC
:100720008584010E12002F942D88000E1200D70E22
:100730001D6E000E1E6E000E206E140E1F6E1BEC42
:100740009AF0CD0E1D6E000E1E6E000E206E140E61
:100750001F6E1BEC9AF0080E2B6E070E2C6E1DC63A
:1007600031F031500F0B316E31C01DF01E6A000E9A
:10077000206E040E1F6E17EC92F01D50316E0601B4
:1007800014510F0B31242A6E060113510F0B296EE1
:10079000090E2A641BD0300EE8CF14F613C6E8FF0A
:1007A000010FE8CF13F626EE13F0320EDF640AD005
:1007B000300EE8CF13F606D02A0614C6E8FF010F64
:1007C000E8CF14F60B0E2A60F7D74CD02AC025F0DC
:1007D000300E251225C014F645D02B50010D020E07
:1007E000F324D96E060EF420DA6EFF0E256EFF0E8E
:1007F000266E2C50276E286A255027262650282240
:10080000D70E2724E16E000E2820E26EDFCFE7FF2F
:100810002B2A2B50010D020EF324D96E060EF42064
:10082000DA6E2C50010DD70EF324E16E000EF42089
:10083000E26EDFCFE7FF2B2A2C062B50010D020EB4
:10084000F324D96E060EF420DA6E2C062C50010D1E
:10085000D70EF324E16E000EF420E26EDFCFE7FF47
:100860002B2A2C060F0E2B64B8D7000E2C6E14D03A
:100870002B50010D020EF324D96E060EF420DA6E11
:100880002C50010DCD0EF324E16E000EF420E26E2B
:10089000DFCFE7FF2B2A2C2A070E2C64E9D71200A2
:1008A0000E01C58F3092000E466E020E1D6E060EB2
:1008B0001E6E020E206E000E1F6E1BEC9AF00E01D3
:1008C000CEA7FDD782EC9BF00D0E44EC9BF0020E00
:1008D000236E060E246E020E5EEC96F09A0E1F6ECC
:1008E000FF0E206E0AEC8FF0020E236E060E246EB1
:1008F000010E5EEC96F08CEC94F030A211D085964F
:10090000A30E0001E26F570EE16F020EE82EFED734
:10091000E12FFCD7E22FFAD700F0BAEC9BF0C5D755
:1009200000EC80F030A211D08596A30E0001E26F9A
:10093000570EE16F020EE82EFED7E12FFCD7E22F13
:10094000FAD700F0BAEC9BF0B0D74EEC93F014EC71
:1009500098F0490E1F6EFF0E206E0AEC8FF0020E0B
:10096000236E060E246E010E5EEC96F0800E1F6E56
:10097000FE0E206E0AEC8FF0020E236E060E246E21
:10098000010E5EEC96F0DB0E1F6EFE0E206E0AEC82
:100990008FF0020E236E060E246E010E5EEC96F0B2
:1009A000410E1F6EFE0E206E0AEC8FF0020E236EBB
:1009B000060E246E020E5EEC96F0040E1F6EFF0E05
:1009C000206E0AEC8FF0020E236E060E246E020ECD
:1009D0005EEC96F0280E1F6EFF0E206E0AEC8FF074
:1009E000020E236E060E246E020E5EEC96F0DD0EF5
:1009F0001F6EFF0E206E0AEC8FF0020E236E060EA5
:100A0000246E010E5EEC96F000F01200AAEC98F055
:100A1000CFEC9BF060EC8EF0BAEC9BF050EC84F0E5
:100A2000D2EC8AF000F0010E0F01346F90EC9BF0D5
:100A30000009D8B42D8E38C034FF2DBEB9EC8EF02D
:100A40002DA413D0620E246EFD0E256E860EF66E5A
:100A5000FB0EF76E000EF86E0800F5CF26F05DEC89
:100A60008AF02D942DB686EC99F02DBA2D9A2DA8EA
:100A700005D0A0EC99F02DB686EC99F00E01CEA52C
:100A80002BD0BBEC85F03C6E3C50D8B422D040B2A9
:100A90000DD01AD0BDEC93F003D040A8BDEC93F07C
:100AA000000E3C6E19D0ECEC99F016D03C50060AC2
:100AB000D8B4F0D70F0AD8B4F0D7050AD8B4F0D715
:100AC0001C0AD8B4EDD7EFD73C50DAEC95F02D8066
:100AD00003D040B2ECEC99F02DA007D0D9EC82F015
:100AE0000009D8B49FD7FF009DD74FEC95F00009BF
:100AF000D8B43CD04FEC95F03A6E3350FF0A3A141C
:100B00000009D8B42FB410D0AC0E246EFF0E256EA1
:100B1000860EF66EFB0EF76E000EF86E0800F5CF2F
:100B200026F05DEC8AF02F842FB47CD73A50CBECC2
:100B30009AF00001F16F500EF66EFB0EF76E000E8C
:100B4000F86E0900F5CF00F20900F5CF01F2F1517E
:100B5000020100251D6E000E01211E6E00EC9BF0AF
:100B6000396E3950F4EC97F02F845CD72FA45AD704
:100B70002F942D8457D736EC99F0000E246E7F0EFB
:100B8000F66EFB0EF76E000EF86E0800F55072EC74
:100B900088F0276E60C0AFF0000160AF50D06051A8
:100BA0007F0BAF6F19D00A0E3C6E3C501200140E32
:100BB0003C6E3C501200320E3C6E3C501200640EF3
:100BC0003C6E3C501200C80E3C6E3C501200100EA1
:100BD0003C6E40823C501200AF51000AD8B4E3D7BB
:100BE000010AD8B4E4D7030AD8B4E5D7010AD8B4C7
:100BF000E6D7070AD8B4E7D7EAD7000E3C6E3C50D8
:100C00001200010E1AD0020E18D0000E3C6E409257
:100C10003C501200040E11D0050E0FD0060E0DD060
:100C2000070E0BD0080E09D0090E07D00A0E05D00A
:100C30000B0E03D00C0E01D0000E3C6E29D060517B
:100C4000000AD8B4DAD7010AD8B4DBD7030AD8B47B
:100C5000DAD7010AD8B4D9D7070AD8B4DBD7010A42
:100C6000D8B4DAD7030AD8B4D9D7010AD8B4D8D7B8
:100C70000F0AD8B4D7D7010AD8B4D6D7030AD8B444
:100C8000D5D7010AD8B4D4D7070AD8B4D3D7D4D784
:100C900040823C5012000001F06F2E88100E246E2E
:100CA000FD0E256E860EF66EFB0EF76E000EF86ECC
:100CB0000800F5CF26F05DEC8AF0320EF66EFB0EE2
:100CC000F76E000EF86E0900F5CFEDF00900F5CFD4
:100CD000EEF00001F051ED251D6E000EEE211E6EAE
:100CE00000EC9BF00001EF6FF0C02AF0EF5137EC01
:100CF00090F05DD072EC97F03A6E4FD00001EF2B80
:100D0000320EF66EFB0EF76E000EF86E0900F5CF90
:100D1000EDF00900F5CFEEF0F051ED251D6E000E5F
:100D2000EE211E6EEFC01FF08DEC98F0F0C02AF09F
:100D30000001EF5137EC90F03AD00001EF07320E8E
:100D4000F66EFB0EF76E000EF86E0900F5CFEDF0B3
:100D50000900F5CFEEF0F051ED251D6E000EEE21ED
:100D60001E6EEFC01FF08DEC98F0F0C02AF000016D
:100D7000EF5137EC90F01BD02E98390E246EFD0EFB
:100D8000256E860EF66EFB0EF76E000EF86E0800EE
:100D9000F5CF26F05DEC8AF00AD03A50010AD8B4BB
:100DA000ADD7030AD8B4C9D7820AD8B4E5D72EA8DC
:100DB0001200A0D70001ED6F2E820001ED51CBECA7
:100DC0009AF00001EE6F500EF66EFB0EF76E000EFD
:100DD000F86E0900F5CF2BF00900F5CF2CF0EE519D
:100DE0002B241D6E000E2C201E6E00EC9BF0396E25
:100DF0003950F4EC97F067D072EC97F00001ED6F8A
:100E000057D0392A500EF66EFB0EF76E000EF86EB4
:100E10000900F5CF2BF00900F5CF2CF0EE512B2473
:100E20001D6E000E2C201E6E39C01FF08DEC98F048
:100E30003950F4EC97F047D03906500EF66EFB0EA1
:100E4000F76E000EF86E0900F5CF2BF00900F5CF14
:100E50002CF00001EE512B241D6E000E2C201E6E76
:100E600039C01FF08DEC98F03950F4EC97F02BD08E
:100E70002E92B90E246EFE0E256E860EF66EFB0EB9
:100E8000F76E000EF86E0800F5CF26F05DEC8AF0E4
:100E90006D0E246EFC0E256E850EF66EFB0EF76E43
:100EA000000EF86E0800F5CF26F05DEC8AF00BD04E
:100EB0000001ED51010AD8B4A4D7030AD8B4BCD7B5
:100EC000820AD8B4D5D72EA2120096D72E842A0E25
:100ED000246EFC0E256E860EF66EFB0EF76E000E6F
:100EE000F86E0800F5CF26F05DEC8AF075D072EC54
:100EF00097F03A6E5ED004EC97F02A0E246EFC0E4A
:100F0000256E860EF66EFB0EF76E000EF86E08006C
:100F1000F5CF26F05DEC8AF05FD0BEEC94F02A0E9F
:100F2000246EFC0E256E860EF66EFB0EF76E000E1E
:100F3000F86E0800F5CF26F05DEC8AF04DD099EC04
:100F400092F02A0E246EFC0E256E860EF66EFB0EB7
:100F5000F76E000EF86E0800F5CF26F05DEC8AF013
:100F60003BD033EC98F038D0E4EC89F02A0E246EB4
:100F7000FC0E256E860EF66EFB0EF76E000EF86EFA
:100F80000800F5CF26F05DEC8AF026D02E944EECCA
:100F90008DF0950E246EFB0E256E860EF66EFB0E02
:100FA000F76E000EF86E0800F5CF26F05DEC8AF0C3
:100FB00013D03A50010AD8B49ED7030AD8B4ADD79B
:100FC000060AD8B4BCD70C0AD8B4CBD7180AD8B400
:100FD000CBD7900AD8B4DAD72EA4120088D7266EC1
:100FE00026C024F0243A0F0E24160A0E24601ED0C8
:100FF00026380F0B300927EC94F033D0410E27EC44
:1010000094F02FD0420E27EC94F02BD0430E27EC17
:1010100094F027D0440E27EC94F023D0450E27EC13
:1010200094F01FD0460E27EC94F01BD026380F0BFF
:10103000246E256A2550000AD8A413D024500A0A29
:10104000D8B4DCD7010AD8B4DDD7070AD8B4DED7C4
:10105000010AD8B4DFD7030AD8B4E0D7010AD8B45C
:10106000E1D726C024F00F0E24160A0E24601ED0ED
:1010700026500F0B300927EC94F01200410E27EC9C
:1010800094F01200420E27EC94F01200430E27EC6D
:1010900094F01200440E27EC94F01200450E27EC59
:1010A00094F01200460E27EC94F0120026500F0B1D
:1010B000246E256A2550000AD8A4120024500A0A7A
:1010C000D8B4DCD7010AD8B4DDD7070AD8B4DED744
:1010D000010AD8B4DFD7030AD8B4E0D7010AD8A4EC
:1010E0001200E0D7256E000E266E9E80CDEC9BF0A0
:1010F000255074EC9BF09E9025C041F02450D8B44C
:101100001ED02428266E18D02450010D600EF32422
:10111000D96E000EF420DA6EDF5074EC9BF0245090
:10112000010D600EF324D96E000EF420DA6EDF504C
:101130004124416E260624062650D8A4E5D7415006
:1011400074EC9BF0FF0E31EC9AF051EC99F0000E2C
:101150000001A56F000EA46F4090000E266E1FD0F8
:101160000001A44BA52B409015D02650010D600E18
:10117000F324D96E000EF420DA6E62EC9BF0DF6E81
:10118000C3EC9BF09DA002D0408001D0409051EC78
:1011900099F0262A0E01CDAB02D040A0E6D70E0171
:1011A000CEB102D040A0DCD72606CEA102D0408628
:1011B00001D0409640A011D02650010D600EF324BE
:1011C000D96E000EF420DA6EDF50D8B406D09E80BF
:1011D000CDEC9BF0000E74EC9BF0CDEC9BF0265018
:1011E00012000001E16F3AC0E2F02E8E340EF66E6E
:1011F000FB0EF76E000EF86E0900F5CF1DF00A0029
:10120000F5CF1EF000EC9BF00001E36FE1C029F088
:10121000E2C02AF0E35106EC8EF05AD072EC97F05F
:101220003A6E4CD00001E251FF0AE315E36F340E31
:10123000F66EFB0EF76E000EF86E0900F5CF1DF08E
:101240000A00F5CF1EF0E3C01FF08DEC98F0E1C06E
:1012500029F0E2C02AF00001E35106EC8EF038D00C
:101260000001E351E211E36F340EF66EFB0EF76EF0
:10127000000EF86E0900F5CF1DF00A00F5CF1EF044
:10128000E3C01FF08DEC98F0E1C029F0E2C02AF035
:101290000001E35106EC8EF01BD02E9E390E246E19
:1012A000FD0E256E860EF66EFB0EF76E000EF86EC6
:1012B0000800F5CF26F05DEC8AF00AD03A50010A1A
:1012C000D8B4B0D7030AD8B4CBD7820AD8B4E5D7FC
:1012D0002EAE1200A3D7E50E246EFB0E256E860EF1
:1012E000F66EFB0EF76E000EF86E0800F5CF26F0D6
:1012F0005DEC8AF0408A408C64D072EC97F03A6ED4
:101300003AC0FFF048D0A30E296EFF0E2A6EE4EC1F
:1013100098F0426E010ED7EC92F050D0D50E296EA7
:10132000FF0E2A6EE4EC98F0426E020ED7EC92F0BB
:1013300045D0CD0E296EFF0E2A6EE4EC98F0426E79
:10134000040ED7EC92F03AD0C50E296EFF0E2A6E2D
:10135000E4EC98F0426E080ED7EC92F02FD0BD0E60
:10136000296EFF0E2A6EE4EC98F0426E100ED7EC58
:1013700092F024D0950E246EFB0E256E860EF66E2E
:10138000FB0EF76E000EF86E0800F5CF26F05DEC50
:101390008AF0409A13D03A50010AD8B4B4D7030A5D
:1013A000D8B4BCD7060AD8B4C4D70C0AD8B4CCD7A2
:1013B000180AD8B4D4D7900AD8B4DCD73FC0AEF05E
:1013C00000F040AA120099D7CF0E246EFD0E256EB4
:1013D000860EF66EFB0EF76E000EF86E0800F5CF67
:1013E00026F05DEC8AF0440EF66EFB0EF76E000EF2
:1013F000F86E0900F5CFE1F00A00F5CFE2F00BD06E
:10140000E1C01DF0E2C01EF0000E1F6E8DEC98F0E2
:101410000001E14BE22B320EF66EFB0EF76E000E72
:10142000F86E0900F5500001E15D0900F550E25940
:10143000D8A0E6D7320EF66EFB0EF76E000EF86EF1
:101440000900F5CFE3F00A00F5CFE4F00BD0E3C0DC
:101450001DF0E4C01EF0080E1F6E8DEC98F0000128
:10146000E34BE42B220EF66EFB0EF76E000EF86EC9
:101470000900F550E35D0900F550E459D8A0E7D71D
:10148000340EF66EFB0EF76E000EF86E0900F5CF07
:101490001DF00A00F5CF1EF0050E1F6E8DEC98F0C2
:1014A000A30E2A6E570E296E020EE82EFED7292EA5
:1014B000FCD72A2EFAD700D01200860EF66EFB0E4D
:1014C000F76E000EF86E0800F55026620BD0900EF5
:1014D000F66EFB0EF76E000EF86E0800F550D3ECBA
:1014E00099F004D026508009F4EC9AF0000E436E77
:1014F0003AD04350010D24C027F025C028F0F35006
:101500002726F450282227C0F6FF28C0F7FF000E38
:10151000F86E0E0EF76403D00800F55005D0F6CF34
:10152000E9FFF7CFEAFFEF50446E4350010D24C0AE
:1015300027F025C028F0F3502726F450282227C092
:10154000F6FF28C0F7FF000EF86E0E0EF76403D00A
:101550000800F55005D0F6CFE9FFF7CFEAFFEF50CE
:1015600027EC94F0432A4350010D24C027F025C0F6
:1015700028F0F3502726F450282227C0F6FF28C071
:10158000F7FF000EF86E0E0EF76403D00800F5505A
:1015900005D0F6CFE9FFF7CFEAFFEF500009D8B446
:1015A0001200A7D74E0EF66EFB0EF76E000EF86E09
:1015B0000900F5CF1DF00A00F5CF1EF000EC9BF0FE
:1015C0000001A76F2F98200EF66EFB0EF76E000E2F
:1015D000F86E0900F5CF1DF00A00F5CF1EF000EC03
:1015E0009BF00009D8B402D02D8601D02D964EEC88
:1015F0008DF0D4EC97F0B4EC97F04A0EF66EFB0E3B
:10160000F76E000EF86E0900F5CF1DF00A00F5CF59
:101610001EF000EC9BF0386E3850BFEC9BF04E0E85
:10162000F66EFB0EF76E000EF86E0900F5CF1DF09A
:101630000A00F5CF1EF000EC9BF0336E890E246E8D
:10164000FD0E256E860EF66EFB0EF76E000EF86E22
:101650000800F5CF26F05DEC8AF0BDEC93F02F94F6
:101660002D9E2D8A7CEC9AF00009D8A404D02D90F0
:101670002D842D9803D02D802D942D884092839A0F
:10168000858412000001E46F2F803AC0E3F0440E1D
:10169000F66EFB0EF76E000EF86E0900F5CFE1F066
:1016A0000900F5CFE2F00001E451E1251D6E000EC6
:1016B000E2211E6E00EC9BF00001E56FE5C029F011
:1016C000E451C6EC90F047D072EC97F03A6E3A5085
:1016D000D8B43CD03A50D8B408D00001E551D8B4C1
:1016E00004D03A50FF0AE51503D00001E5513A1045
:1016F000E56F440EF66EFB0EF76E000EF86E0900F5
:10170000F5CFE1F00900F5CFE2F0E451E1251D6EDF
:10171000000EE2211E6EE5C01FF08DEC98F0E5C0D2
:1017200029F00001E451C6EC90F010D02F90A60EE5
:10173000246EFC0E256E860EF66EFB0EF76E000E06
:10174000F86E0800F5CF26F05DEC8AF0E7EC9AF031
:101750000009D8B4EBD72FA01200B6D7408C540E96
:10176000246EFF0E256E860EF66EFB0EF76E000ED3
:10177000F86E0800F5CF26F05DEC8AF04550020FB8
:10178000376EEA0E246EFE0E256E850EF66EFB0E8B
:10179000F76E000EF86E0800F5CF26F05DEC8AF0CB
:1017A0004550020F2C6E2CC02AF0375014EC93F0E9
:1017B0003DD072EC97F03A6E27D038501F0B0F01D6
:1017C000346F382A2CC02AF0375014EC93F026D00E
:1017D00038501F0B0F01346F38062CC02AF03750D9
:1017E00014EC93F01BD0409C950E246EFB0E256EDE
:1017F000860EF66EFB0EF76E000EF86E0800F5CF43
:1018000026F05DEC8AF00AD03A50010AD8B4D5D758
:10181000030AD8B4DDD7820AD8B4E5D70E01CEA525
:1018200005D02CC02AF0375014EC93F040AC1200D5
:10183000C0D7DD0E246EFC0E256E860EF66EFB0EF6
:10184000F76E000EF86E0800F5CF26F05DEC8AF01A
:10185000408C4550020F376E460EF66EFB0EF76E4B
:10186000000EF86E0900F5CF1DF00A00F5CF1EF04E
:1018700000EC9BF02C6E3750F4EC9AF02C50276E55
:10188000286A296AABEC8DF03CD072EC97F03A6E86
:101890001FD0010E2A6E2C5091EC91F023D0020E35
:1018A0002A6E2C5091EC91F01DD0409C950E246E28
:1018B000FB0E256E860EF66EFB0EF76E000EF86EB2
:1018C0000800F5CF26F05DEC8AF0000E3A6E0AD0E3
:1018D0003A50010AD8B4DDD7030AD8B4E0D7820A57
:1018E000D8B4E3D7460EF66EFB0EF76E000EF86E18
:1018F0000900F5CF1DF00A00F5CF1EF000EC9BF0BB
:101900002C6E40AC1200C1D7050E206E0F0E1F6E5C
:10191000F10EE82EFED71F2EFCD7202EFAD700F0AE
:10192000000E876E000E866EC00E836E000E846EF3
:10193000010E856E000E8C6E1F0E886ED00E896EA5
:10194000800E8A6E000E8B6E000E0F01216FC00E8E
:10195000196F000E266F000E2E6F010E116F000E14
:10196000256F000E2D6F000E186F000E106F000E09
:10197000206F000E2C6F000E0F6F000E176F000E01
:101980001F6F000E246F010E856E800E8A6E000E92
:10199000216F000E206F000E1F6F550E0E01A06FFD
:1019A000AA0EA06FA091B591B593B595B597B599CD
:1019B000000EFD6F000EF46F8D918D938D958D97B8
:1019C0008D9958EC9BF036EC99F0AAEC9BF01BEC4F
:1019D00099F051EC99F01200276E560EF66EFB0E40
:1019E000F76E000EF86E0900F5CF1FF00A00F5CF74
:1019F00020F04C0E216E000E226E020E236E6CEC57
:101A000099F0520EF66EFB0EF76E000EF86E09009E
:101A1000F5CF1FF00A00F5CF20F0490E216E000E21
:101A2000226E030E236E6CEC99F027504C244C6E02
:101A3000000E4D204D6E27504924496E000E4A205D
:101A40004A6E000E4B204B6E560EF66EFB0EF76E76
:101A5000000EF86E0900F5CF21F00A00F5CF22F054
:101A60004C0E236E000E246E020E256E00EC99F0D3
:101A7000520EF66EFB0EF76E000EF86E0900F5CFF3
:101A800021F00A00F5CF22F0490E236E000E246EDD
:101A9000030E256E00EC99F000F01200340EF66E85
:101AA000FB0EF76E000EF86E0900F5CF1DF00A0070
:101AB000F5CF1EF000EC9BF00001A86F440EF66E0F
:101AC000FB0EF76E000EF86E0900F5CF21F00A004C
:101AD000F5CF22F0030E236E000E246E000E256E4D
:101AE00012D02550010DF3502324D96EF450242038
:101AF000DA6E255021241D6E000E22201E6E00EC91
:101B00009BF0DF6E252A070E2564EBD7000E256EAD
:101B10001ED02550010D7F0EF324D96E000EF42047
:101B2000DA6E500EF66EFB0EF76E000EF86E0900C0
:101B3000F5CF1FF00900F5CF20F025501F241D6EB2
:101B4000000E20201E6E00EC9BF0DF6E252A070E93
:101B50002564DFD71200000E0001EC6F27C0E9F00A
:101B600028C0EAF029C0EBF02FD0EC51010DE10EB6
:101B7000F324D96E000EF420DA6E27C01DF028C0C1
:101B80001EF029C01FF00A0E206E000E216E000EFE
:101B9000226EB3EC96F01D50DF6E27C01DF028C0FA
:101BA0001EF029C01FF00A0E206E000E216E000EDE
:101BB000226EF2EC93F01DC027F01EC028F01FC06B
:101BC00029F00001EC29EC6F275028102910D8B417
:101BD0000ED0CBD7EC07EC51010DE10EF324D96EFA
:101BE000000EF420DA6EDF50300927EC94F000018B
:101BF000EC51800A7F0FD8B0EDD7E951EA11EB1113
:101C0000D8A41200300E27EC94F012002B6E100EA8
:101C1000246EFF0E256E860EF66EFB0EF76E000E1E
:101C2000F86E0800F5CF26F05DEC8AF0292A2950DD
:101C3000300927EC94F0540E246EFF0E256E850EAD
:101C4000F66EFB0EF76E000EF86E0800F5CF26F06C
:101C50005DEC8AF0EF0E246EFD0E256E840EF66E9E
:101C6000FB0EF76E000EF86E0800F5CF26F05DEC67
:101C70008AF02B502A140009D8B411D07D0E246E9E
:101C8000FF0E256E850EF66EFB0EF76E000EF86EDB
:101C90000800F5500A0F266E5DEC8AF01200870EE0
:101CA000246EFF0E256E850EF66EFB0EF76E000E8F
:101CB000F86E0800F5500A0F266E5DEC8AF01200EF
:101CC000000E876E030E866E030E0001FD6FFD5140
:101CD000800A7F0FD8A00DD02EEC9BF0680E256EE9
:101CE000E40EE82EFED7252EFCD700D00001FD071C
:101CF000EED7A00E00D0E82EFDD7020E866E2EEC99
:101D00009BF0920EF66EFB0EF76E000EF86E08005A
:101D1000F550D3EC99F0910EF66EFB0EF76E000EB7
:101D2000F86E0800F550D3EC99F08D0EF66EFB0EB0
:101D3000F76E000EF86E0800F550D3EC99F0900E97
:101D4000F66EFB0EF76E000EF86E0800F550D3EC41
:101D500099F023EC9BF0150E266E4B0E256EBE0EF1
:101D6000E82EFED7252EFCD7262EFAD700D000F07D
:101D7000120084EC8CF0950E246EFB0E256E860E00
:101D8000F66EFB0EF76E000EF86E0800F5CF26F02B
:101D90005DEC8AF03CD072EC97F03A6E1CD0FCEC13
:101DA00081F035D0AEEC8BF032D019EC8CF02FD026
:101DB0006BEC89F02CD058EC8FF02D9EFF0059EC85
:101DC00092F025D066EC87F022D02D9EFF001FD028
:101DD0004EEC9BF01CD03A50010AD8B4E0D7030A6D
:101DE000D8B4E0D7010AD8B4F3D7070AD8B4DDD7FE
:101DF0000C0AD8B4DDD7180AD8B4DDD7300AD8B465
:101E0000DED7600AD8B4DED7C00AD8B4DED72DAE8C
:101E10001200C1D71FC023F020C024F0256A23C0C0
:101E20001FF024C020F03090000E266E20D02650E7
:101E3000010D1FC021F020C022F0F3502126F450E4
:101E4000222221C0F6FF22C0F7FF000EF86E0E0E10
:101E5000F76403D00800F55005D0F6CFE9FFF7CFBF
:101E6000EAFFEF50316E315044EC9BF0262A2650A9
:101E7000010D1FC021F020C022F0F3502126F450A4
:101E8000222221C0F6FF22C0F7FF000EF86E0E0ED0
:101E9000F76403D00800F55005D0F6CFE9FFF7CF7F
:101EA000EAFFEF500009D8A4C2D730A01200B7D77C
:101EB000580EF66EFB0EF76E000EF86E0900F5CFA9
:101EC0001DF00A00F5CF1EF0000E1F6E8DEC98F08D
:101ED0004E0EF66EFB0EF76E000EF86E0900F5CF93
:101EE0001DF00A00F5CF1EF0000E1F6E8DEC98F06D
:101EF000200EF66EFB0EF76E000EF86E0900F5CFA1
:101F00001DF00A00F5CF1EF0000E1F6E8DEC98F04C
:101F1000CB0E246EFE0E256E860EF66EFB0EF76E51
:101F2000000EF86E0800F5CF26F05DEC8AF0520E38
:101F30002A6E2B0E296E000EE82EFED7292EFCD716
:101F40002A2EFAD700D01200256E320EF66EFB0E46
:101F5000F76E000EF86E0900F5CF23F00900F5CFFB
:101F600024F0255023241D6E000E24201E6E00EC4C
:101F70009BF0266EC9EC9BF00E01CA9B5E0EF66EBE
:101F8000FB0EF76E000EF86E0900F5CF27F00A0081
:101F9000F5CF28F026C01DF01E6A5C0EF66EFB0E13
:101FA000F76E000EF86E0900F5CF1FF00A00F5CFAE
:101FB00020F046EC9AF01D1E1E1E1D4A1E2A2750B8
:101FC0001D24276E28501E20286E27C01DF028C013
:101FD0001EF0B5EC9BF0CBEC9BF01200900EF66E71
:101FE000FB0EF76E000EF86E0800F550D3EC99F07A
:101FF000EB0E246EFF0E256E850EF66EFB0EF76E51
:10200000000EF86E0800F5CF26F05DEC8AF0D70ED2
:10201000246E000E256E850EF66EFB0EF76E000E1A
:10202000F86E0800F550050F266E5DEC8AF0F10E93
:10203000246EFF0E256E840EF66EFB0EF76E000EFC
:10204000F86E0800F5CF26F05DEC8AF0CD0E246E18
:10205000000E256E840EF66EFB0EF76E000EF86E07
:102060000800F550050F266E5DEC8AF012002B6E0D
:102070006B0E246EFE0E256E840EF66EFB0EF76E52
:10208000000EF86E0800F5CF26F05DEC8AF06B0EBE
:10209000246EFE0E256E830EF66EFB0EF76E000E9E
:1020A000F86E0800F5CF26F05DEC8AF0100E246E75
:1020B000FF0E256E840EF66EFB0EF76E000EF86EA8
:1020C0000800F5CF26F05DEC8AF02A50300927ECA5
:1020D00094F02A2AA70E246EFE0E256E830EF66E4D
:1020E000FB0EF76E000EF86E0800F5CF26F05DECE3
:1020F0008AF02B50276E286A296AABEC8DF012000B
:10210000030E0001FE6F07EC96F00009D8B411D061
:10211000BCEC9AF007EC96F00009D8B403D00E019D
:10212000CEA3F8D70E01CEA302D0010E1200000EEE
:102130001200D1EC9BF0ADEC9AF00CD00E01CEA7C2
:1021400009D052EC98F00009D8B404D0D3EC9BF03D
:10215000010E120007EC96F00009D8B4EFD7D3ECCB
:102160009BF0BCEC9AF0D1EC9BF007EC96F00009E8
:10217000D8B403D00E01CEA3F8D7D3EC9BF00E0158
:10218000CEA302D0010E1200000E12002A6E100E15
:10219000246EFF0E256E860EF66EFB0EF76E000E99
:1021A000F86E0800F5CF26F05DEC8AF02A2A2A5056
:1021B000300927EC94F0010E2B6E1C0E246EFF0EDE
:1021C000256E850EF66EFB0EF76E000EF86E08009B
:1021D000F5CF26F05DEC8AF0840EF66EFB0EF76EFE
:1021E000000EF86E0800F550F4EC9AF010D029A01B
:1021F0000AD02B50300927EC94F02C0E27EC94F0E9
:10220000200E27EC94F02B2AD8902930296E080E46
:102210002B64EDD7120040860DD0000E246E820E86
:10222000F66EFB0EF76E000EF86E0800F55072ECBD
:1022300088F0286E40B6F1D700F0000E246E7F0EB5
:10224000F66EFB0EF76E000EF86E0800F55072EC9D
:1022500088F0296E29062950010D600EF324D96EED
:10226000000EF420DA6EDF50276E750EF66EFB0E50
:10227000F76E000EF86E0800F5502718D8A412006B
:10228000000E246E7F0EF66EFB0EF76E000EF86EDB
:102290000800F55072EC88F0296E12002B6E84EC69
:1022A0008CF0000E846E000E866E838A8594010E7B
:1022B000346E2BC029F034C02AF0292A02D0D890DD
:1022C0002A36292EFCD72A50346E2B50A4EC8FF0DE
:1022D00006D034500F0B846E3450F00B866E0F0115
:1022E0003DB103D00E01CAABF4D7000E846E000ED0
:1022F000866EC9EC9BF00E01CAAB12002B50A4EC09
:102300008FF00F013DB103D00E01CAABFAD70E0119
:10231000CAAB12002D822B50EFEC94F0000E396EF8
:1023200012002B6E14D02A04D8A405D02B2A1AD060
:102330002A04D8A402D0050E06D02B0613D02A04F6
:10234000D8A403D0010E2B6E0DD0020EFCD72B505B
:10235000010AD8B4E8D7030AD8B4EAD7070AD8B430
:10236000EED7F3D7730E246EFF0E256E37C026F01E
:102370005DEC8AF0460EF66EFB0EF76E000EF86E00
:102380000900F5CF1DF00A00F5CF1EF02BC01FF09D
:102390008DEC98F03750F4EC9AF02B50276E286AA9
:1023A000296AABEC8DF01200000E876E000E866E6F
:1023B000000E836E000E846E000E856E000E8C6E15
:1023C0001F0E886ED00E896E900E8A6E000E8B6E78
:1023D000000E0F01266F000E216FC00E196F000E48
:1023E0002E6F010E116F000E256F000E2D6F100E57
:1023F000186F000E106F000E206F000E2C6F000E75
:102400000F6F200E176F080E1F6F000E246F0E69DE
:1024100016691E692369070E2B6F170E0E01B56F23
:102420000B0EF46F090EFD6F0C0E8D6F1200000E77
:10243000226E20AE06D01F6C201ED8B0202A010EBE
:10244000226E1EAE06D01D6C1E1ED8B01E2A010EB6
:10245000221A000E246E000E236E1F502010D8B4D6
:102460001CD0010E216E04D0D8901F362036212AB0
:1024700020AEFAD7D890233624361F501D5C20504A
:102480001E58D8A005D01F501D5E20501E5A238014
:10249000D89020321F32212EEDD72250D8B404D04C
:1024A000236C241ED8B0242A23C01DF024C01EF0A3
:1024B00012002E80B90E246EFE0E256E860EF66E6C
:1024C000FB0EF76E000EF86E0800F5CF26F05DECFF
:1024D0008AF06D0E246EFC0E256E850EF66EFB0ED8
:1024E000F76E000EF86E0800F5CF26F05DEC8AF06E
:1024F0000ED072EC97F03A6E3A50D8B403D03A50FE
:10250000DAEC86F0E7EC9AF00009D8B42E902EB001
:10251000F0D7950E246EFB0E256E860EF66EFB0E22
:10252000F76E000EF86E0800F5CF26F05DEC8AF02D
:102530001200150E0001E56F4B0EE46FBE0EE82E83
:10254000FED7E42FFCD7E52FFAD700F072EC97F016
:1025500002D072EC97F03A6E040E3A18D8B4F9D75C
:102560002E8A390E246EFD0E256E860EF66EFB0E3B
:10257000F76E000EF86E0800F5CF26F05DEC8AF0DD
:1025800072EC97F03A6E10D072EC97F03A6E3A50C7
:10259000D8B405D03A50CBEC9AF0F1EC88F0E7ECE7
:1025A0009AF00009D8B42E9A2EAA1200EDD72B6EFD
:1025B000408C2B50BAEC99F034D072EC97F03A6E14
:1025C00026D03F502B103F6E6BEC9AF02B50BAEC9C
:1025D00099F027D02B50FF0A3F143F6E6BEC9AF016
:1025E0002B50BAEC99F01DD0409CE50E246EFB0EEA
:1025F000256E860EF66EFB0EF76E000EF86E080066
:10260000F5CF26F05DEC8AF0000E3A6E0AD03A5013
:10261000010AD8B4D6D7030AD8B4DCD7820AD8B412
:10262000E3D740AC1200C9D72B6E90EC9BF00009A9
:10263000D8B409D0F70E246EFF0E256E2BC026F0FD
:102640005DEC8AF008D0FB0E246EFF0E256E2BC0C9
:1026500026F05DEC8AF04A0EF66EFB0EF76E000E69
:10266000F86E0900F5CF1DF00A00F5CF1EF038C056
:102670001FF08DEC98F0730E246EFF0E256E2AC0AD
:1026800026F05DEC8AF02A50F4EC9AF00F013451F8
:10269000276E286A296AABEC8DF01200DB0E1F6EE4
:1026A000FE0E206E0AEC8FF0020E236E060E246ED4
:1026B000010E5EEC96F030A40ED0940E1F6EFE0E4E
:1026C000206E0AEC8FF0020E236E060E246E0B0EA7
:1026D0005EEC96F00DD02A0E1F6EFE0E206E0AECF8
:1026E0008FF0020E236E060E246E030E5EEC96F043
:1026F0003E0E1F6EFF0E206E0AEC8FF0020E236E50
:10270000060E246E010E5EEC96F01200296ED1ECDE
:102710009BF0000E3D6E27D080EC90F0286E28468E
:10272000284628462D502818F70B28182D6E2DA660
:1027300018D0D3EC9BF03D501FEC95F02D86200E69
:10274000F66EFB0EF76E000EF86E0900F5CF1DF069
:102750000A00F5CF1EF0010E1F6E8DEC98F0295087
:1027600012003D2A29062950D8A4D6D7D3EC9BF0D5
:102770003D501FEC95F029501200150E2B6E4B0E9C
:102780002A6EBE0EE82EFED72A2EFCD72B2EFAD7A5
:1027900000D04C0EF66EFB0EF76E000EF86E0900C0
:1027A000F5CF1DF00A00F5CF1EF000EC9BF03F6E58
:1027B0003FC0AEF018EC9BF0409240900BEC91F0D3
:1027C00050EC97F08DEC9AF0000E246E7F0EF66EB2
:1027D000FB0EF76E000EF86E0800F55072EC88F0F4
:1027E0002C6E1200000E236E000E246E000E256E5D
:1027F000205021102210D8B423D0010E266E05D00F
:10280000D890203621362236262A22AEF9D7D89003
:1028100023362436253620501D5C21501E58225068
:102820001F58D8A007D020501D5E21501E5A22509C
:102830001F5A2380D890223221322032262EE7D709
:1028400023C01DF024C01EF025C01FF01200236E0F
:1028500087842350D3EC99F021D0850EF66EFB0EC1
:10286000F76E000EF86E0800F550F4EC9AF020D0E8
:10287000840EF66EFB0EF76E000EF86E0800F55033
:10288000F4EC9AF015D0830EF66EFB0EF76E000E88
:10289000F86E0800F550F4EC9AF00AD04550130A8F
:1028A000D8B4DBD7340AD8B4EED7740AD8B4E0D79A
:1028B00087941200AE0EF66E370EF76E010EF86EAC
:1028C0000900F5CFFEF00900F5CFFFF002EE02F0AF
:1028D00016EE00F0EE6AE550E150FCE1E250FAE15C
:1028E00001EE00F011EE00F0EE6AE550E150FCE17F
:1028F000E250FAE100EE60F0810EEE6AE806FDE1DA
:1029000000EE2DF0210EEE6AE806FDE14E6A4F90D2
:102910004F92000106EF85F0000E316E000E1D6E25
:102920000ED06BEC9BF0316E1D50010D020EF324A6
:10293000D96E060EF420DA6E31C0DFFF1D2A530E69
:102940003118D8B40FD0EDD76BEC9BF0316E1D5021
:10295000010D020EF324D96E060EF420DA6E31C09A
:10296000DFFF1D2A0A0E3118D8A4EED7309402C614
:10297000E8FF2B0AD8A4120030841200A60E246EA1
:10298000FC0E256E860EF66EFB0EF76E000EF86ED0
:102990000800F5CF26F05DEC8AF02E861DD072EC93
:1029A00097F03A6E3A50D8B412D03A50CBEC9AF035
:1029B00042EC8BF0520E0001E76F2B0EE66F000E1B
:1029C000E82EFED7E62FFCD7E72FFAD700F0E7EC8A
:1029D0009AF00009D8B42E962EA61200E0D7236EE6
:1029E000010E246E23C021F024C022F0212A02D03F
:1029F000D8902236212EFCD72250246E4E0EF66E31
:102A0000FB0EF76E000EF86E0900F5CF1DF00A0000
:102A1000F5CF1EF000EC9BF02410246E4E0EF66EE7
:102A2000FB0EF76E000EF86E0900F5CF1DF00A00E0
:102A3000F5CF1EF024C01FF08DEC98F01200276E29
:102A4000480EF66EFB0EF76E000EF86E0900F5CF1D
:102A50001FF00A00F5CF20F04C0E216E000E226E02
:102A6000020E236E6CEC99F027504C244C6E000E35
:102A70004D204D6E480EF66EFB0EF76E000EF86E92
:102A80000900F5CF21F00A00F5CF22F04C0E236E9D
:102A9000000E246E020E256E00EC99F01200839E4B
:102AA000838C020E1E6E380E1D6EAD0EE82EFED704
:102AB0001D2EFCD71E2EFAD700F08DCF1DF0D8901A
:102AC0001D320F0E1D161D38F00B1F6E838E839C5A
:102AD000020E1E6E380E1D6EAD0EE82EFED71D2E98
:102AE000FCD71E2EFAD700F0D8908D300F0B1F1098
:102AF0001F6E838E838C1F50FF0A1200236E000E00
:102B0000846E000E866E8594010E346E23C021F013
:102B100034C022F0212A02D0D8902236212EFCD7B0
:102B20002250346E84EC8CF0838A34500F0B846E08
:102B30003450F00B866E150E226E4B0E216EBE0EBB
:102B4000E82EFED7212EFCD7222EFAD700D0000E79
:102B5000846E000E866E1200246E540EF66EFB0E0E
:102B6000F76E000EF86E0900F5CF21F00900F5CFE1
:102B700022F0245021241D6E000E22201E6E00EC37
:102B80009BF0236E232A540EF66EFB0EF76E000E9A
:102B9000F86E0900F5CF21F00900F5CF22F024509E
:102BA00021241D6E000E22201E6E23C01FF08DEC0E
:102BB00098F01200286E580EF66EFB0EF76E000E9F
:102BC000F86E0900F5CF1DF00A00F5CF1EF000ECFD
:102BD0009BF03B6E3B5028243B6E580EF66EFB0E6E
:102BE000F76E000EF86E0900F5CF1DF00A00F5CF64
:102BF0001EF03BC01FF08DEC98F03B50D8B403D0D2
:102C00002D802D942D882850ECEC8CF012002FA2F2
:102C100002D0010E01D0000E1D6E8EA802D0010E52
:102C200001D0000E1D1AD8A416D02FA208D0680E0D
:102C30001D6EE40EE82EFED71D2EFCD70BD0020E23
:102C40001E6EA00E1D6E920EE82EFED71D2EFCD716
:102C50001E2EFAD700D08EA803D02F92000E12009D
:102C60002F82010E1200216E580EF66EFB0EF76ECB
:102C7000000EF86E0900F5CF1DF00A00F5CF1EF02A
:102C800000EC9BF03B6E215000083B243B6E580E3D
:102C9000F66EFB0EF76E000EF86E0900F5CF1DF014
:102CA0000A00F5CF1EF03BC01FF08DEC98F03B50B2
:102CB000D8A412002D902D842D981200256E23C0CB
:102CC0001DF024C01EF0020E206E000E1F6E1BECC5
:102CD0009AF0000E266E000E316E17D06BEC9BF052
:102CE000316E30B212002650010DF3502324D96EFC
:102CF000F4502420DA6E31C0DFFF262A0A0E311884
:102D0000D8B402D03150D8B425062550D8B412001A
:102D1000E5D72A6E2AC03BF03B5033EC96F0460EC6
:102D2000F66EFB0EF76E000EF86E0900F5CF1DF083
:102D30000A00F5CF1EF000EC9BF02B6E2BC01DF0AF
:102D40002A5070EC98F03E6E3E5086EC93F03E6E4A
:102D50003E50D8B412003E502B02F3CF3EF03E500E
:102D6000DAEC95F01200205021102210D8B41ED0B9
:102D7000010E236E05D0D890203621362236232A24
:102D800022AEF9D720501D5C21501E5822501F58EA
:102D9000D8A006D020501D5E21501E5A22501F5A26
:102DA000D890223221322032232EECD71DC01DF0C4
:102DB0001EC01EF01FC01FF012000001E26FE2C033
:102DC00032F0340EF66EFB0EF76E000EF86E090050
:102DD000F5CF1DF00A00F5CF1EF000EC9BF00001CE
:102DE000E16F3A50E1150009D8B404D0E2517EEC0D
:102DF00095F004D00001E2514EEC91F02DB212009A
:102E00003250ACEC95F01200390E246EFD0E256E9A
:102E1000860EF66EFB0EF76E000EF86E0800F5CF0C
:102E200026F05DEC8AF072EC97F03A6E2E8C10D0A2
:102E300072EC97F03A6E3A50D8B405D03A50CBECD9
:102E40009AF04BEC86F0E7EC9AF00009D8B42E9C8F
:102E50002EAC1200EDD7000E216E1ED02150010DB8
:102E60007F0EF324D96E000EF420DA6E500EF66E4B
:102E7000FB0EF76E000EF86E0900F5CF1FF009008B
:102E8000F5CF20F021501F241D6E000E20201E6E55
:102E900000EC9BF0DF6E212A070E2164DFD71200C1
:102EA0002FA802D0000E3F6E000E31EC9AF0030EF8
:102EB0000001B06F000E606F000E616F3FC062F0E6
:102EC000000E636FB0C024F07E0EF66EFB0EF76E40
:102ED000000EF86E0800F55072EC88F00001B06F3B
:102EE000409812004FEC95F00009D8A402D0000ED3
:102EF00012004FEC95F0236E23C022F003D04FEC6C
:102F000095F0226E2250D8A4FAD7290E216E960E83
:102F1000206E7F0EE82EFED7202EFCD7212EFAD76A
:102F200000F02350120087CF1DF086CF1EF087944B
:102F300087828B500F098B6EA4EC9BF09038F00BBE
:102F4000456E9EEC9BF0A4EC9BF090500F0B45104F
:102F5000456E87908B50F00B8B6E87921EC086FF5C
:102F60001DC087FF45501200000E1E6E7FC035F059
:102F700017D01E50010D7F0EF324D96E000EF420E1
:102F8000DA6E3550DE5CD8B00AD01E50010D7F0ECF
:102F9000F324D96E000EF420DA6EDF50356E1E2A4F
:102FA000070E1E64E6D71200000E1E6E7FC036F0BC
:102FB00017D01E50010D7F0EF324D96E000EF420A1
:102FC000DA6EDE50365CD8B00AD01E50010D7F0E8E
:102FD000F324D96E000EF420DA6EDF50366E1E2A0E
:102FE000070E1E64E6D712002A6E900EF66EFB0ED8
:102FF000F76E000EF86E0800F550D3EC99F0850ED0
:10300000F66EFB0EF76E000EF86E0800F550040F1A
:10301000F4EC9AF0520E27EC94F02A50276E286AAE
:10302000296AABEC8DF01200F29C0E01C58FBCEC4E
:103030009AF0BD8E9DEC9AF0EEEC8FF0F28C30960B
:103040000AD0CDAF08D0000E236E010E246E010E03
:103050005EEC96F030860E01CEA3F3D74850D8A48C
:1030600000F0F29CE4D7560EF66EFB0EF76E000EE3
:10307000F86E0900F5CF21F00A00F5CF22F00AD052
:1030800021C01DF022C01EF0000E1F6E8DEC98F0C6
:10309000214A222A225004E10C0E215CD8A0F0D74C
:1030A000FF0012000001FE07D3EC9BF0A30E1E6E82
:1030B000570E1D6E020EE82EFED71D2EFCD71E2EBB
:1030C000FAD700D0ADEC9AF00001FE51800A7F0FD4
:1030D000D8A004D0D1EC9BF0000E1200010E12001B
:1030E0001E6E000E206E1D50D8B415D0010E1F6E3E
:1030F00003D0D8901D361F2A1DAEFBD7D89020369E
:103100001D501E5CD8A003D01D501E5E2080D8909C
:103110001D321F2EF3D720501200000EF2BE010EFA
:10312000206E1E50030B7F6E1DC07EFF1FC080FFF0
:103130003F0E81168184F29E550E826EAA0E826E1B
:10314000818281B2FED7819420B002D0F29E01D05C
:10315000F28E1200D5EC9BF0D9EC9AF0D4EC91F001
:103160000CEC9BF0ADEC9AF0BCEC9AF004EC9AF00D
:1031700058EC9BF036EC99F0AAEC9BF01BEC99F024
:1031800051EC99F039EC9BF0C7EC98F012000E016D
:10319000C59FB20E1D6E340E1E6E010E1F6E97EC93
:1031A0009BF0080E0E019F6F900E9D6F240E9E6F78
:1031B000400E9B6F030E9C6F000E486E000E476E14
:1031C000000E466EC58F1200900EF66EFB0EF76E67
:1031D000000EF86E0800F550D3EC99F029C024F0E9
:1031E0002AC025F0850EF66EFB0EF76E000EF86E07
:1031F0000800F5CF26F05DEC8AF04550020F120072
:10320000000E266E13D0265021241D6E000E2220A3
:103210001E6E2650010DF3502324D96EF450242045
:10322000DA6EDF501F6E8DEC98F0262A2550265C52
:10323000D8B01200E8D7000EC46E000EC56E040EA2
:10324000C66EE10EC26EBA0EC16EC150C2CF1DF085
:103250001E6A1DC01EF01D6A1D100001F76F1E5072
:10326000F86F0E01CE99010EC36E1200000ECA6EE9
:10327000000ECB6E050ECC6E9E0EC86E580EC76E3D
:10328000C750C8CF1DF01E6A1DC01EF01D6A1D105C
:103290000001F96F1E50FA6F0E01CE95010EC96E36
:1032A0001200000ED06E000ED16E050ED26EF60E1C
:1032B000CE6E3C0ECD6ECD50CECF1DF01E6A1DC021
:1032C0001EF01D6A1D100001FB6F1E50FC6F0E01E9
:1032D000CE91010ECF6E1200000E246E12D024503B
:1032E000010DF3502124D96EF4502220DA6E2450BF
:1032F0001F241D6E000E20201E6E00EC9BF0DF6E62
:10330000242A2350245CD8B01200E9D7840EF66E2C
:10331000FB0EF76E000EF86E0800F550F4EC9AF014
:10332000AE0E246EFD0E256E840EF66EFB0EF76E4D
:10333000000EF86E0800F5CF26F05DEC8AF0120062
:10334000F70E246EFE0E256E860EF66EFB0EF76EE1
:10335000000EF86E0800F5CF26F05DEC8AF07CECEC
:103360009AF02A6E2A50276E286A296AABEC8DF0F3
:103370002D981200296E29503F142A6E2A50D8B475
:1033800009D0870E246EFF0E256E42C026F05DEC3C
:103390008AF012007D0E246EFF0E256E42C026F0CC
:1033A0005DEC8AF01200206E86CF1FF093EC97F050
:1033B00002D093EC97F0456E45BEFBD720380F0B3B
:1033C0000F0B866E2EEC9BF020500F0B866E2EECB2
:1033D0009BF01FC086FF12000E0E246EFE0E256E9F
:1033E000860EF66EFB0EF76E000EF86E0800F5CF37
:1033F00026F05DEC8AF060C0B3F00001B351EFEC51
:1034000087F040922D9C1200820ED66EA50ED46ECF
:103410002E0ED36ED350D4CF1DF01E6A1DC01EF0E9
:103420001D6A1D100001F56F1E50F66F0E01CA9B3C
:10343000900ED56E1200000E226E000E216E0AD084
:1034400021501D24D96E22501E20DA6E000EDF6E30
:10345000214A222A1F50215C20502258D8B0120045
:10346000EFD7226E000E236E0BD02350010D600E9D
:10347000F324D96E000EF420DA6E22C0DFFF232A77
:103480001F0E2364F2D72BEC97F012001D501F0281
:10349000F3CF21F0F4CF22F01D502002F35022266A
:1034A0001E501F02F350222621C01DF022C01EF024
:1034B00012000E019DA302D09D999D894850010DD7
:1034C000020EF324D96E020EF420DA6E99CEDFFFDD
:1034D000482A462A12004C0EF66EFB0EF76E000EBE
:1034E000F86E0900F5CF1DF00A00F5CF1EF03FC0C1
:1034F0001FF08DEC98F01200580EF66EFB0EF76E72
:10350000000EF86E0900F5CF1DF00A00F5CF1EF091
:1035100000EC9BF03B6E3B501200000E31EC9AF039
:10352000010E246E800EF66EFB0EF76E000EF86E26
:103530000800F55072EC88F012005F0E1F6EFF0E4F
:10354000206E0AEC8FF0020E236E060E246E020E21
:103550005EEC96F097EC83F01200040EB96E000E4C
:10356000B86E000EBA6EA00EB66E000EB56E0E01ED
:10357000CE97F80EB76E1200050EBF6E200EBE6E0F
:10358000000EC06E7A0EBC6E000EBB6E0E01CE93A6
:10359000F10EBD6E12001D6E000E326E04D0322A86
:1035A000D8901D301D6E1D50D8A4F9D73206325068
:1035B0001200000E0E01E16F000EE26F000EE36FCD
:1035C000000EE46F000EE56F000EE66F1200010EB4
:1035D0000F01346FA00E00D0E82EFDD73DCF1DF0B7
:1035E00038C034FF1D501200216E44C022F0879471
:1035F00021508009D3EC99F0878422C044F0120056
:103600001E50030B7F6E1DC07EFF3F0E8116818012
:1036100000F000F080501200600E0E01D86F000E16
:10362000DA6F000EDC6F080EDE6F000EDD6F120029
:10363000080E9F6ED00E9D6EEC0E9E6E380E9B6E29
:10364000010E9C6E1200300E04D0245027EC94F032
:103650002428246E7F0E2464F8D712008780050E7C
:10366000E82EFED700F08790050EE82EFED700F07A
:103670001200080E9F6ED00E9D6EEC0E9E6E820E96
:103680009B6E060E9C6E12001E6E0E019E8B1E50CF
:1036900089EC9BF00E019EB31200FCD7050E86EC60
:1036A00093F00009D8A402D000F0120000F012003C
:1036B000900E0F01396F000E3A6F000E3B6F050E32
:1036C0003C6F12000E01CDABFDD79DA202D09D989C
:1036D0009D88995012000E01CDAFFDD79DA302D059
:1036E0009D999D89995112001E6E1E507BEC9BF096
:1036F000C6EC9BF012001D6E0E01CDA9FDD71DC0BA
:103700009AFF1200410E44EC9BF0540E44EC9BF0E7
:1037100012001D6E0E01CDADFDD71DC09AFE120028
:103720000F013DA102D0010E1200000E12001DC0BB
:10373000F2F01EC0F3F01FC0F4F012008790050EE7
:10374000E82EFED700F012008780050EE82EFED787
:1037500000F01200800E0F01336F0E0E346F120056
:10376000000E3F6E50EC97F012001E50D46E1DC03C
:10377000D3FF12008586ADEC9AF0B78E12001D6E55
:103780001DC034FF12009FBC1200FDD79EB2120074
:10379000FDD7D59E1200D58E120085801200859629
:1037A00012008582120085921200F29A120003FF25
:020000040020DA
:10000000FF0FFF0FFF0FFF0FFF0FFF0FFF0FFF0F80
:020000040030CA
:0C0000008CFFFFF79FFFFFFFFFFFFFFFDB
:00000001FF
