:0400000055EF00F0C8
:100008004F82FACF0BF0FBCF0CF0E9CF0DF0EACF1F
:100018000EF0E1CF0FF0E2CF10F0D9CF11F0DACF28
:1000280012F0F3CF13F0F4CF14F0F6CF15F0F7CFAA
:1000380016F0F8CF17F0F5CF18F04FC019F050C0F0
:100048001AF051C01BF052C01CF00E01C2B9CAA967
:1000580002D06DEC90F01CC052F01BC051F01AC0D9
:1000680050F019C04FF018C0F5FF17C0F8FF16C0C0
:10007800F7FF15C0F6FF14C0F4FF13C0F3FF12C05A
:10008800DAFF11C0D9FF10C0E2FF0FC0E1FF0EC0B8
:10009800EAFF0DC0E9FF0CC0FBFF0BC0FAFF4F924F
:0600A8001100FCEF8DF0D9
:10FAAC00005075736820427574746F6E20746F20EB
:10FABC004C696E6B205075736820616761696E20AC
:10FACC00746F20556E6C696E6B507573682053653E
:10FADC00727669636520746F2045786974002050D4
:10FAEC0072657373204368616E6E656C2056656E2B
:10FAFC006420427574746F6E206F7220507265733F
:10FB0C0073202020202020205365727669636520A5
:10FB1C00746F204578697400486F6C642063686169
:10FB2C006E6E656C20627574746F6E206F722050EF
:10FB3C00757368207365727669636520746F202015
:10FB4C0065786974005075736820627574746F6E93
:10FB5C00203120746F20636C656172206372656460
:10FB6C00697473202020616E64206578697400507C
:10FB7C00726573732031203D202B206F7220322050
:10FB8C003D202D20205072657373203820746F2017
:10FB9C004578697400205075736820627574746FB1
:10FBAC006E20746F202020202076656E64005072C9
:10FBBC00657373207365727669636520746F206555
:10FBCC00786974002020496E697469616C697A6582
:10FBDC0020486F70706572004E6F204368616E67CD
:10FBEC006520476976656E0020205365747570201A
:10FBFC0053656E736F72002020496E7365727420AA
:10FC0C004E6F74650020204175646974204D6F64DB
:10FC1C006500507269636520520045786974002E46
:10FC2C00002D002C002B002A00290028002700267C
:10FC3C00002500240023002200210020001F001EAC
:10FC4C00001D001C001A001900180017000F0007F7
:10FC5C0000040002000000461E230FBAE1FEFDF274
:10FC6C00DBDAECACA8A7A6A4A30101030C0B0A09D0
:10FC7C0008070605040302013336353433323130BC
:10FC8C0054144000181B080705040602A8010C2C8C
:10FC9C00282431203D2041756469742032203D2098
:10FCAC0053656E736F72333D486F702D436F696E81
:10FCBC0020343D4E6F74652D656E353D4372656421
:10FCCC002D636C7220363D50726963657320373D2D
:10FCDC0056656E6420736574757020383D4578697F
:10FCEC007400507573682031203D2056656E642079
:10FCFC0054696D652C2032203D204368616E204C88
:10FD0C00696E6B2C20202020202033203D20536551
:10FD1C006E736F72204F66662C20202020203420BA
:10FD2C003D2052657365742C2038203D2065786920
:10FD3C007400456E61626C65202F204469736162AA
:10FD4C006C652020202031203D205231302C203277
:10FD5C00203D205232302020202033203D205235AF
:10FD6C00302C2034203D20523130302020203520C2
:10FD7C003D205232303000507265737320636861DD
:10FD8C006E6E656C20627574746F6E20202020740A
:10FD9C006F207365742070726963652020202020A9
:10FDAC002053657276696365203D2045786974003F
:10FDBC005072657373206368616E6E656C2062753A
:10FDCC0074746F6E20202020746F206C696E6B2011
:10FDDC00746F202020202020536572766963652083
:10FDEC003D204578697400486F7070657220436FD0
:10FDFC00696E202020202020202020427574746FF2
:10FE0C006E2031203D202B20262032203D202D201D
:10FE1C0056616C7565203D205200496E7365727495
:10FE2C00204E6F7465732026205072657373204CBE
:10FE3C0069676874656420427574746F6E20546FC2
:10FE4C0020202020202056656E6400507573682099
:10FE5C0031203D202B2E35207365636F6E6420504E
:10FE6C007573682032203D202D2E35207365636F0D
:10FE7C006E64200050757368206368616E6E656CEB
:10FE8C0020627574746F6E20507573682073657280
:10FE9C007669636520746F20657869740020202072
:10FEAC002020496E697469616C697A652020202074
:10FEBC002020202020204E6F7465205265616465DF
:10FECC007200526573657420746F204465666175A9
:10FEDC006C74202020205374617274204167616916
:10FEEC006E00507573682031203D204F6E2C2032EF
:10FEFC00203D204F66662C2038203D2045786974C3
:10FF0C00002020204E6F7465206572726F72202065
:10FF1C00202020636F6465203D2030780020202055
:10FF2C0020202020202020202020202020202020C5
:10FF3C00200054696D6520696E20312F3273656322
:10FF4C00203D200020202050726963652073657469
:10FF5C00206D6F6465004372656469747320436C33
:10FF6C0065617265640053656E7369746976697452
:10FF7C007920002020437265646974203D20520072
:10FF8C002020204368616E6E656C20006C696E6B7E
:10FF9C00656420746F203A0053656E736F7220692C
:10FFAC0073200020202020202020202000206469A5
:10FFBC007361626C65640020656E61626C656420BF
:10FFCC0000202020523130202000202052323030AE
:10FFDC00200020205231303020002020523530209B
:10FFEC00200020205232302020004F6666004F6ED9
:03FFFC00200000E2
:020000040001F9
:100000004DEC8EF0000E1F6E880EF66EFC0EF76E35
:10001000000EF86E0800F550A3EC82F0226E60C06E
:1000200040F0000160AF50D060517F0B406E19D09E
:100030000A0E3B6E3B501200140E3B6E3B501200FA
:10004000320E3B6E3B501200640E3B6E3B50120072
:10005000C80E3B6E3B501200100E3B6E3E823B5072
:1000600012004050000AD8B4E3D7010AD8B4E4D74C
:10007000030AD8B4E5D7010AD8B4E6D7070AD8B43A
:10008000E7D7EAD7000E3B6E3B501200010E1AD0A4
:10009000020E18D0000E3B6E3E923B501200040E32
:1000A00011D0050E0FD0060E0DD0070E0BD0080E86
:1000B00009D0090E07D00A0E05D00B0E03D00C0E86
:1000C00001D0000E3B6E2AD000016051000AD8B466
:1000D000D9D7010AD8B4DAD7030AD8B4D9D7010AD4
:1000E000D8B4D8D7070AD8B4DAD7010AD8B4D9D740
:1000F000030AD8B4D8D7010AD8B4D7D70F0AD8B4CE
:10010000D6D7010AD8B4D5D7030AD8B4D4D7010AB0
:10011000D8B4D3D7070AD8B4D2D7D3D73E823B506E
:1001200012000001AA6F2D820001AA5199EC8FF0F4
:100130000001AB6F590EF66EFC0EF76E000EF86EF6
:100140000900F5CFA8F00900F5CFA9F0AB51A8251B
:100150001D6E000EA9211E6ECFEC8FF0386E385048
:1001600086EC8DF067D0D0EC8EF00001AA6F57D0EE
:10017000382A590EF66EFC0EF76E000EF86E090066
:10018000F5CFA8F00900F5CFA9F0AB51A8251D6E59
:10019000000EA9211E6E38C01FF0C3EC8DF0385040
:1001A00086EC8DF047D03806590EF66EFC0EF76ED1
:1001B000000EF86E0900F5CFA8F00900F5CFA9F000
:1001C0000001AB51A8251D6E000EA9211E6E38C07E
:1001D0001FF0C3EC8DF0385086EC8DF02BD02D92B3
:1001E000500E246EFF0E256E8F0EF66EFC0EF76E0F
:1001F000000EF86E0800F5CF26F075EC87F0830E40
:10020000246EFD0E256E8E0EF66EFC0EF76E000E41
:10021000F86E0800F5CF26F075EC87F00BD00001E2
:10022000AA51010AD8B4A4D7030AD8B4BCD7820A09
:10023000D8B4D5D72DA2120096D72D84EE0E246EF9
:10024000FC0E256E8F0EF66EFC0EF76E000EF86E2D
:100250000800F5CF26F075EC87F06FD0D0EC8EF06B
:10026000396E5BD0D2EC8CF0EE0E246EFC0E256E57
:100270008F0EF66EFC0EF76E000EF86E0800F5CFCE
:1002800026F075EC87F059D0C4EC8BF0EE0E246E9E
:10029000FC0E256E8F0EF66EFC0EF76E000EF86EDD
:1002A0000800F5CF26F075EC87F047D0F9EC8CF01C
:1002B000EE0E246EFC0E256E8F0EF66EFC0EF76EA3
:1002C000000EF86E0800F5CF26F075EC87F035D0FB
:1002D000CFEC87F0EE0E246EFC0E256E8F0EF66EC0
:1002E000FC0EF76E000EF86E0800F5CF26F075ECE8
:1002F00087F023D02D94BAEC8AF09E0E246EFC0E6B
:10030000256E8F0EF66EFC0EF76E000EF86E08006E
:10031000F5CF26F075EC87F010D03950010AD8B42B
:10032000A1D7030AD8B4B0D7060AD8B4BFD70C0AED
:10033000D8B4CED7880AD8B4DDD72DA412008ED772
:10034000266E26C024F0243A0F0E24160A0E2460CE
:100350001ED026380F0B300991EC8BF033D0410EB4
:1003600091EC8BF02FD0420E91EC8BF02BD0430E02
:1003700091EC8BF027D0440E91EC8BF023D0450EFE
:1003800091EC8BF01FD0460E91EC8BF01BD02638F1
:100390000F0B246E256A2550000AD8A413D02450D0
:1003A0000A0AD8B4DCD7010AD8B4DDD7070AD8B412
:1003B000DED7010AD8B4DFD7030AD8B4E0D7010AE0
:1003C000D8B4E1D726C024F00F0E24160A0E2460FC
:1003D0001ED026500F0B300991EC8BF01200410E0D
:1003E00091EC8BF01200420E91EC8BF01200430E58
:1003F00091EC8BF01200440E91EC8BF01200450E44
:1004000091EC8BF01200460E91EC8BF0120026500E
:100410000F0B246E256A2550000AD8A41200245020
:100420000A0AD8B4DCD7010AD8B4DDD7070AD8B491
:10043000DED7010AD8B4DFD7030AD8B4E0D7010A5F
:10044000D8A41200E0D70001AB6F2D88570E246EA0
:10045000FE0E256E8F0EF66EFC0EF76E000EF86E19
:100460000800F5CF26F075EC87F03B0EF66EFC0E1B
:10047000F76E000EF86E0900F5CFA8F00900F5CF71
:10048000A9F00001AB51A8251D6E000EA9211E6E1A
:10049000CFEC8FF00001AA6FABC02AF0AA516DEC2F
:1004A00088F04ED0D0EC8EF0396E40D00001AA2BEF
:1004B0003B0EF66EFC0EF76E000EF86E0900F5CFDF
:1004C000A8F00900F5CFA9F0AB51A8251D6E000ECC
:1004D000A9211E6EAAC01FF0C3EC8DF0ABC02AF09C
:1004E0000001AA516DEC88F02BD00001AA073B0E49
:1004F000F66EFC0EF76E000EF86E0900F5CFA8F050
:100500000900F5CFA9F0AB51A8251D6E000EA92159
:100510001E6EAAC01FF0C3EC8DF0ABC02AF0000124
:10052000AA516DEC88F00CD02D980AD03950010AF0
:10053000D8B4BCD7030AD8B4D8D7820AD8B4F4D771
:100540002DA81200AFD7206E000E216E9E8070EC99
:1005500090F020502EEC90F09E9020C03FF01F5065
:10056000D8B41ED01F28216E18D01F50010D600E68
:10057000F324D96E000EF420DA6EDF502EEC90F0EA
:100580001F50010D600EF324D96E000EF420DA6EB8
:10059000DF503F243F6E21061F062150D8A4E5D727
:1005A0003F502EEC90F0FF0E45EC8FF068EC8EF093
:1005B000000E336E000E326E3E90000E216E1ED085
:1005C000324A332A3E9015D02150010D600EF3249B
:1005D000D96E000EF420DA6E1CEC90F0DF6E67EC42
:1005E00090F09DA002D03E8001D03E9068EC8EF04D
:1005F000212A0E01CDAB02D03EA0E6D70E01CEB12E
:1006000002D03EA0DDD72106CEA102D03E8601D089
:100610003E963EA011D02150010D600EF324D96EFC
:10062000000EF420DA6EDF50D8B406D09E8070EC55
:1006300090F0000E2EEC90F070EC90F02150120033
:100640003E0E246EFD0E256E8F0EF66EFC0EF76EBE
:10065000000EF86E0800F5CF26F075EC87F03E8AA4
:100660003E8C64D0D0EC8EF0396E39C04DF048D05D
:10067000CD0E296EFF0E2A6EE0EC8DF0426E010E5B
:1006800006EC8AF050D0EE0E296EFF0E2A6EE0ECDA
:100690008DF0426E020E06EC8AF045D0E60E296E11
:1006A000FF0E2A6EE0EC8DF0426E040E06EC8AF02E
:1006B0003AD0DE0E296EFF0E2A6EE0EC8DF0426E0F
:1006C000080E06EC8AF02FD0D60E296EFF0E2A6E89
:1006D000E0EC8DF0426E100E06EC8AF024D09E0EF7
:1006E000246EFC0E256E8F0EF66EFC0EF76E000E5D
:1006F000F86E0800F5CF26F075EC87F03E9A13D01F
:100700003950010AD8B4B4D7030AD8B4BCD7060A02
:10071000D8B4C4D70C0AD8B4CCD7180AD8B4D4D714
:10072000900AD8B4DCD73CC03DF000F03EAA1200DD
:1007300099D7F30E246EFD0E256E8F0EF66EFC0E0D
:10074000F76E000EF86E0800F5CF26F075EC87F016
:100750003E8C4650020F366E4F0EF66EFC0EF76E54
:10076000000EF86E0900F5CF1DF00A00F5CF1EF05F
:10077000CFEC8FF00001A86F3650C3EC8FF0000172
:10078000A851276E286A296A1AEC87F03FD0D0EC6E
:100790008EF0396E21D0010E2A6E0001A85183EC33
:1007A00089F024D0020E2A6E0001A85183EC89F052
:1007B0001DD03E9C9E0E246EFC0E256E8F0EF66E96
:1007C000FC0EF76E000EF86E0800F5CF26F075EC03
:1007D00087F0000E396E0AD03950010AD8B4DBD741
:1007E000030AD8B4DFD7820AD8B4E3D74F0EF66E27
:1007F000FC0EF76E000EF86E0900F5CF1DF00A0032
:10080000F5CF1EF0CFEC8FF00001A86F3EAC1200C8
:10081000BED73E8CA40E246EFF0E256E8F0EF66E94
:10082000FC0EF76E000EF86E0800F5CF26F075ECA2
:1008300087F04650020F366E720E246EFF0E256E44
:100840008E0EF66EFC0EF76E000EF86E0800F5CFF9
:1008500026F075EC87F04650020F0001A86FA8C083
:100860002AF0365080EC8AF03DD0D0EC8EF0396E14
:1008700027D037501F0B0F01346F372AA8C02AF03A
:10088000365080EC8AF026D037501F0B0F01346FA2
:100890003706A8C02AF0365080EC8AF01BD03E9C68
:1008A0009E0E246EFC0E256E8F0EF66EFC0EF76EFD
:1008B000000EF86E0800F5CF26F075EC87F00AD030
:1008C0003950010AD8B4D5D7030AD8B4DDD7820A83
:1008D000D8B4E5D70E01CEA505D0A8C02AF0365071
:1008E00080EC8AF03EAC1200C0D700019C6F39C08A
:1008F0009DF02D8E3D0EF66EFC0EF76E000EF86E1E
:100900000900F5CF1DF00A00F5CF1EF0CFEC8FF0F7
:1009100000019E6F9CC029F09DC02AF09E51BFEC43
:1009200086F04BD0D0EC8EF0396E3DD000019D5159
:10093000FF0A9E159E6F3D0EF66EFC0EF76E000EC2
:10094000F86E0900F5CF1DF00A00F5CF1EF09EC02D
:100950001FF0C3EC8DF09CC029F09DC02AF000016F
:100960009E51BFEC86F029D000019E519D119E6FD3
:100970003D0EF66EFC0EF76E000EF86E0900F5CF18
:100980001DF00A00F5CF1EF09EC01FF0C3EC8DF0E5
:100990009CC029F09DC02AF000019E51BFEC86F05A
:1009A0000CD02D9E0AD03950010AD8B4BFD7030A03
:1009B000D8B4DAD7820AD8B4F4D72DAE1200B2D7A1
:1009C000C30E1F6ECD0EE82EFED71F2EFCD700F0F3
:1009D000000E876E000E866EC00E836E000E846E53
:1009E000010E856E000E8C6E1F0E886ED00E896E05
:1009F000800E8A6E000E8B6E000E0F01216FC00EEE
:100A0000196F000E266F000E2E6F010E116F000E73
:100A1000256F000E2D6F000E186F000E106F000E68
:100A2000206F000E2C6F000E0F6F000E176F000E60
:100A30001F6F000E246F010E856E800E8A6E000EF1
:100A4000216F000E206F000E1F6F550E0E01A06F5C
:100A5000AA0EA06FA091B591B593B595B597B5992C
:100A6000000EFD6F000EF46F8D918D938D958D9717
:100A70008D9912EC90F04DEC8EF051EC90F032EC40
:100A80008EF068EC8EF01200276E5F0EF66EFC0E94
:100A9000F76E000EF86E0900F5CF1FF00A00F5CFD3
:100AA00020F04A0E216E000E226E020E236E9DEC87
:100AB0008EF05D0EF66EFC0EF76E000EF86E0900FD
:100AC000F5CF1FF00A00F5CF20F0470E216E000E83
:100AD000226E030E236E9DEC8EF027504A244A6E40
:100AE000000E4B204B6E27504724476E000E4820C7
:100AF000486E000E4920496E5F0EF66EFC0EF76ED2
:100B0000000EF86E0900F5CF21F00A00F5CF22F0B3
:100B10004A0E236E000E246E020E256E31EC8FF00D
:100B20005D0EF66EFC0EF76E000EF86E0900F5CF46
:100B300021F00A00F5CF22F0470E236E000E246E3E
:100B4000030E256E31EC8FF000F0120017EC8EF0E2
:100B500064EC86F0B6EC88F000F0000E0F01346F04
:100B600043EC90F00009D8B42C8E37C034FF2CBE73
:100B700022EC88F02CA410D0260E246EFE0E256EDA
:100B80008F0EF66EFC0EF76E000EF86E0800F5CFB5
:100B900026F075EC87F02C942CAA07D0000E25ECDB
:100BA0008CF0000E7DEC8CF02C9A2CB883EC8EF03F
:100BB0000E01CEA5D1D700EC80F03B6E3B50D8B4EF
:100BC00021D03EB20DD01AD05DEC8BF003D03EA800
:100BD0005DEC8BF0000E3B6EBFD702EC8FF0BCD704
:100BE0003B50060AD8B4F0D70F0AD8B4F0D7050A9C
:100BF000D8B4F0D71C0AD8B4EDD7EFD73B5025ECCA
:100C00008CF0AAD73EA2A8D702EC8FF0A5D700019E
:100C10009F6F2E8039C09EF04D0EF66EFC0EF76E63
:100C2000000EF86E0900F5CF9CF00900F5CF9DF09D
:100C300000019F519C251D6E000E9D211E6ECFEC64
:100C40008FF00001A06FA0C029F09F51FBEC88F04D
:100C500038D0D0EC8EF0396E3950D8B42DD0395010
:100C6000D8B408D00001A051D8B404D03950FF0A3C
:100C7000A01503D00001A0513910A06F4D0EF66EE3
:100C8000FC0EF76E000EF86E0900F5CF9CF009001F
:100C9000F5CF9DF09F519C251D6E000E9D211E6E6F
:100CA000A0C01FF0C3EC8DF0A0C029F000019F513F
:100CB000FBEC88F001D02E9025EC90F00009D8B420
:100CC000FAD72EA01200C5D7000E876E030E866ECF
:100CD000030E4C6E4C50800A7F0FD8A00DD04AEC0A
:100CE00090F0140E00019C6F790EE82EFED79C2F19
:100CF000FCD700D04C06EED7320EE82EFED7020EFF
:100D0000866E4AEC90F09B0EF66EFC0EF76E000EAF
:100D1000F86E0800F550E9EC8EF09A0EF66EFC0EB7
:100D2000F76E000EF86E0800F550E9EC8EF0960EA6
:100D3000F66EFC0EF76E000EF86E0800F550E9EC4A
:100D40008EF0990EF66EFC0EF76E000EF86E08002F
:100D5000F550E9EC8EF0F2EC8FF0040E00019D6F7F
:100D6000CF0E9C6F010EE82EFED79C2FFCD79D2F37
:100D7000FAD700D000F008EC90F000F012002B6ED3
:100D80008C0E246EFF0E256E8F0EF66EFC0EF76E27
:100D9000000EF86E0800F5CF26F075EC87F02950AC
:100DA000300991EC8BF0292AA40E246EFF0E256EDB
:100DB0008E0EF66EFC0EF76E000EF86E0800F5CF84
:100DC00026F075EC87F0EE0E246EFE0E256E8D0E6D
:100DD000F66EFC0EF76E000EF86E0800F5CF26F0EA
:100DE00075EC87F02B50D8B414D02A50D8B411D059
:100DF000B90E246EFF0E256E8E0EF66EFC0EF76E8B
:100E0000000EF86E0800F5500A0F266E75EC87F09C
:100E10001200C30E246EFF0E256E8E0EF66EFC0EB3
:100E2000F76E000EF86E0800F5500A0F266E75EC8E
:100E300087F01200000E0001A76F27C0A4F028C0A1
:100E4000A5F029C0A6F02FD0A751010D9C0EF324C8
:100E5000D96E000EF420DA6E27C01DF028C01EF0F7
:100E600029C01FF00A0E206E000E216E000E226EA9
:100E7000A8EC8CF01D50DF6E27C01DF028C01EF0BE
:100E800029C01FF00A0E206E000E216E000E226E89
:100E900028EC8BF01DC027F01EC028F01FC029F0E1
:100EA0000001A729A76F275028102910D8B40ED009
:100EB000CBD7A707A751010D9C0EF324D96E000EC6
:100EC000F420DA6EDF50300991EC8BF00001A7516D
:100ED000800A7F0FD8B0EDD7A451A511A611D8A4D0
:100EE0001200300E91EC8BF012008F0EF66EFC0E9D
:100EF000F76E000EF86E0800F55026620BD0990EC2
:100F0000F66EFC0EF76E000EF86E0800F550E9EC78
:100F10008EF004D026508009C3EC8FF0000E446E92
:100F200028D04450010D24C027F025C028F0F350EC
:100F30002726F450282227C0F6FF28C0F7FF000E0E
:100F4000F86E0800F5CF45F04450010D24C027F09D
:100F500025C028F0F3502726F450282227C0F6FF9A
:100F600028C0F7FF000EF86E0800F55091EC8BF0EA
:100F7000442A4450010D24C027F025C028F0F35026
:100F80002726F450282227C0F6FF28C0F7FF000EBE
:100F9000F86E0800F5500009D8B41200C2D7CE0E82
:100FA000246EFE0E256E8F0EF66EFC0EF76E000E92
:100FB000F86E0800F5CF26F075EC87F04D0EF66E52
:100FC000FC0EF76E000EF86E0900F5CF9CF00A00DB
:100FD000F5CF9DF00BD09CC01DF09DC01EF0000E03
:100FE0001F6EC3EC8DF000019C4B9D2B3B0EF66EEB
:100FF000FC0EF76E000EF86E0900F55000019C5DC6
:101000000900F5509D59D8A0E6D73D0EF66EFC0EAE
:10101000F76E000EF86E0900F5CF1DF00A00F5CF4F
:101020001EF0000E1F6EC3EC8DF01F0E2A6E710EA7
:10103000296E1E0EE82EFED7292EFCD72A2EFAD7AF
:1010400000D01200E0EC84F09E0E246EFC0E256EA3
:101050008F0EF66EFC0EF76E000EF86E0800F5CFE0
:1010600026F075EC87F036D0D0EC8EF0396E19D0C2
:1010700072EC90F02FD009EC84F02CD099EC83F036
:1010800029D020EC83F026D052EC8CF02C9EFF006F
:10109000C6EC89F01FD01DEC81F01CD02C9EFF0007
:1010A00019D03950010AD8B4E3D7030AD8B4E3D72A
:1010B000060AD8B4E3D70C0AD8B4E3D7180AD8B4D0
:1010C000E3D7300AD8B4E4D7600AD8B4E4D7C00A6A
:1010D000D8B4E4D72CAE1200C7D72B6E290E246EDD
:1010E000FF0E256E8D0EF66EFC0EF76E000EF86E7E
:1010F0000800F5CF26F075EC87F0290E246EFF0E60
:10110000256E8C0EF66EFC0EF76E000EF86E080063
:10111000F5CF26F075EC87F08C0E246EFF0E256E51
:101120008D0EF66EFC0EF76E000EF86E0800F5CF11
:1011300026F075EC87F02A50300991EC8BF02A2AC2
:101140003E0E246EFF0E256E8C0EF66EFC0EF76EB4
:10115000000EF86E0800F5CF26F075EC87F02B50E6
:10116000276E286A296A1AEC87F01200570EF66E6D
:10117000FC0EF76E000EF86E0900F5CF1DF00A00A8
:10118000F5CF1EF0CFEC8FF0346EBAEC8AF0530E30
:10119000F66EFC0EF76E000EF86E0900F5CF1DF02E
:1011A0000A00F5CF1EF0CFEC8FF0376E375057ECBA
:1011B00090F0A90E246EFE0E256E8F0EF66EFC0EBC
:1011C000F76E000EF86E0800F5CF26F075EC87F08C
:1011D0005DEC8BF02C9E2C8A69EC8FF00009D8A472
:1011E00005D02C902C842C983E9212002C802C94AC
:1011F0002C883E9212002A6E8C0E246EFF0E256EF5
:101200008F0EF66EFC0EF76E000EF86E0800F5CF2E
:1012100026F075EC87F02A50300991EC8BF02A2AE1
:10122000010E2B6E980E246EFF0E256E8E0EF66E3E
:10123000FC0EF76E000EF86E0800F5CF26F075EC88
:1012400087F08D0EF66EFC0EF76E000EF86E08003D
:10125000F550C3EC8FF010D029A00AD02B503009E4
:1012600091EC8BF02C0E91EC8BF0200E91EC8BF02E
:101270002B2AD8902930296E080E2B64EDD7120046
:101280003E860DD0000E1F6E8B0EF66EFC0EF76EB6
:10129000000EF86E0800F550A3EC82F0236E3EB607
:1012A000F1D700F0000E1F6E880EF66EFC0EF76E82
:1012B000000EF86E0800F550A3EC82F0246E2406B0
:1012C0002450010D600EF324D96E000EF420DA6E66
:1012D000DF50226E7E0EF66EFC0EF76E000EF86E7C
:1012E0000800F5502218D8A41200000E1F6E880EB8
:1012F000F66EFC0EF76E000EF86E0800F550A3ECCB
:1013000082F0246E12002B6E14D02A04D8A405D0CB
:101310002B2A1AD02A04D8A402D0050E06D02B06F8
:1013200013D02A04D8A403D0010E2B6E0DD0020EC8
:10133000FCD72B50010AD8B4E8D7030AD8B4EAD7AF
:10134000070AD8B4EED7F3D7AF0E246EFF0E256E82
:1013500036C026F075EC87F04F0EF66EFC0EF76E79
:10136000000EF86E0900F5CF1DF00A00F5CF1EF053
:101370002BC01FF0C3EC8DF03650C3EC8FF02B5018
:10138000276E286A296A1AEC87F012002D80500E09
:10139000246EFF0E256E8F0EF66EFC0EF76E000E9D
:1013A000F86E0800F5CF26F075EC87F0830E246EFA
:1013B000FD0E256E8E0EF66EFC0EF76E000EF86EAC
:1013C0000800F5CF26F075EC87F00ED0D0EC8EF04B
:1013D000396E3950D8B403D0395091EC80F025ECF7
:1013E00090F00009D8B42D902DB0F0D79E0E246E49
:1013F000FC0E256E8F0EF66EFC0EF76E000EF86E6C
:101400000800F5CF26F075EC87F012002B6E3E8CAD
:101410002B50B7EC8EF034D0D0EC8EF0396E26D055
:101420003C502B103C6E58EC8FF02B50B7EC8EF0EC
:1014300027D02B50FF0A3C143C6E58EC8FF02B50F9
:10144000B7EC8EF01DD03E9C3E0E246EFD0E256E38
:101450008F0EF66EFC0EF76E000EF86E0800F5CFDC
:1014600026F075EC87F0000E396E0AD03950010A6B
:10147000D8B4D6D7030AD8B4DCD7820AD8B4E3D715
:101480003EAC1200C9D7000E876E000E866EC00EED
:10149000836E000E846E400E856E000E8C6E1F0EE5
:1014A000886EF00E896E800E8A6E000E8B6E000EB6
:1014B0000F01216FC00E196F000E266F000E2E6FE8
:1014C000010E116F000E256F000E2D6F000E186FAC
:1014D000000E106F000E206F000E2C6F000E0F6FAD
:1014E000000E176F000E1F6F000E246F0E01C289D1
:1014F000B581B583B585B597B589090EFD6F120025
:101500002B6E43EC90F00009D8B409D0F60E246E8F
:10151000FF0E256E2BC026F075EC87F008D0FA0E72
:10152000246EFF0E256E2BC026F075EC87F0530E4F
:10153000F66EFC0EF76E000EF86E0900F5CF1DF08A
:101540000A00F5CF1EF037C01FF0C3EC8DF0AF0ED0
:10155000246EFF0E256E2AC026F075EC87F02A5007
:10156000C3EC8FF00F013451276E286A296A1AECF8
:1015700087F012003D0EF66EFC0EF76E000EF86E50
:101580000900F5CF1DF00A00F5CF1EF0CFEC8FF06B
:10159000356E4D0EF66EFC0EF76E000EF86E0900FD
:1015A000F5CF1FF00A00F5CF20F0030E216E000EDC
:1015B000226E000E236E12D02350010DF350212411
:1015C000D96EF4502220DA6E23501F241D6E000EB7
:1015D00020201E6ECFEC8FF0DF6E232A070E2364CF
:1015E000EBD712003CEC90F00009D8B411D08AEC93
:1015F0008FF03CEC90F00009D8B403D00E01CEA3DC
:10160000F8D70E01CEA302D0010E1200000E120078
:10161000A7EC8FF03CEC90F00009D8A403D00E01A9
:10162000CEA7F8D70E01CEA702D0010E12008AEC89
:101630008FF03CEC90F00009D8B403D00E01CEA39B
:10164000F8D70E01CEA302D0010E1200000E120038
:10165000000E236E000E246E000E256E2050211009
:101660002210D8B423D0010E266E05D0D890203693
:1016700021362236262A22AEF9D7D89023362436B0
:10168000253620501D5C21501E5822501F58D8A0CE
:1016900007D020501D5E21501E5A22501F5A238011
:1016A000D890223221322032262EE7D723C01DF0D7
:1016B00024C01EF025C01FF01200040E266ECF0EAF
:1016C000256E020EE82EFED7252EFCD7262EFAD741
:1016D000550EF66EFC0EF76E000EF86E0900F5CF93
:1016E0001DF00A00F5CF1EF0CFEC8FF03C6E3CC031
:1016F0003DF0E7EC8FF03E923E9040EC89F0A6EC96
:101700008DF07AEC8FF0000E1F6E880EF66EFC0ED8
:10171000F76E000EF86E0800F550A3EC82F0276E0D
:101720001200236E87842350E9EC8EF021D08E0EB8
:10173000F66EFC0EF76E000EF86E0800F550C3EC66
:101740008FF020D08D0EF66EFC0EF76E000EF86E48
:101750000800F550C3EC8FF015D08C0EF66EFC0E21
:10176000F76E000EF86E0800F550C3EC8FF00AD04B
:101770004650130AD8B4DBD7340AD8B4EED7740A6B
:10178000D8B4E0D787941200BC0E246EFD0E256EEF
:101790008F0EF66EFC0EF76E000EF86E0800F5CF99
:1017A00026F075EC87F02D861DD0D0EC8EF0396ECA
:1017B0003950D8B412D0395099EC8FF007EC86F03C
:1017C000100E0001A26F390EA16F0D0EE82EFED78C
:1017D000A12FFCD7A22FFAD700D025EC90F000095A
:1017E000D8B42D962DA61200E0D7276E510EF66EB6
:1017F000FC0EF76E000EF86E0900F5CF1FF00A0020
:10180000F5CF20F04A0E216E000E226E020E236EDE
:101810009DEC8EF027504A244A6E000E4B204B6EF2
:101820005F0EF66EFC0EF76E000EF86E0900F5CF37
:1018300021F00A00F5CF22F04A0E236E000E246E2E
:10184000020E256E31EC8FF01200286E610EF66EDE
:10185000FC0EF76E000EF86E0900F5CF1DF00A00C1
:10186000F5CF1EF0CFEC8FF03A6E3A5028243A6E46
:10187000610EF66EFC0EF76E000EF86E0900F5CFE5
:101880001DF00A00F5CF1EF03AC01FF0C3EC8DF03A
:101890003A50D8B403D02C802C942C88285044EC97
:1018A00085F01200610EF66EFC0EF76E000EF86EFB
:1018B0000900F5CF1DF00A00F5CF1EF0000E1F6ED7
:1018C000C3EC8DF0620E246EFF0E256E8F0EF66E49
:1018D000FC0EF76E000EF86E0800F5CF26F075ECE2
:1018E00087F0100E2A6E390E296E0E0EE82EFED7E6
:1018F000292EFCD72A2EFAD71200216E610EF66E21
:10190000FC0EF76E000EF86E0900F5CF1DF00A0010
:10191000F5CF1EF0CFEC8FF03A6E215000083A243C
:101920003A6E610EF66EFC0EF76E000EF86E090050
:10193000F5CF1DF00A00F5CF1EF03AC01FF0C3EC42
:101940008DF03A50D8A412002C902C842C981200C0
:10195000205021102210D8B41ED0010E236E05D0C5
:10196000D890203621362236232A22AEF9D72050AD
:101970001D5C21501E5822501F58D8A006D0205060
:101980001D5E21501E5A22501F5AD89022322132F9
:101990002032232EECD71DC01DF01EC01EF01FC02C
:1019A0001FF01200800E246EFE0E256E8F0EF66E56
:1019B000FC0EF76E000EF86E0800F5CF26F075EC01
:1019C00087F0D0EC8EF0396E2D8C10D0D0EC8EF0EC
:1019D000396E3950D8B405D0395099EC8FF023ECDA
:1019E00082F025EC90F00009D8B42D9C2DAC1200AB
:1019F000EDD72D8A800E246EFE0E256E8F0EF66EAC
:101A0000FC0EF76E000EF86E0800F5CF26F075ECB0
:101A100087F0D0EC8EF0396E10D0D0EC8EF0396EAD
:101A20003950D8B405D0395099EC8FF075EC84F06A
:101A300025EC90F00009D8B42D9A2DAA1200EDD70C
:101A4000839E838C3B0E1D6E700EE82EFED71D2EDE
:101A5000FCD78DCF1DF0D8901D320F0E1D161D38EE
:101A6000F00B1E6E838E839C3B0E1D6E700EE82E57
:101A7000FED71D2EFCD7D8908D300F0B1E101E6E7A
:101A8000838E838C1E50FF0A120087CF1DF086CFF5
:101A90001EF0879487828B500F098B6E5FEC90F05D
:101AA0009038F00B466E5BEC90F05FEC90F090504D
:101AB0000F0B4610466E87908B50F00B8B6E879203
:101AC0001EC086FF1DC087FF46501200296E000E03
:101AD0002A6E14D0F2EC8AF0286E28462846284652
:101AE0002C502818F70B28182C6E2CA605D02A503D
:101AF000F5EC8BF0010E120029062A2A2950D8A4F1
:101B0000E9D72A50F5EC8BF0000E12002A6E990EE0
:101B1000F66EFC0EF76E000EF86E0800F550E9EC5C
:101B20008EF08E0EF66EFC0EF76E000EF86E08004C
:101B3000F550040FC3EC8FF0520E91EC8BF02A504D
:101B4000276E286A296A1AEC87F01200000E45EC0D
:101B50008FF0030E416E000E0001606F000E616F8A
:101B60003CC062F0000E636F41C01FF0870EF66E3E
:101B7000FC0EF76E000EF86E0800F550A3EC82F034
:101B8000416E3E981200000EF2BE010E206E1E50F5
:101B9000030B7F6E1DC07EFF1FC080FF3F0E8116AE
:101BA0008184F29E550E826EAA0E826E818281B26F
:101BB000FED7819420B002D0F29E01D0F28E1200A6
:101BC000990EF66EFC0EF76E000EF86E0800F550DA
:101BD000E9EC8EF029C024F02AC025F08E0EF66EB6
:101BE000FC0EF76E000EF86E0800F5CF26F075ECCF
:101BF00087F04650020F1200E60EF66E200EF76ECA
:101C0000010EF86E0900F5CF4DF000EE60F03C0ECD
:101C1000EE6AE806FDE100EE2CF0200EEE6AE80622
:101C2000FDE14E6A4F904F920001A6EF85F063EC04
:101C300090F0B5EC8FF043EC8AF0DBEC8FF012EC17
:101C400090F04DEC8EF0A7EC8FF051EC90F08AEC18
:101C50008FF032EC8EF068EC8EF01AEC8FF0FDEC29
:101C60008FF01200000EC46E000EC56E040EC66E1C
:101C7000E10EC26EBA0EC16EC150C2CF1DF01E6A17
:101C80001DC01EF01D6A1D100001AE6F1E50AF6F0B
:101C90000E01CE99010EC36E1200000ECA6E000E28
:101CA000CB6E050ECC6E9E0EC86E580EC76EC7501A
:101CB000C8CF1DF01E6A1DC01EF01D6A1D10000158
:101CC000B06F1E50B16F0E01CE95010EC96E12009D
:101CD000000ED06E000ED16E050ED26EF60ECE6ED8
:101CE0003C0ECD6ECD50CECF1DF01E6A1DC01EF035
:101CF0001D6A1D100001B26F1E50B36F0E01CE9110
:101D0000010ECF6E12007F0E246EFF0E256E8F0E19
:101D1000F66EFC0EF76E000EF86E0800F5CF26F09A
:101D200075EC87F069EC8FF02A6E2A50276E286ACE
:101D3000296A1AEC87F02C981200000E246E12D03B
:101D40002450010DF3502124D96EF4502220DA6E74
:101D500024501F241D6E000E20201E6ECFEC8FF02D
:101D6000DF6E242A2350245CD8B01200E9D7296EF4
:101D700029503C142A6E2A50D8B409D0C30E246EC0
:101D8000FF0E256E42C026F075EC87F01200B90EEA
:101D9000246EFF0E256E42C026F075EC87F012000F
:101DA00020EC8DF0226E22C021F003D020EC8DF0CB
:101DB000216E2150D8A4FAD7080E206E9D0E1F6EFA
:101DC000060EE82EFED71F2EFCD7202EFAD7225063
:101DD0001200206E86CF1FF045EC8DF002D045EC4E
:101DE0008DF0466E46BEFBD720380F0B0F0B866E6C
:101DF0004AEC90F020500F0B866E4AEC90F01FC01A
:101E000086FF12000D0E246EFF0E256E8F0EF66EED
:101E1000FC0EF76E000EF86E0800F5CF26F075EC9C
:101E200087F060C043F04350A0EC81F03E922C9CC0
:101E30002C981200820ED66EA50ED46E2E0ED36E86
:101E4000D350D4CF1DF01E6A1DC01EF01D6A1D1098
:101E50000001AC6F1E50AD6F0E01CA9B900ED56E87
:101E60001200000E266E0CD021C01DF022C01EF004
:101E70002650010D2350F3241F6EC3EC8DF0262A4B
:101E80002550265CD8B01200EFD71D6E000E1E6ED6
:101E9000200E1E6401D012001E50010D600EF324AE
:101EA000D96E000EF420DA6E1DC0DFFF1E2AF0D7B7
:101EB000550EF66EFC0EF76E000EF86E0900F5CFAB
:101EC0001DF00A00F5CF1EF03CC01FF0C3EC8DF0F2
:101ED0001200610EF66EFC0EF76E000EF86E090031
:101EE000F5CF1DF00A00F5CF1EF0CFEC8FF03A6E63
:101EF0003A501200000E45EC8FF0010E1F6E890E55
:101F0000F66EFC0EF76E000EF86E0800F550A3ECAE
:101F100082F01200050EBF6E200EBE6E000EC06E67
:101F2000850EBC6E000EBB6E0E01CE93F10EBD6E23
:101F300012001E6E000E1D6E04D01D2AD8901E3099
:101F40001E6E1E50D8A4F9D71D061D501200040E97
:101F5000B96E000EB86E000EBA6E980EB66E000E18
:101F6000B56E0E01CE97B7681200000E0E01E16F3C
:101F7000000EE26F000EE36F000EE46F000EE56FDF
:101F8000000EE66F1200216E45C022F087942150AA
:101F90008009E9EC8EF0878422C045F012001E50C3
:101FA000030B7F6E1DC07EFF3F0E8116818000F007
:101FB00000F080501200600E0E01D86F000EDA6F34
:101FC000000EDC6F040EDE6F000EDD6F1200080ED7
:101FD0009F6ED00E9D6EEC0E9E6E380E9B6E010EA7
:101FE0009C6E1200300E04D0245091EC8BF024280B
:101FF000246E7F0E2464F8D71200080E9F6ED00E58
:102000009D6EEC0E9E6E380E9B6E010E9C6E120045
:10201000050E66EC8DF00009D8A402D000F0120085
:1020200000F01200900E0F01396F000E3A6F000E93
:102030003B6F050E3C6F12000E01CDABFDD79DA28C
:1020400002D09D989D8899501200000E0F01346FA8
:102050003DCF1DF037C034FF1D5012001E6E1E50C4
:1020600035EC90F06AEC90F012001D6E0E01CDA9D7
:10207000FDD71DC09AFF120085A202D0010E01D02B
:10208000000EFF0A12000F013DA102D0010E120046
:10209000000E1200878000D000F0879000D000F082
:1020A0001200800E0F01336F1C0E346F12001D6E74
:1020B0001DC034FF1200879000D000F0120087800E
:1020C00000D000F01200F28A0E01BA8912009FBC03
:1020D0001200FDD79EB21200FDD70E01CA99120060
:0720E000858012001200FFD1
:020000040020DA
:10000000FF0FFF0FFF0FFF0FFF0FFF0FFF0FFF0F80
:020000040030CA
:0C0000008CFFFFF79FFFFFFFFFFFFFFFDB
:00000001FF
