:0400000055EF00F0C8
:100008004F82FACF0BF0FBCF0CF0E9CF0DF0EACF1F
:100018000EF0E1CF0FF0E2CF10F0D9CF11F0DACF28
:1000280012F0F3CF13F0F4CF14F0F6CF15F0F7CFAA
:1000380016F0F8CF17F0F5CF18F04FC019F050C0F0
:100048001AF051C01BF052C01CF00E01C2B9CAA967
:1000580002D06FEC8DF01CC052F01BC051F01AC0DA
:1000680050F019C04FF018C0F5FF17C0F8FF16C0C0
:10007800F7FF15C0F6FF14C0F4FF13C0F3FF12C05A
:10008800DAFF11C0D9FF10C0E2FF0FC0E1FF0EC0B8
:10009800EAFF0DC0E9FF0CC0FBFF0BC0FAFF4F924F
:0600A8001100DAEF8AF0FE
:10FC9400005075736820627574746F6E203120741F
:10FCA4006F20636C6561722063726564697473208C
:10FCB4002020616E64206578697400205075736833
:10FCC40020627574746F6E20746F2020202020765B
:10FCD400656E640050726573732073657276696330
:10FCE4006520746F2065786974004E6F20436861E5
:10FCF4006E676520476976656E00202053657475CC
:10FD0400702053656E736F72002020496E736572A4
:10FD140074204E6F74650020204175646974204D11
:10FD24006F64650050726963652052004578697498
:10FD3400002E002D002C002B002A0029002800276B
:10FD44000026002500240023002200210020001F9B
:10FD5400001E001D001C001A001900180017000FD7
:10FD6400000700040002000000461EBAE1FEFDF296
:10FD7400DBDAECACA8A7A6A4A30101030C0B0A09C7
:10FD840008070605040302013336353433323130B3
:10FD940054144000181B080705040602A8010C2C83
:10FDA400282450726573732031203D2056656E649B
:10FDB4002054696D652050726573732032203D2094
:10FDC4004368616E204C696E6B20507265737320BA
:10FDD40033203D2053656E736F72204F666620504A
:10FDE40072657373203820746F20657869740045D8
:10FDF4006E61626C65202F2044697361626C6520BA
:10FE040020202031203D205231302C2032203D2032
:10FE14005232302020202033203D205235302C20F7
:10FE240034203D205231303020202035203D2052D6
:10FE34003230300031203D20417564697420322015
:10FE44003D2053656E736F72333D486F702D436F61
:10FE5400696E20343D4E6F74652D656E353D437279
:10FE640065642D636C7220363D507269636573203E
:10FE7400383D457869740050726573732063686116
:10FE84006E6E656C20627574746F6E202020207411
:10FE94006F207365742070726963652020202020B0
:10FEA4002053657276696365203D20457869740046
:10FEB400486F7070657220436F696E202020202087
:10FEC40020202020427574746F6E2031203D202B39
:10FED40020262032203D202D2056616C7565203D62
:10FEE400205200496E73657274204E6F74657320DE
:10FEF40026205072657373204C69676874656420AA
:10FF0400427574746F6E20546F2020202020205678
:10FF1400656E64002020202020496E697469616C3C
:10FF2400697A65202020202020202020204E6F7414
:10FF34006520526561646572002020204E6F7465EF
:10FF4400206572726F722020202020636F64652008
:10FF54003D203078002020496E697469616C697AAB
:10FF64006520486F707065720020202050726963AC
:10FF74006520736574206D6F646500437265646900
:10FF8400747320436C65617265640053656E7369B4
:10FF940074697669747920002020437265646974F9
:10FFA400203D20520053656E736F722069732000E8
:10FFB4002064697361626C65640020656E61626CC3
:10FFC400656420002020205231302020002020525F
:10FFD4003230302000202052313030200020205296
:10FFE40035302020002020523230202000202020D4
:0CFFF4002020004F6666004F6E200000C9
:020000040001F9
:100000000001A86F3082000E0001A96F04D0A92B57
:10001000D890A831A86FA851D8A4F9D7A907630E22
:10002000F66EFD0EF76E000EF86E0900F5CFA6F025
:100030000900F5CFA7F0A951A6251D6E000EA72136
:100040001E6ED0EC8CF0376E375045EC8AF067D0DE
:10005000ADEC8BF00001A86F57D0372A630EF66E17
:10006000FD0EF76E000EF86E0900F5CFA6F0090040
:10007000F5CFA7F0A951A6251D6E000EA7211E6E73
:1000800037C01FF0A1EC8AF0375045EC8AF047D01A
:100090003706630EF66EFD0EF76E000EF86E090061
:1000A000F5CFA6F00900F5CFA7F00001A951A625CC
:1000B0001D6E000EA7211E6E37C01FF0A1EC8AF046
:1000C000375045EC8AF02BD030926D0E246EFF0E27
:1000D000256E970EF66EFD0EF76E000EF86E080098
:1000E000F5CF26F078EC85F07B0E246EFE0E256EA3
:1000F000960EF66EFD0EF76E000EF86E0800F5CF48
:1001000026F078EC85F00BD00001A851010AD8B494
:10011000A4D7030AD8B4BCD7820AD8B4D5D730A2A2
:10012000120096D710EC8BF0000E1F6E900EF66E3C
:10013000FD0EF76E000EF86E0800F55024EC82F00C
:10014000226E60C040F0000160AF50D060517F0B64
:10015000406E19D00A0E3A6E3A501200140E3A6EE2
:100160003A501200320E3A6E3A501200640E3A6E55
:100170003A501200C80E3A6E3A501200100E3A6E03
:100180003E823A5012004050000AD8B4E3D7010A28
:10019000D8B4E4D7030AD8B4E5D7010AD8B4E6D76F
:1001A000070AD8B4E7D7EAD7000E3A6E3A501200E1
:1001B000010E1AD0020E18D0000E3A6E3E923A503E
:1001C0001200040E11D0050E0FD0060E0DD0070E32
:1001D0000BD0080E09D0090E07D00A0E05D00B0E61
:1001E00003D00C0E01D0000E3A6E2AD000016051EF
:1001F000000AD8B4D9D7010AD8B4DAD7030AD8B4D8
:10020000D9D7010AD8B4D8D7070AD8B4DAD7010A9F
:10021000D8B4D9D7030AD8B4D8D7010AD8B4D7D715
:100220000F0AD8B4D6D7010AD8B4D5D7030AD8B4A0
:10023000D4D7010AD8B4D3D7070AD8B4D2D7D3D7E2
:100240003E823A501200266E26C024F0243A0F0E49
:1002500024160A0E24601ED026380F0B3009FDEC40
:1002600088F033D0410EFDEC88F02FD0420EFDEC2B
:1002700088F02BD0430EFDEC88F027D0440EFDEC27
:1002800088F023D0450EFDEC88F01FD0460EFDEC23
:1002900088F01BD026380F0B246E256A2550000AE3
:1002A000D8A413D024500A0AD8B4DCD7010AD8B491
:1002B000DDD7070AD8B4DED7010AD8B4DFD7030ADE
:1002C000D8B4E0D7010AD8B4E1D726C024F00F0E85
:1002D00024160A0E24601ED026500F0B3009FDECA8
:1002E00088F01200410EFDEC88F01200420EFDEC89
:1002F00088F01200430EFDEC88F01200440EFDEC75
:1003000088F01200450EFDEC88F01200460EFDEC60
:1003100088F0120026500F0B246E256A2550000A23
:10032000D8A4120024500A0AD8B4DCD7010AD8B4E1
:10033000DDD7070AD8B4DED7010AD8B4DFD7030A5D
:10034000D8B4E0D7010AD8A41200E0D7236E000E7B
:10035000226E99CF22F0000E226E7E0EF66EFD0EFA
:10036000F76E000EF86E0800F5CF21F023501F2421
:10037000202421243F6E235031EC8DF01F5031ECAE
:100380008DF07E0EF66EFD0EF76E000EF86E080014
:10039000F55031EC8DF0205031EC8DF017D01F501E
:1003A000010D600EF324D96E000EF420DA6EDF50DA
:1003B0003F243F6E1F50010D600EF324D96E000ED6
:1003C000F420DA6EDF5031EC8DF01F061F50D8A4F8
:1003D000E6D73F6C3F5031EC8DF03B963B92FF0EE1
:1003E00052EC8CF09D9E9D8E99CF3FF010EC8BF0DF
:1003F00016D0A7EC8CF0236E3BA00BD02250010D41
:10040000600EF324D96E000EF420DA6E23C0DFFFF5
:10041000222A0E01CEA502D03B8601D03B963BA6F8
:10042000E8D77E0EF66EFD0EF76E000EF86E080031
:10043000F5500001606305D06351D8A402D022506A
:1004400012003B86000E1200206E000E216E9E8070
:100450006CEC8DF0205031EC8DF09E9020C03FF080
:100460001F50D8B41ED01F28216E18D01F50010D68
:10047000600EF324D96E000EF420DA6EDF5031ECFA
:100480008DF01F50010D600EF324D96E000EF42084
:10049000DA6EDF503F243F6E21061F062150D8A49C
:1004A000E5D73F5031EC8DF0FF0E52EC8CF02BEC89
:1004B0008BF0000E326E000E316E3E90000E216EFB
:1004C0001ED0314A322A3E9015D02150010D600EC7
:1004D000F324D96E000EF420DA6E1FEC8DF0DF6E7F
:1004E00066EC8DF09DA002D03E8001D03E902BECBA
:1004F0008BF0212A0E01CDAB02D03EA0E6D70E0133
:10050000CEB102D03EA0DDD72106CEA102D03E86DC
:1005100001D03E963EA011D02150010D600EF32473
:10052000D96E000EF420DA6EDF50D8B406D09E806B
:100530006CEC8DF0000E31EC8DF06CEC8DF02150F8
:100540001200F30E246EFD0E256E970EF66EFD0E54
:10055000F76E000EF86E0800F5CF26F078EC85F007
:100560003E8A3E8C64D0ADEC8BF0386E38C04DF0D6
:1005700048D0C80E296EFF0E2A6EBEEC8AF0426E7D
:10058000010E1DEC88F050D0E90E296EFF0E2A6E88
:10059000BEEC8AF0426E020E1DEC88F045D0E10EF2
:1005A000296EFF0E2A6EBEEC8AF0426E040E1DEC20
:1005B00088F03AD0D90E296EFF0E2A6EBEEC8AF072
:1005C000426E080E1DEC88F02FD0D10E296EFF0E62
:1005D0002A6EBEEC8AF0426E100E1DEC88F024D01C
:1005E000380E246EFE0E256E970EF66EFD0EF76E1B
:1005F000000EF86E0800F5CF26F078EC85F03E9AF4
:1006000013D03850010AD8B4B4D7030AD8B4BCD731
:10061000060AD8B4C4D70C0AD8B4CCD7180AD8B4B0
:10062000D4D7900AD8B4DCD73CC03DF000F03EAA45
:10063000120099D7B40E246EFE0E256E970EF66E3C
:10064000FD0EF76E000EF86E0800F5CF26F078EC80
:1006500085F03E8C4650020F356E590EF66EFD0E3B
:10066000F76E000EF86E0900F5CF1DF00A00F5CF09
:100670001EF0D0EC8CF00001A66F3550C4EC8CF06D
:100680000001A651276E286A296A1DEC85F03FD02B
:10069000ADEC8BF0386E21D0010E2A6E0001A65110
:1006A0009AEC87F024D0020E2A6E0001A6519AEC33
:1006B00087F01DD03E9C380E246EFE0E256E970EE0
:1006C000F66EFD0EF76E000EF86E0800F5CF26F000
:1006D00078EC85F0000E386E0AD03850010AD8B494
:1006E000DBD7030AD8B4DFD7820AD8B4E3D7590ED0
:1006F000F66EFD0EF76E000EF86E0900F5CF1DF0D8
:100700000A00F5CF1EF0D0EC8CF00001A66F3EACD5
:100710001200BED73E8CA90E246EFF0E256E970EDA
:10072000F66EFD0EF76E000EF86E0800F5CF26F09F
:1007300078EC85F04650020F356E8F0E246EFF0E5A
:10074000256E960EF66EFD0EF76E000EF86E080022
:10075000F5CF26F078EC85F04650020F0001A66F29
:10076000A6C02AF035505AEC88F03DD0ADEC8BF0A5
:10077000386E27D036501F0B0F01346F362AA6C0B3
:100780002AF035505AEC88F026D036501F0B0F0156
:10079000346F3606A6C02AF035505AEC88F01BD0CC
:1007A0003E9C380E246EFE0E256E970EF66EFD0EE4
:1007B000F76E000EF86E0800F5CF26F078EC85F0A5
:1007C0000AD03850010AD8B4D5D7030AD8B4DDD737
:1007D000820AD8B4E5D70E01CEA505D0A6C02AF06E
:1007E00035505AEC88F03EAC1200C0D7C30E1F6ED5
:1007F000CD0EE82EFED71F2EFCD700F0000E876E20
:10080000000E866EC00E836E000E846E010E856E25
:10081000000E8C6E1F0E886ED00E896E800E8A6E52
:10082000000E8B6E000E0F01216FC00E196F000EAF
:10083000266F000E2E6F010E116F000E256F000E39
:100840002D6F000E186F000E106F000E206F000E3F
:100850002C6F000E0F6F000E176F000E1F6F000E33
:10086000246F010E856E800E8A6E000E216F000EC1
:10087000206F000E1F6F550E0E01A06FAA0EA06F05
:10088000A091B591B593B595B597B599000EFD6F4B
:10089000000EF46F8D918D938D958D978D9915EC3C
:1008A0008DF010EC8BF04DEC8DF0F5EC8AF02BEC2C
:1008B0008BF01200276E690EF66EFD0EF76E000EBD
:1008C000F86E0900F5CF1FF00A00F5CF20F04A0EB0
:1008D000216E000E226E020E236E7AEC8BF0670EF4
:1008E000F66EFD0EF76E000EF86E0900F5CF1FF0E4
:1008F0000A00F5CF20F0470E216E000E226E030E87
:10090000236E7AEC8BF027504A244A6E000E4B205F
:100910004B6E27504724476E000E4820486E000E4D
:100920004920496E690EF66EFD0EF76E000EF86EE8
:100930000900F5CF21F00A00F5CF22F04A0E236E10
:10094000000E246E020E256E3EEC8CF0670EF66EE5
:10095000FD0EF76E000EF86E0900F5CF21F00A00CB
:10096000F5CF22F0470E236E000E246E030E256E87
:100970003EEC8CF000F01200DFEC8BF02AEC86F0FD
:10098000C9EC86F000F0000E0F01346F3FEC8DF0E3
:100990000009D8B42F8E36C034FF2FBE7EEC86F00F
:1009A0002FA410D0E70E246EFE0E256E970EF66E65
:1009B000FD0EF76E000EF86E0800F5CF26F078EC0D
:1009C00085F02F942FAA07D0000E30EC89F0000E8E
:1009D00088EC89F02F9A2FB860EC8BF00E01CEA531
:1009E000D1D792EC80F03A6E3A50D8B421D03EB2D2
:1009F0000DD01AD0C9EC88F003D03EA8C9EC88F01D
:100A0000000E3A6EBFD7F8EC8BF0BCD73A50060A0E
:100A1000D8B4F0D70F0AD8B4F0D7050AD8B4F0D7B5
:100A20001C0AD8B4EDD7EFD73A5030EC89F0AAD7EA
:100A30003EA2A8D7F8EC8BF0A5D7000E0001A56F59
:100A400027C0A2F028C0A3F029C0A4F02FD0A55140
:100A5000010D9A0EF324D96E000EF420DA6E27C031
:100A60001DF028C01EF029C01FF00A0E206E000ED7
:100A7000216E000E226EB3EC89F01D50DF6E27C090
:100A80001DF028C01EF029C01FF00A0E206E000EB7
:100A9000216E000E226E94EC88F01DC027F01EC05F
:100AA00028F01FC029F00001A529A56F27502810A4
:100AB0002910D8B40ED0CBD7A507A551010D9A0E99
:100AC000F324D96E000EF420DA6EDF503009FDEC0D
:100AD00088F00001A551800A7F0FD8B0EDD7A25150
:100AE000A311A411D8A41200300EFDEC88F012005E
:100AF000970EF66EFD0EF76E000EF86E0800F550BC
:100B000026620BD0A10EF66EFD0EF76E000EF86E8B
:100B10000800F550C6EC8BF004D026508009C4ECD8
:100B20008CF0000E446E28D04450010D24C027F0F4
:100B300025C028F0F3502726F450282227C0F6FFBE
:100B400028C0F7FF000EF86E0800F5CF45F04450BE
:100B5000010D24C027F025C028F0F3502726F450BB
:100B6000282227C0F6FF28C0F7FF000EF86E080005
:100B7000F550FDEC88F0442A4450010D24C027F0C4
:100B800025C028F0F3502726F450282227C0F6FF6E
:100B900028C0F7FF000EF86E0800F5500009D8B421
:100BA0001200C2D7000E876E000E866EC00E836ED6
:100BB000000E846E400E856E000E8C6E1F0E886EC9
:100BC000D00E896E800E8A6E000E8B6E000E0F01A5
:100BD000216FC00E196F000E266F000E2E6F010ED2
:100BE000116F000E256F000E2D6F000E186F000E96
:100BF000106F000E206F000E2C6F000E0F6F000E96
:100C0000176F000E1F6F000E246F0E01C289000EB9
:100C1000F2BE010E1D6EF29E550EA06FAA0EA06FC1
:100C2000A091B581B583B585B597B589090EFD6FDE
:100C30000B0EF46F8D918D938D858D878D99550E4B
:100C4000A06FAA0EA06FA0811DA002D0F28E12008C
:100C5000F29E1200000E876E030E866E030E4C6E1F
:100C60004C50800A7F0FD8A00BD046EC8DF0140EAC
:100C7000256E7A0EE82EFED7252EFCD74C06F0D72F
:100C8000320EE82EFED7020E866E46EC8DF0A30ED5
:100C9000F66EFD0EF76E000EF86E0800F550C6EC0D
:100CA0008BF0A20EF66EFD0EF76E000EF86E0800C9
:100CB000F550C6EC8BF09E0EF66EFD0EF76E000E34
:100CC000F86E0800F550C6EC8BF0A10EF66EFD0E26
:100CD000F76E000EF86E0800F550C6EC8BF0FFECD6
:100CE0008CF0040E266ECF0E256E020EE82EFED777
:100CF000252EFCD7262EFAD700F01200F6EC83F052
:100D0000380E246EFE0E256E970EF66EFD0EF76EF3
:100D1000000EF86E0800F5CF26F078EC85F036D09E
:100D2000ADEC8BF0386E19D073EC8DF02FD08AECCF
:100D300083F02CD01AEC83F029D0A1EC82F026D0DD
:100D40005DEC89F02F9EFF00DDEC87F01FD065EC95
:100D50008AF01CD02F9EFF0019D03850010AD8B459
:100D6000E3D7030AD8B4E3D7060AD8B4E3D70C0A0A
:100D7000D8B4E3D7180AD8B4E3D7300AD8B4E4D744
:100D8000600AD8B4E4D7C00AD8B4E4D72FAE1200B2
:100D9000C7D710EC87F05D0EF66EFD0EF76E000EF5
:100DA000F86E0900F5CF1DF00A00F5CF1EF0D0EC6B
:100DB0008CF0366E365053EC8DF0590E246EFF0ECB
:100DC000256E970EF66EFD0EF76E000EF86E08009B
:100DD000F5CF26F078EC85F002EC8AF0180E246E40
:100DE000FF0E256E970EF66EFD0EF76E000EF86E76
:100DF0000800F5CF26F078EC85F0C9EC88F02F9E3E
:100E00002F8A76EC8CF00009D8A405D02F902F847F
:100E10002F983E9212002F802F942F883E9212001E
:100E2000610EF66EFD0EF76E000EF86E0900F5CF3E
:100E30001DF00A00F5CF1EF0D0EC8CF0336E350EAD
:100E4000F66EFD0EF76E000EF86E0900F5CF1DF080
:100E50000A00F5CF1EF0D0EC8CF0346E570EF66E13
:100E6000FD0EF76E000EF86E0900F5CF1FF00A00B8
:100E7000F5CF20F0030E216E000E226E000E236EC1
:100E800012D02350010DF3502124D96EF4502220AA
:100E9000DA6E23501F241D6E000E20201E6ED0EC33
:100EA0008CF0DF6E232A070E2364EBD712003E86F8
:100EB0000DD0000E1F6E930EF66EFD0EF76E000E37
:100EC000F86E0800F55024EC82F0236E3EB6F1D7A0
:100ED00000F0000E1F6E900EF66EFD0EF76E000E07
:100EE000F86E0800F55024EC82F0246E240624509D
:100EF000010D600EF324D96E000EF420DA6EDF507F
:100F0000226E860EF66EFD0EF76E000EF86E08006D
:100F1000F5502218D8A41200000E1F6E900EF66E27
:100F2000FD0EF76E000EF86E0800F55024EC82F00E
:100F3000246E12002B6E14D02A04D8A405D02B2ABC
:100F40001AD02A04D8A402D0050E06D02B0613D03E
:100F50002A04D8A403D0010E2B6E0DD0020EFCD7AC
:100F60002B50010AD8B4E8D7030AD8B4EAD7070A45
:100F7000D8B4EED7F3D7F10E246EFF0E256E35C030
:100F800026F078EC85F0590EF66EFD0EF76E000E29
:100F9000F86E0900F5CF1DF00A00F5CF1EF02BC04A
:100FA0001FF0A1EC8AF03550C4EC8CF02B50276E6A
:100FB000286A296A1DEC85F0120030806D0E246EBF
:100FC000FF0E256E970EF66EFD0EF76E000EF86E94
:100FD0000800F5CF26F078EC85F07B0E246EFE0E2F
:100FE000256E960EF66EFD0EF76E000EF86E08007A
:100FF000F5CF26F078EC85F00ED0ADEC8BF0386EA6
:101000003850D8B403D0385000EC80F028EC8DF084
:101010000009D8B4309030B0F0D7380E246EFE0EF0
:10102000256E970EF66EFD0EF76E000EF86E080038
:10103000F5CF26F078EC85F012002B6E3E8C2B500D
:1010400094EC8BF034D0ADEC8BF0386E26D03C5065
:101050002B103C6E65EC8CF02B5094EC8BF027D071
:101060002B50FF0A3C143C6E65EC8CF02B5094EC3A
:101070008BF01DD03E9CF30E246EFD0E256E970E58
:10108000F66EFD0EF76E000EF86E0800F5CF26F036
:1010900078EC85F0000E386E0AD03850010AD8B4CA
:1010A000D6D7030AD8B4DCD7820AD8B4E3D73EAC8B
:1010B0001200C9D72B6E3FEC8DF00009D8B409D0CF
:1010C000F70E246EFF0E256E2BC026F078EC85F00F
:1010D00008D0FB0E246EFF0E256E2BC026F078EC98
:1010E00085F05D0EF66EFD0EF76E000EF86E0900CF
:1010F000F5CF1DF00A00F5CF1EF036C01FF0A1ECB1
:101100008AF0F10E246EFF0E256E2AC026F078ECD0
:1011100085F02A50C4EC8CF00F013451276E286AF8
:10112000296A1DEC85F01200000E236E000E246E5D
:10113000000E256E205021102210D8B423D0010EAD
:10114000266E05D0D890203621362236262A22AEA9
:10115000F9D7D89023362436253620501D5C2150EF
:101160001E5822501F58D8A007D020501D5E215075
:101170001E5A22501F5A2380D89022322132203208
:10118000262EE7D723C01DF024C01EF025C01FF077
:101190001200040E266ECF0E256E020EE82EFED72C
:1011A000252EFCD7262EFAD75F0EF66EFD0EF76EB3
:1011B000000EF86E0900F5CF1DF00A00F5CF1EF005
:1011C000D0EC8CF03C6E3CC03DF0F4EC8CF03E92E8
:1011D0003E9057EC87F084EC8AF087EC8CF0000EA0
:1011E0001F6E900EF66EFD0EF76E000EF86E080084
:1011F000F55024EC82F0276E1200236E8784235072
:10120000C6EC8BF021D0960EF66EFD0EF76E000E3A
:10121000F86E0800F550C4EC8CF020D0950EF66EF8
:10122000FD0EF76E000EF86E0800F550C4EC8CF061
:1012300015D0940EF66EFD0EF76E000EF86E0800D7
:10124000F550C4EC8CF00AD04650130AD8B4DBD762
:10125000340AD8B4EED7740AD8B4E0D78794120011
:10126000286E6B0EF66EFD0EF76E000EF86E09001E
:10127000F5CF1DF00A00F5CF1EF0D0EC8CF0396EE2
:1012800039502824396E6B0EF66EFD0EF76E000E87
:10129000F86E0900F5CF1DF00A00F5CF1EF039C039
:1012A0001FF0A1EC8AF03950D8B403D02F802F94CE
:1012B0002F8828505AEC84F012006B0EF66EFD0E4B
:1012C000F76E000EF86E0900F5CF1DF00A00F5CF9D
:1012D0001EF0000E1F6EA1EC8AF07F0E246EFF0E32
:1012E000256E970EF66EFD0EF76E000EF86E080076
:1012F000F5CF26F078EC85F0100E2A6E390E296EA7
:101300000E0EE82EFED7292EFCD72A2EFAD7120071
:10131000216E6B0EF66EFD0EF76E000EF86E090074
:10132000F5CF1DF00A00F5CF1EF0D0EC8CF0396E31
:10133000215000083924396E6B0EF66EFD0EF76EE3
:10134000000EF86E0900F5CF1DF00A00F5CF1EF073
:1013500039C01FF0A1EC8AF03950D8A412002F90A8
:101360002F842F981200205021102210D8B41ED0A4
:10137000010E236E05D0D890203621362236232A3E
:1013800022AEF9D720501D5C21501E5822501F5804
:10139000D8A006D020501D5E21501E5A22501F5A40
:1013A000D890223221322032232EECD71DC01DF0DE
:1013B0001EC01EF01FC01FF01200839E838C3B0EC8
:1013C0001D6E700EE82EFED71D2EFCD78DCF1DF0A2
:1013D000D8901D320F0E1D161D38F00B386E838EFF
:1013E000839C3B0E1D6E700EE82EFED71D2EFCD783
:1013F000D8908D300F0B3810386E838E838C385018
:10140000FF0A120063EC8DF03B8697EC8CF046EC03
:101410008BF0000E4C6E0BD0C30E256ECD0EE82E59
:10142000FED7252EFCD700F010EC8CF04C2A3BA602
:1014300005D04C50800A7D0FD8A0EED700F0F4EC18
:101440008CF06CEC8DF0120087CF1DF086CF1EF073
:10145000879487828B500F098B6E5BEC8DF09038F0
:10146000F00B466E57EC8DF05BEC8DF090500F0B4F
:101470004610466E87908B50F00B8B6E87921EC085
:1014800086FF1DC087FF465012002A6EA10EF66E21
:10149000FD0EF76E000EF86E0800F550C6EC8BF0EE
:1014A000960EF66EFD0EF76E000EF86E0800F55003
:1014B000040FC4EC8CF0520EFDEC88F02A50276E1D
:1014C000286A296A1DEC85F012003084A60E246E6D
:1014D000FD0E256E970EF66EFD0EF76E000EF86E81
:1014E0000800F5CF26F078EC85F00BD0ADEC8BF052
:1014F000386E03D072EC8DF004D03850010AD8B4A5
:10150000F9D730A41200F2D7000E52EC8CF0030E83
:10151000416E000E0001606F000E616F3CC062F012
:10152000000E636F41C01FF08F0EF66EFD0EF76E5A
:10153000000EF86E0800F55024EC82F0416E3E98E3
:101540001200000EF2BE010E206E1E50030B7F6EC5
:101550001DC07EFF1FC080FF3F0E81168184F29E5A
:10156000550E826EAA0E826E818281B2FED7819460
:1015700020B002D0F29E01D0F28E1200A10EF66EC3
:10158000FD0EF76E000EF86E0800F550C6EC8BF0FD
:1015900029C024F02AC025F0960EF66EFD0EF76ED7
:1015A000000EF86E0800F5CF26F078EC85F0465076
:1015B000020F1200E80EF66E1A0EF76E010EF86EAC
:1015C0000900F5CF4DF000EE60F03A0EEE6AE80645
:1015D000FDE100EE2CF0200EEE6AE806FDE14E6A19
:1015E0004F904F920001BCEF84F0000EC46E000ECD
:1015F000C56E040EC66EE10EC26EBA0EC16EC1504B
:10160000C2CF1DF01E6A1DC01EF01D6A1D10000114
:10161000AC6F1E50AD6F0E01CE99010EC36E12005D
:10162000000ECA6E000ECB6E050ECC6E9E0EC86EFE
:10163000580EC76EC750C8CF1DF01E6A1DC01EF0E1
:101640001D6A1D100001AE6F1E50AF6F0E01CE95CA
:10165000010EC96E1200000ED06E000ED16E050E86
:10166000D26EF60ECE6E3C0ECD6ECD50CECF1DF0AE
:101670001E6A1DC01EF01D6A1D100001B06F1E50B5
:10168000B16F0E01CE91010ECF6E1200000E52EC22
:101690008CF0040E1F6E750EF66EFD0EF76E000ECA
:1016A000F86E0800F5CF20F07F0EF66EFD0EF76E97
:1016B000000EF86E0800F550A6EC81F0246E1200C2
:1016C0009C0E246EFF0E256E970EF66EFD0EF76EC5
:1016D000000EF86E0800F5CF26F078EC85F076EC79
:1016E0008CF02A6E2A50276E286A296A1DEC85F034
:1016F0002F981200000E246E12D02450010DF350CA
:101700002124D96EF4502220DA6E24501F241D6E3D
:10171000000E20201E6ED0EC8CF0DF6E242A2350A9
:10172000245CD8B01200E9D7296E29503C142A6EE7
:101730002A50D8B409D0BE0E246EFF0E256E42C0CA
:1017400026F078EC85F01200B40E246EFF0E256EA4
:1017500042C026F078EC85F01200DDEC89F0216EB5
:1017600021C020F003D0DDEC89F0206E2050D8A4F9
:10177000FAD7080E1F6E9D0E1E6E060EE82EFED7BF
:101780001E2EFCD71F2EFAD721501200206E86CFB6
:101790001FF024EC8AF002D024EC8AF0466E46BE9C
:1017A000FBD720380F0B0F0B866E46EC8DF02050C8
:1017B0000F0B866E46EC8DF01FC086FF12005FECAB
:1017C0008DF0B6EC8CF0D2EC85F0DCEC8CF015EC06
:1017D0008DF010EC8BF04DEC8DF0F5EC8AF02BECED
:1017E0008BF027EC8CF00AEC8DF0E8EC8CF012001A
:1017F0003D0E246EFF0E256E970EF66EFD0EF76EF3
:10180000000EF86E0800F5CF26F078EC85F060C089
:1018100043F0435023EC81F03E922F9C2F9812000E
:10182000000E1F6E710EF66EFD0EF76E000EF86E56
:101830000800F5CF20F07F0EF66EFD0EF76E000E5D
:10184000F86E0800F550A6EC81F0246E1200820EAE
:10185000D66EA50ED46E2E0ED36ED350D4CF1DF0FF
:101860001E6A1DC01EF01D6A1D100001AA6F1E50C9
:10187000AB6F0E01CA9B900ED56E1200000E266E45
:101880000CD021C01DF022C01EF02650010D2350A7
:10189000F3241F6EA1EC8AF0262A2550265CD8B0CE
:1018A0001200EFD71D6E000E1E6E200E1E6401D0BA
:1018B00012001E50010D600EF324D96E000EF420AC
:1018C000DA6E1DC0DFFF1E2AF0D75F0EF66EFD0E2A
:1018D000F76E000EF86E0900F5CF1DF00A00F5CF87
:1018E0001EF03CC01FF0A1EC8AF012006B0EF66EE9
:1018F000FD0EF76E000EF86E0900F5CF1DF00A0020
:10190000F5CF1EF0D0EC8CF0396E39501200000E7D
:1019100052EC8CF0010E1F6E910EF66EFD0EF76EFE
:10192000000EF86E0800F55024EC82F01200000E54
:101930001F6E720EF66EFD0EF76E000EF86E08004A
:10194000F5CF20F0000EA6EC81F0246E1200000E00
:101950001D6E3B9006D01FEC8DF01D6E66EC8DF079
:101960003B800E01CDBBF7D71D501200000E0E01BB
:10197000E16F000EE26F000EE36F000EE46F000EE9
:10198000E56F000EE66F1200216E45C022F08794CD
:1019900021508009C6EC8BF0878422C045F01200EC
:1019A0001E50030B7F6E1DC07EFF3F0E811681808F
:1019B00000F000F080501200600E0E01D86F000E93
:1019C000DA6F000EDC6F040EDE6F000EDD6F1200AA
:1019D000080E0E019F6F100E9D6F040E9E6F380E45
:1019E0009B6F010E9C6F1200080E9F6ED00E9D6EB5
:1019F000EC0E9E6E380E9B6E010E9C6E1200300E29
:101A000004D02450FDEC88F02428246E7F0E24643A
:101A1000F8D71200080E9F6E900E9D6EAC0E9E6E53
:101A2000380E9B6E010E9C6E1200900E0F01396FE6
:101A3000000E3A6F000E3B6F050E3C6F12000E0158
:101A4000CDABFDD79DA202D09D989D8899501200E4
:101A5000000E0F01346F3DCF1DF036C034FF1D5016
:101A600012001E6E1E5038EC8DF069EC8DF01200E5
:101A70001D6E0E01CDA9FDD71DC09AFF12000F01EA
:101A80003DA102D0010E1200000E1200878000D08E
:101A900000F0879000D000F01200800E0F01336F2D
:101AA0001C0E346F12001D6E1DC034FF1200879093
:101AB00000D000F01200878000D000F01200F28AFF
:101AC0000E01BA8912008590858212009FBC120017
:101AD000FDD79EB21200FDD78580859212000E01BF
:091AE000CA99120012001200FF65
:020000040020DA
:10000000FF0FFF0FFF0FFF0FFF0FFF0FFF0FFF0F80
:020000040030CA
:0C0000008CFFFFF79FFFFFFFFFFFFFFFDB
:00000001FF
